{
  "contractName": "BlockMiner",
  "abi": [
    {
      "anonymous": false,
      "inputs": [
        {
          "indexed": false,
          "name": "number",
          "type": "uint256"
        }
      ],
      "name": "MinedBlock",
      "type": "event"
    },
    {
      "constant": true,
      "inputs": [],
      "name": "getBlockNumber",
      "outputs": [
        {
          "name": "",
          "type": "uint256"
        }
      ],
      "payable": false,
      "stateMutability": "view",
      "type": "function"
    },
    {
      "constant": false,
      "inputs": [],
      "name": "mine",
      "outputs": [],
      "payable": false,
      "stateMutability": "nonpayable",
      "type": "function"
    }
  ],
  "bytecode": "0x606060405260008055341561001357600080fd5b60ef806100216000396000f30060606040526004361060485763ffffffff7c010000000000000000000000000000000000000000000000000000000060003504166342cbb15c8114604d57806399f4b25114606f575b600080fd5b3415605757600080fd5b605d6081565b60405190815260200160405180910390f35b3415607957600080fd5b607f6085565b005b4390565b6000805460010190557f7065fe4b5d931b1d2daabced2ce5816f1e687d1edfe808136bbf7354de2adfee4360405190815260200160405180910390a15600a165627a7a723058209fb7532485a7422eda3bf7f22def57674a80c5ece3d495dd2a9ee85e592fc7b50029",
  "source": "import \"./Arbitration/TokenInterface.sol\";\nimport \"./Arbitration/ClientInterface.sol\";\nimport \"./Arbitration/SafeMath.sol\";\n\ncontract client{\n  ClientContract DArbitration;\n  address DCourtAddress;\n  struct Case{\n      address accuser;\n      address defendant;\n      string title;\n      bool decided;\n      uint256 videoID;\n      bool verdict;\n  }\n   mapping (uint256 => Case) cases;\n  uint256 videoCount;\n  function client(address _DCourtAddress) public{\n    DArbitration = ClientContract(_DCourtAddress);\n    DCourtAddress = _DCourtAddress;\n    DArbitration.register(0x96a582e15fcf669f0506accd5372edb3e9c3dc26a341ec60200d701fc03d16c1, \"whatever\");\n  }\n  modifier onlyDCourt{\n    require(msg.sender == DCourtAddress );\n    _;\n  }\n  struct video{\n    address creator;\n    string title;\n  }\n  mapping (uint256 => video) videos;\n  function createVideo(string _title){\n    videoCount+=1;\n    uint256 id = videoCount;\n    videos[id].creator = msg.sender;\n    videos[id].title = _title;\n  }\n  function claimVideo(uint256 videoID){\n      uint256 caseID = DArbitration.fileCase(videos[videoID].creator, 11, \"bla\", \"Ownership claim\");\n      cases[caseID].accuser = msg.sender;\n      cases[caseID].defendant = videos[videoID].creator;\n      cases[caseID].title = \"bla\";\n      cases[caseID].videoID = videoID;\n  }\n  function getVideoOwner(uint256 videoID) public view returns(address){\n      return videos[videoID].creator;\n  }\n  function onVerdict(uint256 _caseID, bool verdict){\n    if(verdict){\n      cases[_caseID].verdict =  true;\n      cases[_caseID].decided =  true;\n      videos[cases[_caseID].videoID].creator = cases[_caseID].accuser;\n    }\n  }\n}\n\ncontract BlockMiner {\n  event MinedBlock(uint256 number);\n\n  function getBlockNumber() public view returns(uint256){\n    return block.number;\n  }\n  uint256 blocksMined =  0;\n  function mine() public {\n     blocksMined += 1;\n     emit MinedBlock(block.number);\n  }\n}\n",
  "sourcePath": "/home/ihab/newDCourt/Dcourt/contracts/testContracts.sol",
  "compiler": {
    "name": "solc",
    "version": "0.4.21+commit.dfe3193c.Emscripten.clang"
  },
  "schemaVersion": "2.0.0",
  "updatedAt": "2018-08-19T15:30:15.085Z"
}