{
  "contractName": "BlockMiner",
  "abi": [
    {
      "inputs": [],
      "payable": false,
      "stateMutability": "nonpayable",
      "type": "constructor"
    },
    {
      "constant": false,
      "inputs": [],
      "name": "mine",
      "outputs": [],
      "payable": false,
      "stateMutability": "nonpayable",
      "type": "function"
    }
  ],
  "bytecode": "0x60606040523415600e57600080fd5b600080819055506094806100236000396000f300606060405260043610603f576000357c0100000000000000000000000000000000000000000000000000000000900463ffffffff16806399f4b251146044575b600080fd5b3415604e57600080fd5b60546056565b005b600160008082825401925050819055505600a165627a7a72305820434394ad49e41e447fa369b913aa3b90f9b0ac90496c547e688e6b16c5ac06730029",
  "source": "contract BlockMiner {\n    uint blocksMined;\n\n    function BlockMiner(){\n        blocksMined = 0;\n    }\n\n    function mine() {\n       blocksMined += 1;\n    }\n}\n",
  "sourcePath": "/home/ihab/newDCourt/Dcourt/contracts/BlockMiner.sol",
  "compiler": {
    "name": "solc",
    "version": "0.4.21+commit.dfe3193c.Emscripten.clang"
  },
  "schemaVersion": "2.0.0",
  "updatedAt": "2018-04-18T23:04:42.328Z"
}