{
  "contractName": "client",
  "abi": [
    {
      "inputs": [
        {
          "name": "_DCourtAddress",
          "type": "address"
        }
      ],
      "payable": false,
      "stateMutability": "nonpayable",
      "type": "constructor"
    },
    {
      "constant": false,
      "inputs": [
        {
          "name": "_title",
          "type": "string"
        }
      ],
      "name": "createVideo",
      "outputs": [],
      "payable": false,
      "stateMutability": "nonpayable",
      "type": "function"
    },
    {
      "constant": false,
      "inputs": [
        {
          "name": "videoID",
          "type": "uint256"
        }
      ],
      "name": "claimVideo",
      "outputs": [],
      "payable": false,
      "stateMutability": "nonpayable",
      "type": "function"
    },
    {
      "constant": false,
      "inputs": [
        {
          "name": "_caseID",
          "type": "uint256"
        },
        {
          "name": "verdict",
          "type": "bool"
        }
      ],
      "name": "onVerdict",
      "outputs": [],
      "payable": false,
      "stateMutability": "nonpayable",
      "type": "function"
    }
  ],
  "bytecode": "0x6060604052341561000f57600080fd5b60405160208061082283398101604052808051906020019091905050806000806101000a81548173ffffffffffffffffffffffffffffffffffffffff021916908373ffffffffffffffffffffffffffffffffffffffff16021790555080600160006101000a81548173ffffffffffffffffffffffffffffffffffffffff021916908373ffffffffffffffffffffffffffffffffffffffff1602179055506000809054906101000a900473ffffffffffffffffffffffffffffffffffffffff1673ffffffffffffffffffffffffffffffffffffffff166321e1e12f7f96a582e15fcf669f0506accd5372edb3e9c3dc26a341ec60200d701fc03d16c160056040518363ffffffff167c0100000000000000000000000000000000000000000000000000000000028152600401808360010260001916815260200182815260200180602001828103825260088152602001807f77686174657665720000000000000000000000000000000000000000000000008152506020019350505050600060405180830381600087803b15156101a457600080fd5b5af115156101b157600080fd5b5050505061065e806101c46000396000f300606060405260043610610057576000357c0100000000000000000000000000000000000000000000000000000000900463ffffffff16806322b134431461005c5780638e8789691461007f578063b18d8bcb146100dc575b600080fd5b341561006757600080fd5b61007d600480803590602001909190505061010a565b005b341561008a57600080fd5b6100da600480803590602001908201803590602001908080601f016020809104026020016040519081016040528093929190818152602001838380828437820191505050505050919050506103e7565b005b34156100e757600080fd5b61010860048080359060200190919080351515906020019091905050610483565b005b60008060009054906101000a900473ffffffffffffffffffffffffffffffffffffffff1673ffffffffffffffffffffffffffffffffffffffff1663d12d7e756004600085815260200190815260200160002060000160009054906101000a900473ffffffffffffffffffffffffffffffffffffffff166040518263ffffffff167c0100000000000000000000000000000000000000000000000000000000028152600401808273ffffffffffffffffffffffffffffffffffffffff1673ffffffffffffffffffffffffffffffffffffffff1681526020018060200180602001838103835260038152602001807f626c6100000000000000000000000000000000000000000000000000000000008152506020018381038252600f8152602001807f4f776e65727368697020636c61696d00000000000000000000000000000000008152506020019350505050602060405180830381600087803b151561026f57600080fd5b5af1151561027c57600080fd5b505050604051805190509050336002600083815260200190815260200160002060000160006101000a81548173ffffffffffffffffffffffffffffffffffffffff021916908373ffffffffffffffffffffffffffffffffffffffff1602179055506004600083815260200190815260200160002060000160009054906101000a900473ffffffffffffffffffffffffffffffffffffffff166002600083815260200190815260200160002060010160006101000a81548173ffffffffffffffffffffffffffffffffffffffff021916908373ffffffffffffffffffffffffffffffffffffffff1602179055506040805190810160405280600381526020017f626c6100000000000000000000000000000000000000000000000000000000008152506002600083815260200190815260200160002060020190805190602001906103c792919061058d565b508160026000838152602001908152602001600020600401819055505050565b600060016003600082825401925050819055506003549050336004600083815260200190815260200160002060000160006101000a81548173ffffffffffffffffffffffffffffffffffffffff021916908373ffffffffffffffffffffffffffffffffffffffff1602179055508160046000838152602001908152602001600020600101908051906020019061047e92919061058d565b505050565b80156105895760016002600084815260200190815260200160002060050160006101000a81548160ff02191690831515021790555060016002600084815260200190815260200160002060030160006101000a81548160ff0219169083151502179055506002600083815260200190815260200160002060000160009054906101000a900473ffffffffffffffffffffffffffffffffffffffff16600460006002600086815260200190815260200160002060040154815260200190815260200160002060000160006101000a81548173ffffffffffffffffffffffffffffffffffffffff021916908373ffffffffffffffffffffffffffffffffffffffff1602179055505b5050565b828054600181600116156101000203166002900490600052602060002090601f016020900481019282601f106105ce57805160ff19168380011785556105fc565b828001600101855582156105fc579182015b828111156105fb5782518255916020019190600101906105e0565b5b509050610609919061060d565b5090565b61062f91905b8082111561062b576000816000905550600101610613565b5090565b905600a165627a7a723058208152784632ec4ddd164cf5a749b50c43186cd0f34407109a1ff48ff54d8c88110029",
  "source": "import \"./TokenInterface.sol\";\nimport \"./ClientInterface.sol\";\nimport \"./SafeMath.sol\";\n\ncontract client{\n  ClientContract DArbitration;\n  address DCourtAddress;\n  struct Case{\n      address accuser;\n      address defendant;\n      string title;\n      bool decided;\n      uint256 videoID;\n      bool verdict;\n  }\n   mapping (uint256 => Case) cases;\n  uint256 videoCount;\n  function client(address _DCourtAddress) public{\n    DArbitration = ClientContract(_DCourtAddress);\n    DCourtAddress = _DCourtAddress;\n    DArbitration.register(0x96a582e15fcf669f0506accd5372edb3e9c3dc26a341ec60200d701fc03d16c1, 5, \"whatever\");\n  }\n  modifier onlyDCourt{\n    require(msg.sender == DCourtAddress );\n    _;\n  }\n  struct video{\n    address creator;\n    string title;\n  }\n  mapping (uint256 => video) videos;\n  function createVideo(string _title){\n    videoCount+=1;\n    uint256 id = videoCount;\n    videos[id].creator = msg.sender;\n    videos[id].title = _title;\n  }\n  function claimVideo(uint256 videoID){\n      uint256 caseID = DArbitration.fileCase(videos[videoID].creator, \"bla\", \"Ownership claim\");\n      cases[caseID].accuser = msg.sender;\n      cases[caseID].defendant = videos[videoID].creator;\n      cases[caseID].title = \"bla\";\n      cases[caseID].videoID = videoID;\n  }\n  function onVerdict(uint256 _caseID, bool verdict){\n    if(verdict){\n      cases[_caseID].verdict =  true;\n      cases[_caseID].decided =  true;\n      videos[cases[_caseID].videoID].creator = cases[_caseID].accuser;\n    }\n  }\n}\n",
  "sourcePath": "/home/ihab/newDCourt/Dcourt/contracts/Arbitration/testClient.sol",
  "compiler": {
    "name": "solc",
    "version": "0.4.21+commit.dfe3193c.Emscripten.clang"
  },
  "schemaVersion": "2.0.0",
  "updatedAt": "2018-04-18T23:04:46.744Z"
}