{
  "contractName": "client",
  "abi": [
    {
      "inputs": [
        {
          "name": "_DCourtAddress",
          "type": "address"
        }
      ],
      "payable": false,
      "stateMutability": "nonpayable",
      "type": "constructor"
    },
    {
      "constant": false,
      "inputs": [
        {
          "name": "_title",
          "type": "string"
        }
      ],
      "name": "createVideo",
      "outputs": [],
      "payable": false,
      "stateMutability": "nonpayable",
      "type": "function"
    },
    {
      "constant": false,
      "inputs": [
        {
          "name": "videoID",
          "type": "uint256"
        }
      ],
      "name": "claimVideo",
      "outputs": [],
      "payable": false,
      "stateMutability": "nonpayable",
      "type": "function"
    },
    {
      "constant": true,
      "inputs": [
        {
          "name": "videoID",
          "type": "uint256"
        }
      ],
      "name": "getVideoOwner",
      "outputs": [
        {
          "name": "",
          "type": "address"
        }
      ],
      "payable": false,
      "stateMutability": "view",
      "type": "function"
    },
    {
      "constant": false,
      "inputs": [
        {
          "name": "_caseID",
          "type": "uint256"
        },
        {
          "name": "verdict",
          "type": "bool"
        }
      ],
      "name": "onVerdict",
      "outputs": [],
      "payable": false,
      "stateMutability": "nonpayable",
      "type": "function"
    }
  ],
  "bytecode": "0x6060604052341561000f57600080fd5b6040516020806105cc8339810160405280805160008054600160a060020a03808416600160a060020a0319928316811793849055600180549093161790915591935016905063cf2d31fb7f96a582e15fcf669f0506accd5372edb3e9c3dc26a341ec60200d701fc03d16c16040517c010000000000000000000000000000000000000000000000000000000063ffffffff84160281526004810191909152604060248201819052600860448301527f776861746576657200000000000000000000000000000000000000000000000060648301526084909101906020905180830381600087803b151561010157600080fd5b5af1151561010e57600080fd5b50505060405180515050506104a4806101286000396000f3006060604052600436106100615763ffffffff7c010000000000000000000000000000000000000000000000000000000060003504166322b1344381146100665780638e8789691461007e578063b18d8bcb146100cf578063ba625a37146100ea575b600080fd5b341561007157600080fd5b61007c60043561011c565b005b341561008957600080fd5b61007c60046024813581810190830135806020601f820181900481020160405190810160405281815292919060208401838380828437509496506102f395505050505050565b34156100da57600080fd5b61007c600435602435151561034b565b34156100f557600080fd5b6101006004356103c2565b604051600160a060020a03909116815260200160405180910390f35b600080548282526004602052604080832054600160a060020a039283169263f63ce5c192911690600b90517c010000000000000000000000000000000000000000000000000000000063ffffffff8516028152600160a060020a039092166004830152602482015260806044820152600360848201527f626c61000000000000000000000000000000000000000000000000000000000060a482015260c06064820152600f60c48201527f4f776e65727368697020636c61696d000000000000000000000000000000000060e482015261010401602060405180830381600087803b151561020957600080fd5b5af1151561021657600080fd5b505050604051805160008181526002602081815260408084208054600160a060020a0333811673ffffffffffffffffffffffffffffffffffffffff199283161783558a875260048552838720549688905294909352600101805490921693909216929092179091559092509050805190810160405280600381526020017f626c610000000000000000000000000000000000000000000000000000000000815250600260008381526020019081526020016000206002019080516102de9291602001906103dd565b50600090815260026020526040902060040155565b600380546001908101918290556000828152600460205260409020805473ffffffffffffffffffffffffffffffffffffffff191633600160a060020a0316178155018280516103469291602001906103dd565b505050565b80156103be57600082815260026020908152604080832060058101805460ff1990811660019081179092556003830180549091169091179055805460049182015485529252909120805473ffffffffffffffffffffffffffffffffffffffff1916600160a060020a039092169190911790555b5050565b600090815260046020526040902054600160a060020a031690565b828054600181600116156101000203166002900490600052602060002090601f016020900481019282601f1061041e57805160ff191683800117855561044b565b8280016001018555821561044b579182015b8281111561044b578251825591602001919060010190610430565b5061045792915061045b565b5090565b61047591905b808211156104575760008155600101610461565b905600a165627a7a723058202d3fa3269e761ef827db99effa92d84db64d712a3b7ff19d48ae59e256a167bd0029",
  "source": "import \"./Arbitration/TokenInterface.sol\";\nimport \"./Arbitration/ClientInterface.sol\";\nimport \"./Arbitration/SafeMath.sol\";\n\ncontract client{\n  ClientContract DArbitration;\n  address DCourtAddress;\n  struct Case{\n      address accuser;\n      address defendant;\n      string title;\n      bool decided;\n      uint256 videoID;\n      bool verdict;\n  }\n   mapping (uint256 => Case) cases;\n  uint256 videoCount;\n  function client(address _DCourtAddress) public{\n    DArbitration = ClientContract(_DCourtAddress);\n    DCourtAddress = _DCourtAddress;\n    DArbitration.register(0x96a582e15fcf669f0506accd5372edb3e9c3dc26a341ec60200d701fc03d16c1, \"whatever\");\n  }\n  modifier onlyDCourt{\n    require(msg.sender == DCourtAddress );\n    _;\n  }\n  struct video{\n    address creator;\n    string title;\n  }\n  mapping (uint256 => video) videos;\n  function createVideo(string _title){\n    videoCount+=1;\n    uint256 id = videoCount;\n    videos[id].creator = msg.sender;\n    videos[id].title = _title;\n  }\n  function claimVideo(uint256 videoID){\n      uint256 caseID = DArbitration.fileCase(videos[videoID].creator, 11, \"bla\", \"Ownership claim\");\n      cases[caseID].accuser = msg.sender;\n      cases[caseID].defendant = videos[videoID].creator;\n      cases[caseID].title = \"bla\";\n      cases[caseID].videoID = videoID;\n  }\n  function getVideoOwner(uint256 videoID) public view returns(address){\n      return videos[videoID].creator;\n  }\n  function onVerdict(uint256 _caseID, bool verdict){\n    if(verdict){\n      cases[_caseID].verdict =  true;\n      cases[_caseID].decided =  true;\n      videos[cases[_caseID].videoID].creator = cases[_caseID].accuser;\n    }\n  }\n}\n\ncontract BlockMiner {\n  event MinedBlock(uint256 number);\n\n  function getBlockNumber() public view returns(uint256){\n    return block.number;\n  }\n  uint256 blocksMined =  0;\n  function mine() public {\n     blocksMined += 1;\n     emit MinedBlock(block.number);\n  }\n}\n",
  "sourcePath": "/home/ihab/newDCourt/Dcourt/contracts/testContracts.sol",
  "compiler": {
    "name": "solc",
    "version": "0.4.21+commit.dfe3193c.Emscripten.clang"
  },
  "schemaVersion": "2.0.0",
  "updatedAt": "2018-08-19T15:30:15.088Z"
}