{
  "contractName": "DCArbitration",
  "abi": [
    {
      "inputs": [
        {
          "name": "DCTAddress",
          "type": "address"
        },
        {
          "name": "_votingPeriod",
          "type": "uint256"
        },
        {
          "name": "_minTrialPeriod",
          "type": "uint256"
        },
        {
          "name": "_roundReward",
          "type": "uint256"
        },
        {
          "name": "_blocksPerRound",
          "type": "uint256"
        },
        {
          "name": "_roundsPerHalving",
          "type": "uint256"
        }
      ],
      "payable": false,
      "stateMutability": "nonpayable",
      "type": "constructor"
    },
    {
      "anonymous": false,
      "inputs": [
        {
          "indexed": true,
          "name": "addr",
          "type": "address"
        },
        {
          "indexed": false,
          "name": "ToA",
          "type": "bytes32"
        },
        {
          "indexed": false,
          "name": "trialDuration",
          "type": "uint256"
        },
        {
          "indexed": false,
          "name": "URL",
          "type": "string"
        }
      ],
      "name": "Registration",
      "type": "event"
    },
    {
      "anonymous": false,
      "inputs": [
        {
          "indexed": false,
          "name": "accuser",
          "type": "address"
        },
        {
          "indexed": false,
          "name": "defendant",
          "type": "address"
        },
        {
          "indexed": false,
          "name": "client",
          "type": "address"
        },
        {
          "indexed": false,
          "name": "block",
          "type": "uint256"
        },
        {
          "indexed": false,
          "name": "title",
          "type": "string"
        },
        {
          "indexed": false,
          "name": "statement",
          "type": "string"
        }
      ],
      "name": "newCase",
      "type": "event"
    },
    {
      "anonymous": false,
      "inputs": [
        {
          "indexed": false,
          "name": "body",
          "type": "string"
        },
        {
          "indexed": false,
          "name": "author",
          "type": "address"
        },
        {
          "indexed": false,
          "name": "caseID",
          "type": "uint256"
        }
      ],
      "name": "newEvidence",
      "type": "event"
    },
    {
      "constant": false,
      "inputs": [
        {
          "name": "_ToA",
          "type": "bytes32"
        },
        {
          "name": "_trialDuration",
          "type": "uint256"
        },
        {
          "name": "_URL",
          "type": "string"
        }
      ],
      "name": "register",
      "outputs": [
        {
          "name": "",
          "type": "bool"
        }
      ],
      "payable": false,
      "stateMutability": "nonpayable",
      "type": "function"
    },
    {
      "constant": false,
      "inputs": [
        {
          "name": "_defendant",
          "type": "address"
        },
        {
          "name": "_statement",
          "type": "string"
        },
        {
          "name": "_title",
          "type": "string"
        }
      ],
      "name": "fileCase",
      "outputs": [
        {
          "name": "",
          "type": "uint256"
        }
      ],
      "payable": false,
      "stateMutability": "nonpayable",
      "type": "function"
    },
    {
      "constant": false,
      "inputs": [],
      "name": "deposit",
      "outputs": [],
      "payable": false,
      "stateMutability": "nonpayable",
      "type": "function"
    },
    {
      "constant": false,
      "inputs": [],
      "name": "withdraw",
      "outputs": [],
      "payable": false,
      "stateMutability": "nonpayable",
      "type": "function"
    },
    {
      "constant": true,
      "inputs": [
        {
          "name": "nonce",
          "type": "string"
        },
        {
          "name": "decision",
          "type": "bool"
        }
      ],
      "name": "generateHash",
      "outputs": [
        {
          "name": "",
          "type": "bytes32"
        }
      ],
      "payable": false,
      "stateMutability": "pure",
      "type": "function"
    },
    {
      "constant": false,
      "inputs": [
        {
          "name": "_caseID",
          "type": "uint256"
        },
        {
          "name": "hash",
          "type": "bytes32"
        },
        {
          "name": "_amount",
          "type": "uint256"
        }
      ],
      "name": "vote",
      "outputs": [
        {
          "name": "",
          "type": "uint256"
        }
      ],
      "payable": false,
      "stateMutability": "nonpayable",
      "type": "function"
    },
    {
      "constant": false,
      "inputs": [
        {
          "name": "decision",
          "type": "bool"
        },
        {
          "name": "nonce",
          "type": "string"
        },
        {
          "name": "_caseID",
          "type": "uint256"
        }
      ],
      "name": "unlock",
      "outputs": [
        {
          "name": "",
          "type": "bool"
        }
      ],
      "payable": false,
      "stateMutability": "nonpayable",
      "type": "function"
    },
    {
      "constant": false,
      "inputs": [
        {
          "name": "_caseID",
          "type": "uint256"
        }
      ],
      "name": "finalize",
      "outputs": [
        {
          "name": "",
          "type": "bool"
        }
      ],
      "payable": false,
      "stateMutability": "nonpayable",
      "type": "function"
    },
    {
      "constant": false,
      "inputs": [],
      "name": "claimReward",
      "outputs": [
        {
          "name": "",
          "type": "bool"
        }
      ],
      "payable": false,
      "stateMutability": "nonpayable",
      "type": "function"
    },
    {
      "constant": false,
      "inputs": [
        {
          "name": "_caseID",
          "type": "uint256"
        },
        {
          "name": "_body",
          "type": "string"
        }
      ],
      "name": "addEvidence",
      "outputs": [
        {
          "name": "",
          "type": "uint256"
        }
      ],
      "payable": false,
      "stateMutability": "nonpayable",
      "type": "function"
    }
  ],
  "bytecode": "0x6060604052341561000f57600080fd5b60405160c08061341d83398101604052808051906020019091908051906020019091908051906020019091908051906020019091908051906020019091908051906020019091905050856000806101000a81548173ffffffffffffffffffffffffffffffffffffffff021916908373ffffffffffffffffffffffffffffffffffffffff160217905550846005819055508360078190555082600381905550816009819055508060048190555043600a81905550505050505050613346806100d76000396000f3006060604052600436106100a4576000357c0100000000000000000000000000000000000000000000000000000000900463ffffffff16806305261aea146100a95780631c3665eb146100e457806321e1e12f1461015e5780633ccfd60b146101e95780634c079dac146101fe57806355f28c0c146102825780635a3b4d531461030b578063b88a802f14610358578063d0e30db014610385578063d12d7e751461039a575b600080fd5b34156100b457600080fd5b6100ca600480803590602001909190505061046d565b604051808215151515815260200191505060405180910390f35b34156100ef57600080fd5b610148600480803590602001909190803590602001908201803590602001908080601f01602080910402602001604051908101604052809392919081815260200183838082843782019150505050505091905050610905565b6040518082815260200191505060405180910390f35b341561016957600080fd5b6101cf60048080356000191690602001909190803590602001909190803590602001908201803590602001908080601f01602080910402602001604051908101604052809392919081815260200183838082843782019150505050505091905050610d62565b604051808215151515815260200191505060405180910390f35b34156101f457600080fd5b6101fc61106d565b005b341561020957600080fd5b610264600480803590602001908201803590602001908080601f0160208091040260200160405190810160405280939291908181526020018383808284378201915050505050509190803515159060200190919050506112da565b60405180826000191660001916815260200191505060405180910390f35b341561028d57600080fd5b6102f16004808035151590602001909190803590602001908201803590602001908080601f01602080910402602001604051908101604052809392919081815260200183838082843782019150505050505091908035906020019091905050611394565b604051808215151515815260200191505060405180910390f35b341561031657600080fd5b610342600480803590602001909190803560001916906020019091908035906020019091905050611b97565b6040518082815260200191505060405180910390f35b341561036357600080fd5b61036b61218b565b604051808215151515815260200191505060405180910390f35b341561039057600080fd5b6103986129ad565b005b34156103a557600080fd5b610457600480803573ffffffffffffffffffffffffffffffffffffffff1690602001909190803590602001908201803590602001908080601f0160208091040260200160405190810160405280939291908181526020018383808284378201915050505050509190803590602001908201803590602001908080601f01602080910402602001604051908101604052809392919081815260200183838082843782019150505050505091905050612d28565b6040518082815260200191505060405180910390f35b60008060003073ffffffffffffffffffffffffffffffffffffffff166000809054906101000a900473ffffffffffffffffffffffffffffffffffffffff1673ffffffffffffffffffffffffffffffffffffffff1663893d20e86040518163ffffffff167c0100000000000000000000000000000000000000000000000000000000028152600401602060405180830381600087803b151561050d57600080fd5b5af1151561051a57600080fd5b5050506040518051905073ffffffffffffffffffffffffffffffffffffffff1614151561054657600080fd5b600654600554600b6000600c600089815260200190815260200160002060020160009054906101000a900473ffffffffffffffffffffffffffffffffffffffff1673ffffffffffffffffffffffffffffffffffffffff1673ffffffffffffffffffffffffffffffffffffffff16815260200190815260200160002060010154600c600088815260200190815260200160002060030154010101431115156105ec57600080fd5b60001515600c6000868152602001908152602001600020600b0160009054906101000a900460ff16151514151561062257600080fd5b600c600085815260200190815260200160002060090154600c600086815260200190815260200160002060080154119150600c600085815260200190815260200160002060020160009054906101000a900473ffffffffffffffffffffffffffffffffffffffff1690508073ffffffffffffffffffffffffffffffffffffffff1663b18d8bcb85846040518363ffffffff167c0100000000000000000000000000000000000000000000000000000000028152600401808381526020018215151515815260200192505050602060405180830381600087803b151561070657600080fd5b5af1151561071357600080fd5b50505060405180519050506001600c6000868152602001908152602001600020600b0160006101000a81548160ff02191690831515021790555081600c6000868152602001908152602001600020600b0160016101000a81548160ff0219169083151502179055506107e2600c600086815260200190815260200160002060070154600e60006107c26009546107b4600a54436131da90919063ffffffff16565b6131f390919063ffffffff16565b81526020019081526020016000206000015461320990919063ffffffff16565b600e600061080f600954610801600a54436131da90919063ffffffff16565b6131f390919063ffffffff16565b8152602001908152602001600020600001819055506108766001600e6000610856600954610848600a54436131da90919063ffffffff16565b6131f390919063ffffffff16565b81526020019081526020016000206001015461320990919063ffffffff16565b600e60006108a3600954610895600a54436131da90919063ffffffff16565b6131f390919063ffffffff16565b8152602001908152602001600020600101819055506108e16009546108d3600a54436131da90919063ffffffff16565b6131f390919063ffffffff16565b600c6000868152602001908152602001600020600a01819055508192505050919050565b60008060003073ffffffffffffffffffffffffffffffffffffffff166000809054906101000a900473ffffffffffffffffffffffffffffffffffffffff1673ffffffffffffffffffffffffffffffffffffffff1663893d20e86040518163ffffffff167c0100000000000000000000000000000000000000000000000000000000028152600401602060405180830381600087803b15156109a557600080fd5b5af115156109b257600080fd5b5050506040518051905073ffffffffffffffffffffffffffffffffffffffff161415156109de57600080fd5b843373ffffffffffffffffffffffffffffffffffffffff16600c600083815260200190815260200160002060010160009054906101000a900473ffffffffffffffffffffffffffffffffffffffff1673ffffffffffffffffffffffffffffffffffffffff161480610ab057503373ffffffffffffffffffffffffffffffffffffffff16600c600083815260200190815260200160002060000160009054906101000a900473ffffffffffffffffffffffffffffffffffffffff1673ffffffffffffffffffffffffffffffffffffffff16145b1515610abb57600080fd5b600073ffffffffffffffffffffffffffffffffffffffff16600c600088815260200190815260200160002060020160009054906101000a900473ffffffffffffffffffffffffffffffffffffffff1673ffffffffffffffffffffffffffffffffffffffff1614151515610b2d57600080fd5b600b6000600c600089815260200190815260200160002060020160009054906101000a900473ffffffffffffffffffffffffffffffffffffffff1673ffffffffffffffffffffffffffffffffffffffff1673ffffffffffffffffffffffffffffffffffffffff16815260200190815260200160002060010154600c6000888152602001908152602001600020600301540143101515610bcb57600080fd5b600c60008781526020019081526020016000206006018054905092508280600101935050600c600087815260200190815260200160002060060183815481101515610c1257fe5b9060005260206000209060020201915084826000019080519060200190610c3a929190613275565b50338260010160006101000a81548173ffffffffffffffffffffffffffffffffffffffff021916908373ffffffffffffffffffffffffffffffffffffffff1602179055507f0db3e7562a94a1d21937d3911462ebfd284ca4969846d6af76b19ebff8664eb785338860405180806020018473ffffffffffffffffffffffffffffffffffffffff1673ffffffffffffffffffffffffffffffffffffffff168152602001838152602001828103825285818151815260200191508051906020019080838360005b83811015610d1a578082015181840152602081019050610cff565b50505050905090810190601f168015610d475780820380516001836020036101000a031916815260200191505b5094505050505060405180910390a182935050505092915050565b6000610d6d33613227565b1515610d7857600080fd5b3073ffffffffffffffffffffffffffffffffffffffff166000809054906101000a900473ffffffffffffffffffffffffffffffffffffffff1673ffffffffffffffffffffffffffffffffffffffff1663893d20e86040518163ffffffff167c0100000000000000000000000000000000000000000000000000000000028152600401602060405180830381600087803b1515610e1357600080fd5b5af11515610e2057600080fd5b5050506040518051905073ffffffffffffffffffffffffffffffffffffffff16141515610e4c57600080fd5b6007548310151515610e5d57600080fd5b6000600b60003373ffffffffffffffffffffffffffffffffffffffff1673ffffffffffffffffffffffffffffffffffffffff16815260200190815260200160002060010154141515610eae57600080fd5b83600b60003373ffffffffffffffffffffffffffffffffffffffff1673ffffffffffffffffffffffffffffffffffffffff168152602001908152602001600020600001816000191690555082600b60003373ffffffffffffffffffffffffffffffffffffffff1673ffffffffffffffffffffffffffffffffffffffff1681526020019081526020016000206001018190555081600b60003373ffffffffffffffffffffffffffffffffffffffff1673ffffffffffffffffffffffffffffffffffffffff1681526020019081526020016000206002019080519060200190610f96929190613275565b503373ffffffffffffffffffffffffffffffffffffffff167f3b321e585cfb3bb25309a2c2e5fe26e990e4d8325f61ad97e917ee0db73fc1d085858560405180846000191660001916815260200183815260200180602001828103825283818151815260200191508051906020019080838360005b8381101561102657808201518184015260208101905061100b565b50505050905090810190601f1680156110535780820380516001836020036101000a031916815260200191505b5094505050505060405180910390a2600190509392505050565b6001546110c66002600d60003373ffffffffffffffffffffffffffffffffffffffff1673ffffffffffffffffffffffffffffffffffffffff1681526020019081526020016000206001015461320990919063ffffffff16565b111515156110d357600080fd5b3073ffffffffffffffffffffffffffffffffffffffff166000809054906101000a900473ffffffffffffffffffffffffffffffffffffffff1673ffffffffffffffffffffffffffffffffffffffff1663893d20e86040518163ffffffff167c0100000000000000000000000000000000000000000000000000000000028152600401602060405180830381600087803b151561116e57600080fd5b5af1151561117b57600080fd5b5050506040518051905073ffffffffffffffffffffffffffffffffffffffff161415156111a757600080fd5b6000600d60003373ffffffffffffffffffffffffffffffffffffffff1673ffffffffffffffffffffffffffffffffffffffff168152602001908152602001600020600301541415156111f857600080fd5b6000809054906101000a900473ffffffffffffffffffffffffffffffffffffffff1673ffffffffffffffffffffffffffffffffffffffff1663bf120ae53360006040518363ffffffff167c0100000000000000000000000000000000000000000000000000000000028152600401808373ffffffffffffffffffffffffffffffffffffffff1673ffffffffffffffffffffffffffffffffffffffff1681526020018215151515815260200192505050602060405180830381600087803b15156112c057600080fd5b5af115156112cd57600080fd5b5050506040518051905050565b6000806001151583151514156112f357600190506112f8565b600090505b8084604051808360ff1660ff167f010000000000000000000000000000000000000000000000000000000000000002815260010182805190602001908083835b60208310151561135d5780518252602082019150602081019050602083039250611338565b6001836020036101000a03801982511681845116808217855250505050505090500192505050604051809103902091505092915050565b60008060006001546113f26002600d60003373ffffffffffffffffffffffffffffffffffffffff1673ffffffffffffffffffffffffffffffffffffffff1681526020019081526020016000206001015461320990919063ffffffff16565b111515156113ff57600080fd5b6000600f60003373ffffffffffffffffffffffffffffffffffffffff1673ffffffffffffffffffffffffffffffffffffffff16815260200190815260200160002060008681526020019081526020016000206001015411151561146157600080fd5b600554600b6000600c600088815260200190815260200160002060020160009054906101000a900473ffffffffffffffffffffffffffffffffffffffff1673ffffffffffffffffffffffffffffffffffffffff1673ffffffffffffffffffffffffffffffffffffffff16815260200190815260200160002060010154600c6000878152602001908152602001600020600301540101431015801561159c5750600654600554600b6000600c600089815260200190815260200160002060020160009054906101000a900473ffffffffffffffffffffffffffffffffffffffff1673ffffffffffffffffffffffffffffffffffffffff1673ffffffffffffffffffffffffffffffffffffffff16815260200190815260200160002060010154600c60008881526020019081526020016000206003015401010143105b15156115a757600080fd5b60001515600f60003373ffffffffffffffffffffffffffffffffffffffff1673ffffffffffffffffffffffffffffffffffffffff168152602001908152602001600020600086815260200190815260200160002060030160019054906101000a900460ff16151514151561161a57600080fd5b6001151586151514156116305760019150611635565b600091505b8185604051808360ff1660ff167f010000000000000000000000000000000000000000000000000000000000000002815260010182805190602001908083835b60208310151561169a5780518252602082019150602081019050602083039250611675565b6001836020036101000a0380198251168184511680821785525050505050509050019250505060405180910390209050600f60003373ffffffffffffffffffffffffffffffffffffffff1673ffffffffffffffffffffffffffffffffffffffff16815260200190815260200160002060008581526020019081526020016000206000015460001916816000191614151561173357600080fd5b6117896001600d60003373ffffffffffffffffffffffffffffffffffffffff1673ffffffffffffffffffffffffffffffffffffffff1681526020019081526020016000206004015461320990919063ffffffff16565b600d60003373ffffffffffffffffffffffffffffffffffffffff1673ffffffffffffffffffffffffffffffffffffffff1681526020019081526020016000206004018190555083600d60003373ffffffffffffffffffffffffffffffffffffffff1673ffffffffffffffffffffffffffffffffffffffff168152602001908152602001600020600501600d60003373ffffffffffffffffffffffffffffffffffffffff1673ffffffffffffffffffffffffffffffffffffffff1681526020019081526020016000206004015481548110151561186157fe5b906000526020600020900181905550600115158615151415611918576118f9600f60003373ffffffffffffffffffffffffffffffffffffffff1673ffffffffffffffffffffffffffffffffffffffff168152602001908152602001600020600086815260200190815260200160002060010154600c60008781526020019081526020016000206008015461320990919063ffffffff16565b600c6000868152602001908152602001600020600801819055506119af565b611994600f60003373ffffffffffffffffffffffffffffffffffffffff1673ffffffffffffffffffffffffffffffffffffffff168152602001908152602001600020600086815260200190815260200160002060010154600c60008781526020019081526020016000206009015461320990919063ffffffff16565b600c6000868152602001908152602001600020600901819055505b6001600f60003373ffffffffffffffffffffffffffffffffffffffff1673ffffffffffffffffffffffffffffffffffffffff168152602001908152602001600020600086815260200190815260200160002060030160016101000a81548160ff02191690831515021790555084600f60003373ffffffffffffffffffffffffffffffffffffffff1673ffffffffffffffffffffffffffffffffffffffff16815260200190815260200160002060008681526020019081526020016000206002019080519060200190611a82929190613275565b5085600f60003373ffffffffffffffffffffffffffffffffffffffff1673ffffffffffffffffffffffffffffffffffffffff168152602001908152602001600020600086815260200190815260200160002060030160006101000a81548160ff021916908315150217905550611b446001600d60003373ffffffffffffffffffffffffffffffffffffffff1673ffffffffffffffffffffffffffffffffffffffff168152602001908152602001600020600301546131da90919063ffffffff16565b600d60003373ffffffffffffffffffffffffffffffffffffffff1673ffffffffffffffffffffffffffffffffffffffff168152602001908152602001600020600301819055506001925050509392505050565b6000600154611bf26002600d60003373ffffffffffffffffffffffffffffffffffffffff1673ffffffffffffffffffffffffffffffffffffffff1681526020019081526020016000206001015461320990919063ffffffff16565b11151515611bff57600080fd5b3073ffffffffffffffffffffffffffffffffffffffff166000809054906101000a900473ffffffffffffffffffffffffffffffffffffffff1673ffffffffffffffffffffffffffffffffffffffff1663893d20e86040518163ffffffff167c0100000000000000000000000000000000000000000000000000000000028152600401602060405180830381600087803b1515611c9a57600080fd5b5af11515611ca757600080fd5b5050506040518051905073ffffffffffffffffffffffffffffffffffffffff16141515611cd357600080fd5b600b6000600c600087815260200190815260200160002060020160009054906101000a900473ffffffffffffffffffffffffffffffffffffffff1673ffffffffffffffffffffffffffffffffffffffff1673ffffffffffffffffffffffffffffffffffffffff16815260200190815260200160002060010154600c600086815260200190815260200160002060030154014310158015611e065750600554600b6000600c600088815260200190815260200160002060020160009054906101000a900473ffffffffffffffffffffffffffffffffffffffff1673ffffffffffffffffffffffffffffffffffffffff1673ffffffffffffffffffffffffffffffffffffffff16815260200190815260200160002060010154600c600087815260200190815260200160002060030154010143105b1515611e1157600080fd5b6000600f60003373ffffffffffffffffffffffffffffffffffffffff1673ffffffffffffffffffffffffffffffffffffffff168152602001908152602001600020600086815260200190815260200160002060010154141515611e7357600080fd5b6000611eca83600d60003373ffffffffffffffffffffffffffffffffffffffff1673ffffffffffffffffffffffffffffffffffffffff168152602001908152602001600020600201546131da90919063ffffffff16565b10151515611ed757600080fd5b611f2c82600d60003373ffffffffffffffffffffffffffffffffffffffff1673ffffffffffffffffffffffffffffffffffffffff168152602001908152602001600020600201546131da90919063ffffffff16565b600d60003373ffffffffffffffffffffffffffffffffffffffff1673ffffffffffffffffffffffffffffffffffffffff1681526020019081526020016000206002018190555081600f60003373ffffffffffffffffffffffffffffffffffffffff1673ffffffffffffffffffffffffffffffffffffffff16815260200190815260200160002060008681526020019081526020016000206001018190555082600f60003373ffffffffffffffffffffffffffffffffffffffff1673ffffffffffffffffffffffffffffffffffffffff1681526020019081526020016000206000868152602001908152602001600020600001816000191690555061204f82600c60008781526020019081526020016000206007015461320990919063ffffffff16565b600c6000868152602001908152602001600020600701819055506001600381111561207657fe5b600c600086815260200190815260200160002060040160009054906101000a900460ff1660038111156120a557fe5b1415156120e5576001600c600086815260200190815260200160002060040160006101000a81548160ff021916908360038111156120df57fe5b02179055505b61213b6001600d60003373ffffffffffffffffffffffffffffffffffffffff1673ffffffffffffffffffffffffffffffffffffffff1681526020019081526020016000206003015461320990919063ffffffff16565b600d60003373ffffffffffffffffffffffffffffffffffffffff1673ffffffffffffffffffffffffffffffffffffffff168152602001908152602001600020600301819055508390509392505050565b6000806000806000806000806001546121f06002600d60003373ffffffffffffffffffffffffffffffffffffffff1673ffffffffffffffffffffffffffffffffffffffff1681526020019081526020016000206001015461320990919063ffffffff16565b111515156121fd57600080fd5b3073ffffffffffffffffffffffffffffffffffffffff166000809054906101000a900473ffffffffffffffffffffffffffffffffffffffff1673ffffffffffffffffffffffffffffffffffffffff1663893d20e86040518163ffffffff167c0100000000000000000000000000000000000000000000000000000000028152600401602060405180830381600087803b151561229857600080fd5b5af115156122a557600080fd5b5050506040518051905073ffffffffffffffffffffffffffffffffffffffff161415156122d157600080fd5b6000600d60003373ffffffffffffffffffffffffffffffffffffffff1673ffffffffffffffffffffffffffffffffffffffff1681526020019081526020016000206004015411151561232257600080fd5b600d60003373ffffffffffffffffffffffffffffffffffffffff1673ffffffffffffffffffffffffffffffffffffffff168152602001908152602001600020600401549650612390600954612382600a54436131da90919063ffffffff16565b6131f390919063ffffffff16565b955060019350600192505b86831115156127d45785600c6000600d60003373ffffffffffffffffffffffffffffffffffffffff1673ffffffffffffffffffffffffffffffffffffffff168152602001908152602001600020600501868154811015156123f857fe5b9060005260206000209001548152602001908152602001600020600a01541415612421576127c7565b600454600c6000600d60003373ffffffffffffffffffffffffffffffffffffffff1673ffffffffffffffffffffffffffffffffffffffff1681526020019081526020016000206005018681548110151561247757fe5b9060005260206000209001548152602001908152602001600020600a015481151561249e57fe5b0490506124cb6003546124bd8360020a876131f390919063ffffffff16565b61323a90919063ffffffff16565b9150600f60003373ffffffffffffffffffffffffffffffffffffffff1673ffffffffffffffffffffffffffffffffffffffff1681526020019081526020016000206000600d60003373ffffffffffffffffffffffffffffffffffffffff1673ffffffffffffffffffffffffffffffffffffffff1681526020019081526020016000206005018581548110151561255d57fe5b906000526020600020900154815260200190815260200160002060030160009054906101000a900460ff161515600c6000600d60003373ffffffffffffffffffffffffffffffffffffffff1673ffffffffffffffffffffffffffffffffffffffff168152602001908152602001600020600501868154811015156125dd57fe5b9060005260206000209001548152602001908152602001600020600b0160019054906101000a900460ff16151514156126ed5781600e600088815260200190815260200160002060010154600181151561263357fe5b04600f60003373ffffffffffffffffffffffffffffffffffffffff1673ffffffffffffffffffffffffffffffffffffffff1681526020019081526020016000206000600d60003373ffffffffffffffffffffffffffffffffffffffff1673ffffffffffffffffffffffffffffffffffffffff168152602001908152602001600020600501878154811015156126c457fe5b9060005260206000209001548152602001908152602001600020600101540202850194506127c6565b81600e600088815260200190815260200160002060010154600181151561271057fe5b04600f60003373ffffffffffffffffffffffffffffffffffffffff1673ffffffffffffffffffffffffffffffffffffffff1681526020019081526020016000206000600d60003373ffffffffffffffffffffffffffffffffffffffff1673ffffffffffffffffffffffffffffffffffffffff168152602001908152602001600020600501878154811015156127a157fe5b9060005260206000209001548152602001908152602001600020600101540202850394505b5b828060010193505061239b565b60008513156128bd576000809054906101000a900473ffffffffffffffffffffffffffffffffffffffff1673ffffffffffffffffffffffffffffffffffffffff166340c10f1933876040518363ffffffff167c0100000000000000000000000000000000000000000000000000000000028152600401808373ffffffffffffffffffffffffffffffffffffffff1673ffffffffffffffffffffffffffffffffffffffff16815260200182815260200192505050602060405180830381600087803b15156128a057600080fd5b5af115156128ad57600080fd5b50505060405180519050506129a3565b60008512156129a2576000809054906101000a900473ffffffffffffffffffffffffffffffffffffffff1673ffffffffffffffffffffffffffffffffffffffff16639dc29fac33876040518363ffffffff167c0100000000000000000000000000000000000000000000000000000000028152600401808373ffffffffffffffffffffffffffffffffffffffff1673ffffffffffffffffffffffffffffffffffffffff16815260200182815260200192505050602060405180830381600087803b151561298957600080fd5b5af1151561299657600080fd5b50505060405180519050505b5b5050505050505090565b60003073ffffffffffffffffffffffffffffffffffffffff166000809054906101000a900473ffffffffffffffffffffffffffffffffffffffff1673ffffffffffffffffffffffffffffffffffffffff1663893d20e86040518163ffffffff167c0100000000000000000000000000000000000000000000000000000000028152600401602060405180830381600087803b1515612a4a57600080fd5b5af11515612a5757600080fd5b5050506040518051905073ffffffffffffffffffffffffffffffffffffffff16141515612a8357600080fd5b6000809054906101000a900473ffffffffffffffffffffffffffffffffffffffff1673ffffffffffffffffffffffffffffffffffffffff166370a08231336040518263ffffffff167c0100000000000000000000000000000000000000000000000000000000028152600401808273ffffffffffffffffffffffffffffffffffffffff1673ffffffffffffffffffffffffffffffffffffffff168152602001915050602060405180830381600087803b1515612b3e57600080fd5b5af11515612b4b57600080fd5b505050604051805190509050600081111515612b6657600080fd5b6000600d60003373ffffffffffffffffffffffffffffffffffffffff1673ffffffffffffffffffffffffffffffffffffffff16815260200190815260200160002060000154141515612bb757600080fd5b80600d60003373ffffffffffffffffffffffffffffffffffffffff1673ffffffffffffffffffffffffffffffffffffffff1681526020019081526020016000206000018190555080600d60003373ffffffffffffffffffffffffffffffffffffffff1673ffffffffffffffffffffffffffffffffffffffff168152602001908152602001600020600201819055506000809054906101000a900473ffffffffffffffffffffffffffffffffffffffff1673ffffffffffffffffffffffffffffffffffffffff1663bf120ae53360016040518363ffffffff167c0100000000000000000000000000000000000000000000000000000000028152600401808373ffffffffffffffffffffffffffffffffffffffff1673ffffffffffffffffffffffffffffffffffffffff1681526020018215151515815260200192505050602060405180830381600087803b1515612d0d57600080fd5b5af11515612d1a57600080fd5b505050604051805190505050565b6000806000612d3633613227565b1515612d4157600080fd5b3073ffffffffffffffffffffffffffffffffffffffff166000809054906101000a900473ffffffffffffffffffffffffffffffffffffffff1673ffffffffffffffffffffffffffffffffffffffff1663893d20e86040518163ffffffff167c0100000000000000000000000000000000000000000000000000000000028152600401602060405180830381600087803b1515612ddc57600080fd5b5af11515612de957600080fd5b5050506040518051905073ffffffffffffffffffffffffffffffffffffffff16141515612e1557600080fd5b6000600b60003373ffffffffffffffffffffffffffffffffffffffff1673ffffffffffffffffffffffffffffffffffffffff1681526020019081526020016000206001015414151515612e6757600080fd5b600260008154809291906001019190505550600c600060025481526020019081526020016000209150338260020160006101000a81548173ffffffffffffffffffffffffffffffffffffffff021916908373ffffffffffffffffffffffffffffffffffffffff160217905550328260000160006101000a81548173ffffffffffffffffffffffffffffffffffffffff021916908373ffffffffffffffffffffffffffffffffffffffff160217905550858260010160006101000a81548173ffffffffffffffffffffffffffffffffffffffff021916908373ffffffffffffffffffffffffffffffffffffffff160217905550438260030181905550816006016000815481101515612f7457fe5b9060005260206000209060020201905084816000019080519060200190612f9c929190613275565b50328160010160006101000a81548173ffffffffffffffffffffffffffffffffffffffff021916908373ffffffffffffffffffffffffffffffffffffffff16021790555083826005019080519060200190612ff8929190613275565b5060008260040160006101000a81548160ff0219169083600381111561301a57fe5b02179055507f67c5c7a990f9f7edc7e62c6f4a8292e29ef238e69af4a0a4b7ff90307f6b716b32873343888a604051808773ffffffffffffffffffffffffffffffffffffffff1673ffffffffffffffffffffffffffffffffffffffff1681526020018673ffffffffffffffffffffffffffffffffffffffff1673ffffffffffffffffffffffffffffffffffffffff1681526020018573ffffffffffffffffffffffffffffffffffffffff1673ffffffffffffffffffffffffffffffffffffffff1681526020018481526020018060200180602001838103835285818151815260200191508051906020019080838360005b8381101561312657808201518184015260208101905061310b565b50505050905090810190601f1680156131535780820380516001836020036101000a031916815260200191505b50838103825284818151815260200191508051906020019080838360005b8381101561318c578082015181840152602081019050613171565b50505050905090810190601f1680156131b95780820380516001836020036101000a031916815260200191505b509850505050505050505060405180910390a1600254925050509392505050565b60008282111515156131e857fe5b818303905092915050565b6000818381151561320057fe5b04905092915050565b600080828401905083811015151561321d57fe5b8091505092915050565b600080823b905060008111915050919050565b600080600084141561324f576000915061326e565b828402905082848281151561326057fe5b0414151561326a57fe5b8091505b5092915050565b828054600181600116156101000203166002900490600052602060002090601f016020900481019282601f106132b657805160ff19168380011785556132e4565b828001600101855582156132e4579182015b828111156132e35782518255916020019190600101906132c8565b5b5090506132f191906132f5565b5090565b61331791905b808211156133135760008160009055506001016132fb565b5090565b905600a165627a7a72305820e7dbbb74eacb6adb97fa2e9f996a0772c9347ad06b3fa2bf6b64dca178f58af20029",
  "source": "pragma solidity ^0.4.18;\n\nimport \"./TokenInterface.sol\";\nimport \"./ClientInterface.sol\";\nimport \"./SafeMath.sol\";\n\ncontract DCArbitration {\n    using SafeMath for uint256;\n    DCTInterface DCToken;\n\n    /*\n        Variables\n    */\n\n    uint256 round;\n    uint256 caseCounter;\n    uint256 RoundReward;\n    uint256 roundsPerHalving;\n    uint256 votingPeriod;\n    uint256 unlockingPeriod;\n    uint256 minTrialPeriod;\n    uint256 roundWeight;\n    uint256 blocksPerRound;\n    uint256 genesisBlock;\n\n    /*\n        structs\n    */\n    struct Client{\n        bytes32 ToA;\n        uint256 trialDuration;\n        string URL;\n    }\n    struct Case{\n        address accuser;\n        address defendant;\n        address client;\n        uint256 block;\n        phase _phase;\n        string title;\n        evidence[] _evidence;\n        uint256 voteWeight;\n        uint256 ayes;\n        uint256 nayes;\n        uint256 round;\n        bool decided;\n        bool verdict;\n    }\n    struct evidence{\n        string body;\n        address author;\n    }\n\n    struct juror{\n        uint256 deposit;\n        uint256 round;\n        uint256 remaining;\n        uint256 activeCases;\n        uint256 caseCount;\n        uint256[] cases;\n    }\n\n    struct Vote{\n        bytes32 _hash;\n        uint256 amount;\n        string nonce;\n        bool decision;\n        bool unlocked;\n        bool claimed; //Rewarded or penalized.\n    }\n\n    struct Round{\n        uint256 roundWeight;\n        uint256 caseCount;\n    }\n    /*\n        modifiers\n\n    */\n\n    modifier onlyWhenOwner(){\n         require(DCToken.getOwner() == address(this));\n        _;\n    }\n\n    modifier onlyContract(){\n        require(isContract(msg.sender));\n        _;\n    }\n    modifier onlyCaseParty(uint256 _caseID){\n        require(cases[_caseID].defendant == msg.sender || cases[_caseID].accuser == msg.sender);\n        _;\n    }\n    modifier onlyJuror(){\n        require(jurors[msg.sender].round.add(2) <= round);\n        _;\n    }\n\n    /*\n        Enumerators\n    */\n    enum phase {\n        TRIAL,\n        VOTING,\n        UNLOCKING,\n        FINAL\n    }\n\n\n    /*\n        mappings\n    */\n    mapping (address => Client) clients;\n    mapping(uint256 => Case) cases;\n    mapping (address => juror) jurors;\n    mapping (uint256 => Round) rounds;\n    mapping (address => mapping(uint256 => Vote)) votes;\n    /*\n        events\n    */\n    event Registration(address indexed addr, bytes32 ToA, uint256 trialDuration, string URL);\n    event newCase(address accuser,\n        address defendant,\n        address client,\n        uint256 block,\n        string title,\n        string statement\n        );\n    event newEvidence(string body, address author, uint256 caseID);\n\n    /*\n        Functions\n    */\n\n    function DCArbitration(address DCTAddress, uint256 _votingPeriod, uint256 _minTrialPeriod, uint256 _roundReward,  uint256 _blocksPerRound, uint256 _roundsPerHalving) public{\n        DCToken = DCTInterface(DCTAddress);\n        votingPeriod = _votingPeriod;\n        minTrialPeriod = _minTrialPeriod;\n        RoundReward = _roundReward;\n        blocksPerRound = _blocksPerRound;\n        roundsPerHalving = _roundsPerHalving;\n        genesisBlock = block.number;\n    }\n    function register(bytes32 _ToA, uint256 _trialDuration, string _URL) onlyContract onlyWhenOwner public returns(bool){\n        require(_trialDuration >= minTrialPeriod);\n        require(clients[msg.sender].trialDuration == 0);\n        clients[msg.sender].ToA = _ToA;\n        clients[msg.sender].trialDuration = _trialDuration;\n        clients[msg.sender].URL = _URL;\n        Registration(msg.sender, _ToA, _trialDuration, _URL);\n        return true;\n    }\n\n    function fileCase(address _defendant, string _statement, string _title) public onlyContract onlyWhenOwner returns(uint256){\n        require(clients[msg.sender].trialDuration != 0);\n        caseCounter++;\n        Case storage filedCase = cases[caseCounter];\n        filedCase.client = msg.sender;\n        filedCase.accuser = tx.origin;\n        filedCase.defendant = _defendant;\n        filedCase.block = block.number;\n        evidence storage _evidence = filedCase._evidence[0];\n        _evidence.body = _statement;\n        _evidence.author = tx.origin;\n        filedCase.title = _title;\n        filedCase._phase = phase.TRIAL;\n        newCase(tx.origin,\n        _defendant,\n        msg.sender,\n        block.number,\n        _title,\n        _statement\n        );\n        return caseCounter;\n    }\n\n    function deposit() onlyWhenOwner public{\n        uint256 balance = DCToken.balanceOf(msg.sender);\n        require(balance > 0);\n        require(jurors[msg.sender].deposit == 0);\n        jurors[msg.sender].deposit = balance;\n        jurors[msg.sender].remaining = balance;\n        DCToken.freeze(msg.sender, true);\n    }\n\n    function withdraw() onlyJuror onlyWhenOwner public{\n        require(jurors[msg.sender].activeCases == 0);\n        DCToken.freeze(msg.sender, false);\n    }\n\n    function generateHash(string nonce, bool decision) public pure returns(bytes32){\n        uint8 dec;\n        if(decision == true)\n            dec = 1;\n        else\n            dec = 0;\n        return keccak256(dec,nonce);\n    }\n\n    function vote(uint256 _caseID, bytes32 hash, uint256 _amount) onlyJuror onlyWhenOwner public returns(uint256){\n        require((block.number >= cases[_caseID].block + clients[cases[_caseID].client].trialDuration) && block.number < cases[_caseID].block + clients[cases[_caseID].client].trialDuration + votingPeriod);\n\n        require(votes[msg.sender][_caseID].amount == 0);\n        require(jurors[msg.sender].remaining.sub(_amount) >= 0 );\n        jurors[msg.sender].remaining = jurors[msg.sender].remaining.sub(_amount);\n\n        votes[msg.sender][_caseID].amount = _amount;\n        votes[msg.sender][_caseID]._hash = hash;\n        cases[_caseID].voteWeight = cases[_caseID].voteWeight.add(_amount);\n        if(cases[_caseID]._phase != phase.VOTING){\n           cases[_caseID]._phase = phase.VOTING;\n        }\n        jurors[msg.sender].activeCases = jurors[msg.sender].activeCases.add(1);\n        return _caseID; //?\n    }\n    function unlock(bool decision, string nonce, uint256 _caseID) onlyJuror public returns(bool){\n        require(votes[msg.sender][_caseID].amount > 0);\n        require((block.number >= cases[_caseID].block + clients[cases[_caseID].client].trialDuration + votingPeriod) && (block.number < cases[_caseID].block + clients[cases[_caseID].client].trialDuration + votingPeriod + unlockingPeriod));\n        require(votes[msg.sender][_caseID].unlocked == false);\n        uint8 dec;\n        if(decision == true){\n            dec = 1;\n        }else{\n            dec = 0;\n        }\n        bytes32 _hash = keccak256(dec,nonce);\n        require(_hash == votes[msg.sender][_caseID]._hash);\n        jurors[msg.sender].caseCount = jurors[msg.sender].caseCount.add(1);\n        jurors[msg.sender].cases[jurors[msg.sender].caseCount] = _caseID;\n        if(decision == true){\n            cases[_caseID].ayes = cases[_caseID].ayes.add(votes[msg.sender][_caseID].amount);\n        }else{\n            cases[_caseID].nayes = cases[_caseID].nayes.add(votes[msg.sender][_caseID].amount);\n        }\n        votes[msg.sender][_caseID].unlocked = true;\n        votes[msg.sender][_caseID].nonce = nonce;\n        votes[msg.sender][_caseID].decision = decision;\n        jurors[msg.sender].activeCases = jurors[msg.sender].activeCases.sub(1);\n        return true;\n    }\n    function finalize(uint256 _caseID) public onlyWhenOwner returns(bool){\n         require(block.number > cases[_caseID].block + clients[cases[_caseID].client].trialDuration + votingPeriod + unlockingPeriod);\n         require(cases[_caseID].decided == false);\n         bool verdict = cases[_caseID].ayes > cases[_caseID].nayes;\n         ClientContract cc = ClientContract(cases[_caseID].client);\n         cc.onVerdict(_caseID, verdict);\n         cases[_caseID].decided = true;\n         cases[_caseID].verdict = verdict;\n         rounds[(block.number.sub(genesisBlock)).div(blocksPerRound)].roundWeight = rounds[(block.number.sub(genesisBlock)).div(blocksPerRound)].roundWeight.add(cases[_caseID].voteWeight);\n         rounds[(block.number.sub(genesisBlock)).div(blocksPerRound)].caseCount = rounds[(block.number.sub(genesisBlock)).div(blocksPerRound)].caseCount.add(1);\n        //  rounds[(block.number.sub(genesisBlock)).div(blocksPerRound)].roundWeight = roundWeights[(block.number.sub(genesisBlock)).roundWeight.div(blocksPerRound)].add(cases[_caseID].voteWeight);\n         cases[_caseID].round = (block.number.sub(genesisBlock)).div(blocksPerRound);\n         return verdict;\n    }\n    function claimReward() public onlyJuror onlyWhenOwner returns(bool){ // optional iterations argument\n        require(jurors[msg.sender].caseCount > 0); // activeCases >> caseCount\n        uint256 NCases = jurors[msg.sender].caseCount;\n        uint256 currentRound = uint((block.number.sub(genesisBlock)).div(blocksPerRound));\n        int256 Claimed;\n        uint256 one = 1;\n        for(uint256 i=1; i <= NCases; i++){\n            uint256 individualRR;\n            if(/* cases[jurors[msg.sender].cases[i]].decided == false || */ cases[jurors[msg.sender].cases[i]].round == currentRound) continue;\n            // uint256 tokenShare = ;\n            uint256 halvings = (cases[jurors[msg.sender].cases[i]].round / roundsPerHalving);\n            individualRR = (one.div(2**halvings)).mul(RoundReward);\n            if(cases[jurors[msg.sender].cases[i]].verdict == votes[msg.sender][jurors[msg.sender].cases[i]].decision){\n                Claimed += int(votes[msg.sender][jurors[msg.sender].cases[i]].amount * (1/rounds[currentRound].caseCount) * individualRR);\n                // DCToken.mint(msg.sender, Claimed);\n            }else{ //75% threshold?\n                Claimed -= int(votes[msg.sender][jurors[msg.sender].cases[i]].amount * (1/rounds[currentRound].caseCount) * individualRR);\n            }\n        }\n        if(Claimed > 0 ){\n            DCToken.mint(msg.sender, uint256(Claimed));\n        }else if(Claimed < 0){\n            DCToken.burn(msg.sender, uint256(Claimed));\n        }\n        //Remove cases from array\n    }\n\n    function addEvidence(uint256 _caseID, string _body) public onlyWhenOwner onlyCaseParty(_caseID) returns (uint256){\n        require(cases[_caseID].client != address(0));\n        require(block.number < cases[_caseID].block + clients[cases[_caseID].client].trialDuration);\n        uint256 evidenceLength = cases[_caseID]._evidence.length;\n        evidenceLength++;\n        evidence storage _evidence = cases[_caseID]._evidence[evidenceLength];\n        _evidence.body = _body;\n        _evidence.author = msg.sender;\n        newEvidence(_body, msg.sender, _caseID);\n        return evidenceLength;\n    }\n\n    /*\n    utils\n    */\n    function isContract(address addr) private view returns (bool) {\n        uint size;\n        assembly {\n            size := extcodesize(addr)\n        }\n        return size > 0;\n    }\n\n}\n",
  "sourcePath": "/home/nour/Documents/Lamarkaz/Dcourt/contracts/Arbitration/Arbitration.sol",
  "compiler": {
    "name": "solc",
    "version": "0.4.21+commit.dfe3193c.Emscripten.clang"
  },
  "schemaVersion": "2.0.0",
  "updatedAt": "2018-04-16T02:31:28.323Z"
}