{
  "contractName": "DCArbitration",
  "abi": [
    {
      "constant": true,
      "inputs": [
        {
          "name": "",
          "type": "address"
        }
      ],
      "name": "witnessRanks",
      "outputs": [
        {
          "name": "",
          "type": "uint256"
        }
      ],
      "payable": false,
      "stateMutability": "view",
      "type": "function"
    },
    {
      "constant": true,
      "inputs": [
        {
          "name": "",
          "type": "address"
        }
      ],
      "name": "delegates",
      "outputs": [
        {
          "name": "",
          "type": "uint256"
        }
      ],
      "payable": false,
      "stateMutability": "view",
      "type": "function"
    },
    {
      "constant": true,
      "inputs": [
        {
          "name": "",
          "type": "uint256"
        }
      ],
      "name": "witnesses",
      "outputs": [
        {
          "name": "addr",
          "type": "address"
        },
        {
          "name": "name",
          "type": "string"
        },
        {
          "name": "reportCount",
          "type": "uint256"
        }
      ],
      "payable": false,
      "stateMutability": "view",
      "type": "function"
    },
    {
      "constant": true,
      "inputs": [
        {
          "name": "",
          "type": "address"
        }
      ],
      "name": "voters",
      "outputs": [
        {
          "name": "",
          "type": "address"
        }
      ],
      "payable": false,
      "stateMutability": "view",
      "type": "function"
    },
    {
      "inputs": [
        {
          "name": "DCTAddress",
          "type": "address"
        },
        {
          "name": "_votingPeriod",
          "type": "uint256"
        },
        {
          "name": "_minTrialPeriod",
          "type": "uint256"
        },
        {
          "name": "_roundReward",
          "type": "uint256"
        },
        {
          "name": "_blocksPerRound",
          "type": "uint256"
        },
        {
          "name": "_roundsPerHalving",
          "type": "uint256"
        },
        {
          "name": "_collateral",
          "type": "uint256"
        },
        {
          "name": "_challengingPeriod",
          "type": "uint256"
        },
        {
          "name": "_maxWitnesses",
          "type": "uint8"
        }
      ],
      "payable": false,
      "stateMutability": "nonpayable",
      "type": "constructor"
    },
    {
      "anonymous": false,
      "inputs": [
        {
          "indexed": true,
          "name": "addr",
          "type": "address"
        },
        {
          "indexed": false,
          "name": "ToA",
          "type": "bytes32"
        },
        {
          "indexed": false,
          "name": "URL",
          "type": "string"
        }
      ],
      "name": "Registration",
      "type": "event"
    },
    {
      "anonymous": false,
      "inputs": [
        {
          "indexed": false,
          "name": "accuser",
          "type": "address"
        },
        {
          "indexed": false,
          "name": "defendant",
          "type": "address"
        },
        {
          "indexed": false,
          "name": "client",
          "type": "address"
        },
        {
          "indexed": false,
          "name": "block",
          "type": "uint256"
        },
        {
          "indexed": false,
          "name": "title",
          "type": "string"
        },
        {
          "indexed": false,
          "name": "statement",
          "type": "string"
        }
      ],
      "name": "newCase",
      "type": "event"
    },
    {
      "anonymous": false,
      "inputs": [
        {
          "indexed": false,
          "name": "body",
          "type": "string"
        },
        {
          "indexed": false,
          "name": "author",
          "type": "address"
        },
        {
          "indexed": false,
          "name": "caseID",
          "type": "uint256"
        }
      ],
      "name": "newEvidence",
      "type": "event"
    },
    {
      "anonymous": false,
      "inputs": [
        {
          "indexed": true,
          "name": "_accuser",
          "type": "address"
        },
        {
          "indexed": true,
          "name": "_defendant",
          "type": "address"
        },
        {
          "indexed": false,
          "name": "_statement",
          "type": "string"
        },
        {
          "indexed": false,
          "name": "_title",
          "type": "string"
        }
      ],
      "name": "Filed",
      "type": "event"
    },
    {
      "anonymous": false,
      "inputs": [
        {
          "indexed": true,
          "name": "voter",
          "type": "address"
        },
        {
          "indexed": true,
          "name": "delegate",
          "type": "address"
        },
        {
          "indexed": false,
          "name": "balance",
          "type": "uint256"
        }
      ],
      "name": "Delegation",
      "type": "event"
    },
    {
      "anonymous": false,
      "inputs": [
        {
          "indexed": true,
          "name": "_witness",
          "type": "address"
        },
        {
          "indexed": false,
          "name": "_name",
          "type": "string"
        },
        {
          "indexed": false,
          "name": "rank",
          "type": "uint256"
        }
      ],
      "name": "Stepdown",
      "type": "event"
    },
    {
      "anonymous": false,
      "inputs": [
        {
          "indexed": true,
          "name": "_witness",
          "type": "address"
        },
        {
          "indexed": false,
          "name": "_name",
          "type": "string"
        },
        {
          "indexed": false,
          "name": "rank",
          "type": "uint256"
        }
      ],
      "name": "NewWitness",
      "type": "event"
    },
    {
      "anonymous": false,
      "inputs": [
        {
          "indexed": false,
          "name": "_caseID",
          "type": "uint256"
        },
        {
          "indexed": false,
          "name": "reporter",
          "type": "address"
        }
      ],
      "name": "Reported",
      "type": "event"
    },
    {
      "anonymous": false,
      "inputs": [
        {
          "indexed": true,
          "name": "voter",
          "type": "address"
        },
        {
          "indexed": false,
          "name": "_caseID",
          "type": "uint256"
        }
      ],
      "name": "Voted",
      "type": "event"
    },
    {
      "anonymous": false,
      "inputs": [
        {
          "indexed": false,
          "name": "decided",
          "type": "bool"
        },
        {
          "indexed": false,
          "name": "round",
          "type": "uint256"
        },
        {
          "indexed": false,
          "name": "currentRound",
          "type": "uint256"
        },
        {
          "indexed": false,
          "name": "test",
          "type": "uint256"
        }
      ],
      "name": "rewardClaimed",
      "type": "event"
    },
    {
      "anonymous": false,
      "inputs": [
        {
          "indexed": false,
          "name": "loss",
          "type": "uint256"
        }
      ],
      "name": "loss",
      "type": "event"
    },
    {
      "constant": false,
      "inputs": [
        {
          "name": "_ToA",
          "type": "bytes32"
        },
        {
          "name": "_URL",
          "type": "string"
        }
      ],
      "name": "register",
      "outputs": [
        {
          "name": "registered",
          "type": "bool"
        }
      ],
      "payable": false,
      "stateMutability": "nonpayable",
      "type": "function"
    },
    {
      "constant": false,
      "inputs": [
        {
          "name": "_defendant",
          "type": "address"
        },
        {
          "name": "trialDuration",
          "type": "uint256"
        },
        {
          "name": "_statement",
          "type": "string"
        },
        {
          "name": "_title",
          "type": "string"
        }
      ],
      "name": "fileCase",
      "outputs": [
        {
          "name": "_caseID",
          "type": "uint256"
        }
      ],
      "payable": false,
      "stateMutability": "nonpayable",
      "type": "function"
    },
    {
      "constant": false,
      "inputs": [
        {
          "name": "_caseID",
          "type": "uint256"
        }
      ],
      "name": "unfreezeCollateral",
      "outputs": [],
      "payable": false,
      "stateMutability": "nonpayable",
      "type": "function"
    },
    {
      "constant": false,
      "inputs": [
        {
          "name": "_voter",
          "type": "address"
        },
        {
          "name": "_amount",
          "type": "uint256"
        }
      ],
      "name": "increaseVote",
      "outputs": [],
      "payable": false,
      "stateMutability": "nonpayable",
      "type": "function"
    },
    {
      "constant": false,
      "inputs": [
        {
          "name": "_voter",
          "type": "address"
        },
        {
          "name": "_amount",
          "type": "uint256"
        }
      ],
      "name": "decreaseVote",
      "outputs": [],
      "payable": false,
      "stateMutability": "nonpayable",
      "type": "function"
    },
    {
      "constant": true,
      "inputs": [
        {
          "name": "_delegate",
          "type": "address"
        }
      ],
      "name": "eligibleForWitness",
      "outputs": [
        {
          "name": "",
          "type": "bool"
        }
      ],
      "payable": false,
      "stateMutability": "view",
      "type": "function"
    },
    {
      "constant": false,
      "inputs": [],
      "name": "witnessStepdown",
      "outputs": [
        {
          "name": "",
          "type": "bool"
        }
      ],
      "payable": false,
      "stateMutability": "nonpayable",
      "type": "function"
    },
    {
      "constant": false,
      "inputs": [
        {
          "name": "_name",
          "type": "string"
        }
      ],
      "name": "becomeWitness",
      "outputs": [
        {
          "name": "",
          "type": "bool"
        }
      ],
      "payable": false,
      "stateMutability": "nonpayable",
      "type": "function"
    },
    {
      "constant": false,
      "inputs": [
        {
          "name": "_delegate",
          "type": "address"
        }
      ],
      "name": "signal",
      "outputs": [],
      "payable": false,
      "stateMutability": "nonpayable",
      "type": "function"
    },
    {
      "constant": true,
      "inputs": [
        {
          "name": "_delegate",
          "type": "address"
        }
      ],
      "name": "delegatePercentage",
      "outputs": [
        {
          "name": "",
          "type": "uint256"
        }
      ],
      "payable": false,
      "stateMutability": "view",
      "type": "function"
    },
    {
      "constant": true,
      "inputs": [
        {
          "name": "account",
          "type": "address"
        }
      ],
      "name": "getRanking",
      "outputs": [
        {
          "name": "",
          "type": "uint256"
        }
      ],
      "payable": false,
      "stateMutability": "view",
      "type": "function"
    },
    {
      "constant": false,
      "inputs": [
        {
          "name": "_caseID",
          "type": "uint256"
        }
      ],
      "name": "decideReport",
      "outputs": [],
      "payable": false,
      "stateMutability": "nonpayable",
      "type": "function"
    },
    {
      "constant": false,
      "inputs": [],
      "name": "claimWitnessReward",
      "outputs": [],
      "payable": false,
      "stateMutability": "nonpayable",
      "type": "function"
    },
    {
      "constant": false,
      "inputs": [
        {
          "name": "_caseID",
          "type": "uint256"
        }
      ],
      "name": "reportCase",
      "outputs": [
        {
          "name": "reported",
          "type": "bool"
        }
      ],
      "payable": false,
      "stateMutability": "nonpayable",
      "type": "function"
    },
    {
      "constant": false,
      "inputs": [],
      "name": "deposit",
      "outputs": [
        {
          "name": "done",
          "type": "bool"
        }
      ],
      "payable": false,
      "stateMutability": "nonpayable",
      "type": "function"
    },
    {
      "constant": false,
      "inputs": [],
      "name": "withdraw",
      "outputs": [
        {
          "name": "done",
          "type": "bool"
        }
      ],
      "payable": false,
      "stateMutability": "nonpayable",
      "type": "function"
    },
    {
      "constant": true,
      "inputs": [
        {
          "name": "_caseID",
          "type": "uint256"
        }
      ],
      "name": "getVoteWeight",
      "outputs": [
        {
          "name": "vote",
          "type": "uint256"
        }
      ],
      "payable": false,
      "stateMutability": "view",
      "type": "function"
    },
    {
      "constant": true,
      "inputs": [
        {
          "name": "nonce",
          "type": "string"
        },
        {
          "name": "decision",
          "type": "bool"
        }
      ],
      "name": "generateHash",
      "outputs": [
        {
          "name": "_hash",
          "type": "bytes32"
        }
      ],
      "payable": false,
      "stateMutability": "pure",
      "type": "function"
    },
    {
      "constant": false,
      "inputs": [
        {
          "name": "_caseID",
          "type": "uint256"
        },
        {
          "name": "hash",
          "type": "bytes32"
        },
        {
          "name": "_amount",
          "type": "uint256"
        }
      ],
      "name": "vote",
      "outputs": [
        {
          "name": "voted",
          "type": "bool"
        }
      ],
      "payable": false,
      "stateMutability": "nonpayable",
      "type": "function"
    },
    {
      "constant": true,
      "inputs": [
        {
          "name": "decision",
          "type": "bool"
        },
        {
          "name": "_caseID",
          "type": "uint256"
        }
      ],
      "name": "getV",
      "outputs": [
        {
          "name": "",
          "type": "uint256"
        }
      ],
      "payable": false,
      "stateMutability": "view",
      "type": "function"
    },
    {
      "constant": false,
      "inputs": [
        {
          "name": "decision",
          "type": "bool"
        },
        {
          "name": "nonce",
          "type": "string"
        },
        {
          "name": "_caseID",
          "type": "uint256"
        }
      ],
      "name": "unlock",
      "outputs": [
        {
          "name": "unlocked",
          "type": "bool"
        }
      ],
      "payable": false,
      "stateMutability": "nonpayable",
      "type": "function"
    },
    {
      "constant": false,
      "inputs": [
        {
          "name": "_caseID",
          "type": "uint256"
        }
      ],
      "name": "finalize",
      "outputs": [
        {
          "name": "finalized",
          "type": "bool"
        }
      ],
      "payable": false,
      "stateMutability": "nonpayable",
      "type": "function"
    },
    {
      "constant": false,
      "inputs": [],
      "name": "claimReward",
      "outputs": [
        {
          "name": "claimed",
          "type": "bool"
        }
      ],
      "payable": false,
      "stateMutability": "nonpayable",
      "type": "function"
    },
    {
      "constant": false,
      "inputs": [
        {
          "name": "_caseID",
          "type": "uint256"
        },
        {
          "name": "_body",
          "type": "string"
        }
      ],
      "name": "addEvidence",
      "outputs": [
        {
          "name": "added",
          "type": "bool"
        }
      ],
      "payable": false,
      "stateMutability": "nonpayable",
      "type": "function"
    },
    {
      "constant": false,
      "inputs": [
        {
          "name": "_addr",
          "type": "address"
        }
      ],
      "name": "burnAll",
      "outputs": [],
      "payable": false,
      "stateMutability": "nonpayable",
      "type": "function"
    },
    {
      "constant": false,
      "inputs": [
        {
          "name": "_addr",
          "type": "address"
        },
        {
          "name": "qty",
          "type": "uint256"
        }
      ],
      "name": "burn",
      "outputs": [],
      "payable": false,
      "stateMutability": "nonpayable",
      "type": "function"
    }
  ],
  "bytecode": "0x6060604052341561000f57600080fd5b60405161012080613c0683398101604052808051919060200180519190602001805191906020018051919060200180519190602001805191906020018051919060200180519190602001805160008054600160a060020a03909c16600160a060020a0319909c169b909b17909a555050600696909655600894909455600392909255600b55600560078190555543600c55600455600955600d805460ff9092166101000261ff0019909216919091179055613b37806100cf6000396000f3006060604052600436106101665763ffffffff60e060020a60003504166304b6b281811461016b57806305261aea1461018f578063062f033e146101b957806308abfa95146101cf5780631c3665eb1461020057806320040899146102565780632f25b707146102785780633ccfd60b1461028e5780634c079dac146102a1578063552b836f146102f657806355f28c0c14610315578063587cde1e1461036f5780635a3b4d531461038e57806362e7837a146103aa578063670a8cb7146103c05780636b427cc1146104655780637e9d2ac11461048457806380f80d96146104a35780639dc29fac146104be578063a05046f6146104e0578063a3ec138d146104f3578063a614f2611461052e578063a7cd1dd91461054d578063b88a802f1461059e578063cf2d31fb146105b1578063d0e30db014610607578063e2aa1ef31461061a578063f4e0403614610639578063f63ce5c11461064f578063feab9213146106f6575b600080fd5b341561017657600080fd5b61018d600160a060020a0360043516602435610709565b005b341561019a57600080fd5b6101a5600435610816565b604051901515815260200160405180910390f35b34156101c457600080fd5b6101a5600435610abb565b34156101da57600080fd5b6101ee600160a060020a0360043516610bec565b60405190815260200160405180910390f35b341561020b57600080fd5b6101a5600480359060446024803590810190830135806020601f82018190048102016040519081016040528181529291906020840183838082843750949650610bfe95505050505050565b341561026157600080fd5b61018d600160a060020a0360043516602435610da4565b341561028357600080fd5b61018d600435610e82565b341561029957600080fd5b6101a5610f84565b34156102ac57600080fd5b6101ee60046024813581810190830135806020601f820181900481020160405190810160405281815292919060208401838380828437509496505050509135151591506110949050565b341561030157600080fd5b61018d600160a060020a0360043516611141565b341561032057600080fd5b6101a56004803515159060446024803590810190830135806020601f82018190048102016040519081016040528181529291906020840183838082843750949650509335935061144092505050565b341561037a57600080fd5b6101ee600160a060020a0360043516611780565b341561039957600080fd5b6101a5600435602435604435611792565b34156103b557600080fd5b6101ee600435611a60565b34156103cb57600080fd5b6103d6600435611a78565b604051600160a060020a03841681526040810182905260606020820181815290820184818151815260200191508051906020019080838360005b83811015610428578082015183820152602001610410565b50505050905090810190601f1680156104555780820380516001836020036101000a031916815260200191505b5094505050505060405180910390f35b341561047057600080fd5b6101a5600160a060020a0360043516611b4d565b341561048f57600080fd5b61018d600160a060020a0360043516611b88565b34156104ae57600080fd5b6101ee6004351515602435611bd8565b34156104c957600080fd5b61018d600160a060020a0360043516602435611c12565b34156104eb57600080fd5b61018d611c83565b34156104fe57600080fd5b610512600160a060020a0360043516611f63565b604051600160a060020a03909116815260200160405180910390f35b341561053957600080fd5b6101ee600160a060020a0360043516611f7e565b341561055857600080fd5b6101a560046024813581810190830135806020601f8201819004810201604051908101604052818152929190602084018383808284375094965061208d95505050505050565b34156105a957600080fd5b6101a56123f5565b34156105bc57600080fd5b6101a5600480359060446024803590810190830135806020601f82018190048102016040519081016040528181529291906020840183838082843750949650612c8c95505050505050565b341561061257600080fd5b6101a5612e05565b341561062557600080fd5b6101ee600160a060020a0360043516612fa5565b341561064457600080fd5b61018d600435612fc0565b341561065a57600080fd5b6101ee60048035600160a060020a03169060248035919060649060443590810190830135806020601f8201819004810201604051908101604052818152929190602084018383808284378201915050505050509190803590602001908201803590602001908080601f01602080910402602001604051908101604052818152929190602084018383808284375094965061318f95505050505050565b341561070157600080fd5b6101a561341c565b600160a060020a038083166000908152601060209081526040808320549093168252600f90522054610741908263ffffffff61382616565b600160a060020a0380841660008181526010602081815260408084205486168452600f8252808420969096553380861684529190528482205491549184169492937f96eafeca8c3c21ab2fa4a636b93ba20c9e22e3d222d92c6530fedc29a53671ee939216916370a0823191905160e060020a63ffffffff8416028152600160a060020a039091166004820152602401602060405180830381600087803b15156107ea57600080fd5b5af115156107f757600080fd5b5050506040518051905060405190815260200160405180910390a35050565b6000805481908190600160a060020a03308116911663893d20e86040518163ffffffff1660e060020a028152600401602060405180830381600087803b151561085e57600080fd5b5af1151561086b57600080fd5b50505060405180519050600160a060020a031614151561088a57600080fd5b6007546006546000868152601760205260409020600b81015460039091015401010143116108b757600080fd5b6000848152601760205260409020600d015460ff16156108d657600080fd5b50506000828152601760205260409081902060098101546008820154600290920154911191600160a060020a0390911690819063b18d8bcb90869085905160e060020a63ffffffff8516028152600481019290925215156024820152604401600060405180830381600087803b151561094e57600080fd5b5af1151561095b57600080fd5b5050506000848152601760205260408120600d81018054600160ff199091161762ff00001916620100008615150217905560070154600b54600c546109d89360199290916109bb91906109af90439061383c565b9063ffffffff61384e16565b81526020810191909152604001600020549063ffffffff61382616565b601960006109f7600b546109af600c544361383c90919063ffffffff16565b815260200190815260200160002060000181905550610a50600160196000610a30600b546109af600c544361383c90919063ffffffff16565b81526020019081526020016000206001015461382690919063ffffffff16565b60196000610a6f600b546109af600c544361383c90919063ffffffff16565b815260200190815260200160002060010181905550610a9f600b546109af600c544361383c90919063ffffffff16565b600094855260176020526040909420600a019390935592915050565b6000818152601360205260408120600201548190600160a060020a031615610ae257600080fd5b5060008281526013602090815260408083208054600160a060020a03338116600160a060020a03199283161783556001808401899055601790955292852054600283018054909216931692909217909155600b54600c549193610b589392601992610a30916109af90439063ffffffff61383c16565b60196000610b77600b546109af600c544361383c90919063ffffffff16565b81526020810191909152604090810160002060020191909155600182015482547f822c40ed11c428cd3221eab3dd1b9778ca8b59c67337a9237a2a90a791b4e6fb92600160a060020a039091169051918252600160a060020a031660208201526040908101905180910390a150600192915050565b60156020526000908152604090205481565b600080548190600160a060020a03308116911663893d20e86040518163ffffffff1660e060020a028152600401602060405180830381600087803b1515610c4457600080fd5b5af11515610c5157600080fd5b50505060405180519050600160a060020a0316141515610c7057600080fd5b600084815260176020526040902060010154849033600160a060020a0390811691161480610cb8575060008181526017602052604090205433600160a060020a039081169116145b1515610cc357600080fd5b600085815260176020526040902060020154600160a060020a03161515610ce957600080fd5b6000858152601760205260409020600b810154600390910154014310610d0e57600080fd5b6000858152601760205260409020600601805460010190610d2f908261388e565b5060008581526017602052604090206006018054fe5b83811015610d5d578082015183820152602001610d45565b50505050905090810190601f168015610d8a5780820380516001836020036101000a031916815260200191505b5094505050505060405180910390a1506001949350505050565b600160a060020a038083166000908152601060209081526040808320549093168252600f90522054610ddc908263ffffffff61383c16565b600160a060020a038084166000818152601060208181526040808420805487168552600f835281852097909755848452919052935490549083169391927f96eafeca8c3c21ab2fa4a636b93ba20c9e22e3d222d92c6530fedc29a53671ee929116906370a082319033905160e060020a63ffffffff8416028152600160a060020a039091166004820152602401602060405180830381600087803b15156107ea57600080fd5b60095460075460065460008481526017602081815260408084206002810154600160a060020a03168552601683529084206001015493889052919052600301540101010143118015610eeb57506000818152601760205260409020600d0154610100900460ff16155b1515610ef657600080fd5b60008054828252601760205260409091208054600c90910154600160a060020a03928316926340c10f199216906002900460405160e060020a63ffffffff8516028152600160a060020a0390921660048301526024820152604401602060405180830381600087803b1515610f6a57600080fd5b5af11515610f7757600080fd5b5050506040518051505050565b60008054600160a060020a03308116911663893d20e86040518163ffffffff1660e060020a028152600401602060405180830381600087803b1515610fc857600080fd5b5af11515610fd557600080fd5b50505060405180519050600160a060020a0316141515610ff457600080fd5b600160a060020a0333166000908152601860205260409020600301541561101a57600080fd5b60008054600160a060020a03169063bf120ae590339060405160e060020a63ffffffff8516028152600160a060020a03909216600483015215156024820152604401602060405180830381600087803b151561107557600080fd5b5af1151561108257600080fd5b50505060405180515060019150505b90565b600080600183151514156110aa575060016110ae565b5060005b80846040517f010000000000000000000000000000000000000000000000000000000000000060ff84160281526001810182805190602001908083835b6020831061110a5780518252601f1990920191602091820191016110eb565b6001836020036101000a038019825116818451161790925250505091909101935060409250505051809103902091505b5092915050565b60008054600160a060020a03166370a082313360405160e060020a63ffffffff8416028152600160a060020a039091166004820152602401602060405180830381600087803b151561119257600080fd5b5af1151561119f57600080fd5b505050604051805190501115156111b557600080fd5b600160a060020a03811615156111ca57600080fd5b600160a060020a03338116600090815260106020526040902054828216911614156111f457600080fd5b600160a060020a0333811660009081526010602052604090205416156112db576000546112b290600160a060020a03166370a082313360405160e060020a63ffffffff8416028152600160a060020a039091166004820152602401602060405180830381600087803b151561126857600080fd5b5af1151561127557600080fd5b5050506040518051600160a060020a033381166000908152601060209081526040808320549093168252600f90522054915063ffffffff61383c16565b600160a060020a033381166000908152601060209081526040808320549093168252600f905220555b60005461136a90600160a060020a03166370a082313360405160e060020a63ffffffff8416028152600160a060020a039091166004820152602401602060405180830381600087803b151561132f57600080fd5b5af1151561133c57600080fd5b5050506040518051600160a060020a0384166000908152600f6020526040902054915063ffffffff61382616565b600160a060020a038083166000818152600f60209081526040808320959095553380851680845260109092528583208054600160a060020a031916851790559154929490937f96eafeca8c3c21ab2fa4a636b93ba20c9e22e3d222d92c6530fedc29a53671ee9316916370a08231915160e060020a63ffffffff8416028152600160a060020a039091166004820152602401602060405180830381600087803b151561141557600080fd5b5af1151561142257600080fd5b5050506040518051905060405190815260200160405180910390a350565b600160a060020a0333166000908152601a602090815260408083208484529091528120600101548190819081901161147757600080fd5b6006546000858152601760205260409020600b810154600390910154010143108015906114c457506007546006546000868152601760205260409020600b81015460039091015401010143105b15156114cf57600080fd5b600160a060020a0333166000908152601a6020908152604080832087845290915290206005015460ff161561150357600080fd5b60018615151415611517576001915061151c565b600091505b81856040517f010000000000000000000000000000000000000000000000000000000000000060ff84160281526001810182805190602001908083835b602083106115785780518252601f199092019160209182019101611559565b6001836020036101000a038019825116818451161790925250505091909101935060409250505051908190039020600160a060020a0333166000908152601a6020908152604080832088845290915290205490915081146115d857600080fd5b600160a060020a03331660009081526018602052604090206005018054600181016116038382613939565b506000918252602090912001849055851561167157600160a060020a0333166000908152601a6020908152604080832087845282528083206001015460179092529091206008015461165a9163ffffffff61382616565b6000858152601760205260409020600801556116c6565b600160a060020a0333166000908152601a602090815260408083208784528252808320600101546017909252909120600901546116b39163ffffffff61382616565b6000858152601760205260409020600901555b600160a060020a0333166000908152601a60209081526040808320878452909152902060058101805460ff1916600117905560020185805161170c9291602001906138bf565b5033600160a060020a03166000818152601a6020908152604080832088845282528083206003908101805460ff19168c151517905593835260189091529020015461175890600161383c565b33600160a060020a031660009081526018602052604090206003015550600195945050505050565b600f6020526000908152604090205481565b60008054600160a060020a03308116911663893d20e86040518163ffffffff1660e060020a028152600401602060405180830381600087803b15156117d657600080fd5b5af115156117e357600080fd5b50505060405180519050600160a060020a031614151561180257600080fd5b6000848152601760205260409020600b81015460039091015401431080159061184757506006546000858152601760205260409020600b810154600390910154010143105b151561185257600080fd5b600160a060020a0333166000908152601a602090815260408083208784529091529020600101541561188357600080fd5b600160a060020a0333166000908152601860205260408120600201546118af908463ffffffff61383c16565b10156118ba57600080fd5b600160a060020a0333166000908152601860205260409020600201546118e6908363ffffffff61383c16565b33600160a060020a031660009081526018602090815260408083206002810194909455601a825280832060039094018054845293825280832060040188905583548352808320600101869055925482528282208690558682526017905220600701546119529083613826565b600085815260176020526040902060078101919091556004015460019060ff16600381111561197d57fe5b1461199f576000848152601760205260409020600401805460ff191660011790555b600160a060020a0333166000908152601860205260409020600401546119cc90600163ffffffff61382616565b600160a060020a0333166000908152601860205260409020600481019190915560030154611a0190600163ffffffff61382616565b600160a060020a0333166000818152601860205260409081902060030192909255907f4d99b957a2bc29a30ebd96a7be8e68fe50a3c701db28a91436490b7d53870ca49086905190815260200160405180910390a25060019392505050565b6000818152601760205260409020600701545b919050565b60116020528060005260406000206000915090508060000160009054906101000a9004600160a060020a031690806001018054600181600116156101000203166002900480601f016020809104026020016040519081016040528092919081815260200182805460018160011615610100020316600290048015611b3d5780601f10611b1257610100808354040283529160200191611b3d565b820191906000526020600020905b815481529060010190602001808311611b2057829003601f168201915b5050505050908060020154905083565b600d5460ff16600090815260116020908152604080832054600160a060020a039081168452600f909252808320549390911682529020541190565b600054600160a060020a0316637e9d2ac18260405160e060020a63ffffffff8416028152600160a060020a039091166004820152602401602060405180830381600087803b1515610f6a57600080fd5b60008215611bf85750600081815260176020526040902060080154611c0c565b506000818152601760205260409020600901545b92915050565b600054600160a060020a0316639dc29fac838360405160e060020a63ffffffff8516028152600160a060020a0390921660048301526024820152604401602060405180830381600087803b1515611c6857600080fd5b5af11515611c7557600080fd5b505050604051805150505050565b6000806000806000806000806000806015600033600160a060020a0316600160a060020a0316815260200190815260200160002054118015611cde5750600160a060020a033316600090815260156020526040902054601690105b1515611ce957600080fd5b600160a060020a03331660009081526015602090815260408083205483526011909152902060020154600b54600c54919a50611d30916109af90439063ffffffff61383c16565b6001019750600095505b88861015611e8e57600554600160a060020a0333166000908152601560209081526040808320548352601190915281206003018054612710975060179291908a908110611d8357fe5b9060005260206000209001548152602001908152602001600020600a0154811515611daa57fe5b0492506005600354811515611dbb57fe5b048360020a612710811515611dcc57fe5b0402945061271085600e54600160a060020a0333166000908152601560209081526040808320548352601190915281206003018054949093049850908801945060149290919089908110611e1c57fe5b9060005260206000209001548152602001908152602001600020546305f5e100811515611e4557fe5b0490506305f5e1006019600060018b0381526020019081526020016000206002015483811515611e7157fe5b048202811515611e7d57fe5b049690960195600190950194611d3a565b600054600160a060020a03166340c10f19338960405160e060020a63ffffffff8516028152600160a060020a0390921660048301526024820152604401602060405180830381600087803b1515611ee457600080fd5b5af11515611ef157600080fd5b50505060405180515050600160a060020a033316600090815260156020908152604080832054835260119091528120611f2f9160039091019061395d565b505050600160a060020a03331660009081526015602090815260408083205483526011909152812060020155505050505050565b601060205260009081526040902054600160a060020a031681565b60008054600160a060020a03166318160ddd6040518163ffffffff1660e060020a028152600401602060405180830381600087803b1515611fbe57600080fd5b5af11515611fcb57600080fd5b5050506040518051600160a060020a0384166000908152600f602052604090205414159050611ffc57506064611a73565b600054611c0c9060649061208190600160a060020a03166318160ddd6040518163ffffffff1660e060020a028152600401602060405180830381600087803b151561204657600080fd5b5af1151561205357600080fd5b5050506040518051600160a060020a0387166000908152600f6020526040902054915063ffffffff61384e16565b9063ffffffff61386316565b600160a060020a0333166000908152600f6020526040812054818080808080861180156120f35750600160a060020a03331660009081526015602081905260409091205411806120f35750600160a060020a033316600090815260156020526040902054155b15156120fe57600080fd5b600d5460ff16151561211357600194506122ac565b600d5460ff1693505b60008411156122ac57600084815260116020908152604080832054600160a060020a0316808452600f90925290912054909350915081158015612160575083600114155b1561216a576122a0565b85821115612177576122ac565b600d54610100900460ff168414156121ec57600160a060020a0383166000908152601560209081526040808320839055868352601190915281208054600160a060020a0319168155906121cd600183018261397e565b60028201600090556003820160006121e5919061395d565b505061229c565b600084815260116020526040808220600180880184529190922082548154600160a060020a031916600160a060020a039091161781558183018054919261224c9284820192916002600019918316156101000291909101909116046139c2565b5060028201548160020155600382018160030190805461226d929190613a37565b50505060018401600090815260116020908152604080832054600160a060020a03168352601590915290208490555b8394505b6000199093019261211c565b600085116122b957600080fd5b6000851180156122d05750600d54601560ff909116105b156122ec57600d805460ff8082166001011660ff199091161790555b50600160a060020a0333166000908152601560209081526040808320879055868352601190915290206001810188805161232a9291602001906138bf565b508054600160a060020a03191633600160a060020a031690811782557fa09a94bdfd74338ac5260e4c143725bc1465725aa5623a8e4e0e9f89cb1d794689876040518080602001838152602001828103825284818151815260200191508051906020019080838360005b838110156123ac578082015183820152602001612394565b50505050905090810190601f1680156123d95780820380516001836020036101000a031916815260200191505b50935050505060405180910390a2506001979650505050505050565b60008060008060008060008060008030600160a060020a03166000809054906101000a9004600160a060020a0316600160a060020a031663893d20e86040518163ffffffff1660e060020a028152600401602060405180830381600087803b151561245f57600080fd5b5af1151561246c57600080fd5b50505060405180519050600160a060020a031614151561248b57600080fd5b600160a060020a033316600090815260186020526040812060040154116124b157600080fd5b600160a060020a033316600090815260186020526040902060040154600b54600c54919a506124eb916109af90439063ffffffff61383c16565b6001019750600095505b888610156129f057600160a060020a0333166000908152601860205260408120600501805460179291908990811061252957fe5b600091825260208083209091015483528201929092526040019020600d015460ff1615806125ac5750600160a060020a0333166000908152601860205260408120600501805460179291908990811061257e57fe5b600091825260208083209091015483528201929092526040019020600d015460ff6101009091041615156001145b806126005750600160a060020a033316600090815260186020526040812060050180548a9260179290918a9081106125e057fe5b9060005260206000209001548152602001908152602001600020600a0154145b1561260a576129e5565b6127109350600554601760006018600033600160a060020a0316600160a060020a031681526020019081526020016000206005018981548110151561264b57fe5b9060005260206000209001548152602001908152602001600020600a015481151561267257fe5b049250600560035460040281151561268657fe5b048360020a61271081151561269757fe5b0402945061271085049450601760006018600033600160a060020a0316600160a060020a03168152602001908152602001600020600501888154811015156126db57fe5b60009182526020808320909101548352828101939093526040918201812060070154600160a060020a0333168252601a8452828220601890945291812060050180549293928a90811061272a57fe5b9060005260206000209001548152602001908152602001600020600101546305f5e1000281151561275757fe5b600160a060020a0333166000908152601a60209081526040808320601890925282206005018054949093049550929091908990811061279257fe5b60009182526020808320909101548352828101939093526040918201812060030154600160a060020a03331682526018909352908120600501805460ff90931615159260179291908a9081106127e457fe5b9060005260206000209001548152602001908152602001600020600d0160029054906101000a900460ff1615151415612900576000198801600090815260196020908152604080832060010154600160a060020a0333168452601890925282206005018054600a9389936298968093909260179291908d90811061286457fe5b60009182526020808320909101548352828101939093526040918201812060070154600160a060020a0333168252601a8452828220601890945291812060050180549293928e9081106128b357fe5b9060005260206000209001548152602001908152602001600020600101546305f5e100028115156128e057fe5b04028115156128eb57fe5b04028115156128f657fe5b04870196506129e5565b6000198801600090815260196020908152604080832060010154600160a060020a0333168452601890925282206005018054600a9389936298968093909260179291908d90811061294d57fe5b60009182526020808320909101548352828101939093526040918201812060070154600160a060020a0333168252601a8452828220601890945291812060050180549293928e90811061299c57fe5b9060005260206000209001548152602001908152602001600020600101546305f5e100028115156129c957fe5b04028115156129d457fe5b04028115156129df57fe5b04870396505b6001909501946124f5565b6000871315612a6c57600054600160a060020a03166340c10f19338960405160e060020a63ffffffff8516028152600160a060020a0390921660048301526024820152604401602060405180830381600087803b1515612a4f57600080fd5b5af11515612a5c57600080fd5b5050506040518051905050612c59565b6000871215612c5957600054600160a060020a03166370a082313360405160e060020a63ffffffff8416028152600160a060020a039091166004820152602401602060405180830381600087803b1515612ac557600080fd5b5af11515612ad257600080fd5b50505060405180519050871015612b6b57600054600160a060020a0316639dc29fac3360028a0560405160e060020a63ffffffff8516028152600160a060020a0390921660048301526024820152604401602060405180830381600087803b1515612b3c57600080fd5b5af11515612b4957600080fd5b50505060405180515050600e54612b639060028905613826565b600e55612c59565b600054600160a060020a03166370a082313360405160e060020a63ffffffff8416028152600160a060020a039091166004820152602401602060405180830381600087803b1515612bbb57600080fd5b5af11515612bc857600080fd5b5050506040518051600054909250600160a060020a03169050639dc29fac336002840460405160e060020a63ffffffff8516028152600160a060020a0390921660048301526024820152604401602060405180830381600087803b1515612c2e57600080fd5b5af11515612c3b57600080fd5b50505060405180515050600e54612c559060028304613826565b600e555b600160a060020a0333166000908152601860205260408120612c809160059091019061395d565b50505050505050505090565b60008054600160a060020a03308116911663893d20e86040518163ffffffff1660e060020a028152600401602060405180830381600087803b1515612cd057600080fd5b5af11515612cdd57600080fd5b50505060405180519050600160a060020a0316141515612cfc57600080fd5b600160a060020a03331660009081526016602052604090206001015415612d2257600080fd5b600160a060020a0333166000908152601660205260409020838155600201828051612d519291602001906138bf565b5033600160a060020a03167f4e22640c5282f5f0b0c225eb3bd69e11f1ca93e25907291f1f1bf3c99413a408848460405182815260406020820181815290820183818151815260200191508051906020019080838360005b83811015612dc1578082015183820152602001612da9565b50505050905090810190601f168015612dee5780820380516001836020036101000a031916815260200191505b50935050505060405180910390a250600192915050565b600080548190600160a060020a03308116911663893d20e86040518163ffffffff1660e060020a028152600401602060405180830381600087803b1515612e4b57600080fd5b5af11515612e5857600080fd5b50505060405180519050600160a060020a0316141515612e7757600080fd5b600054600160a060020a03166370a082313360405160e060020a63ffffffff8416028152600160a060020a039091166004820152602401602060405180830381600087803b1515612ec757600080fd5b5af11515612ed457600080fd5b505050604051805191505060008111612eec57600080fd5b600160a060020a03331660009081526018602052604090205415612f0f57600080fd5b33600160a060020a0381811660009081526018602052604080822085815560020185905590549091169163bf120ae5916001905160e060020a63ffffffff8516028152600160a060020a03909216600483015215156024820152604401602060405180830381600087803b1515612f8557600080fd5b5af11515612f9257600080fd5b50505060405180515060019250505b5090565b600160a060020a031660009081526015602052604090205490565b6007546006546000838152601760209081526040808320600b810154600390910154600160a060020a0333168552601590935290832054910190920190920191901180156130275750600160a060020a033316600090815260156020526040902054601690105b151561303257600080fd5b80431180156130445750600954810143105b151561304f57600080fd5b600160a060020a0333166000908152601560209081526040808320805484526012835281842060118085528386206002908101548752918552838620805460ff1916600190811790915592548652909352922001546130ad91613826565b600160a060020a033316600090815260156020908152604080832054835260118252808320600201939093558482526014905220546130f390600163ffffffff61382616565b600083815260146020908152604080832093909355600160a060020a03331682526015815282822054825260119052206003018054600181016131368382613939565b506000918252602090912001829055600d5460029060ff160460ff166014600084815260200190815260200160002054111561318b576000828152601760205260409020600d01805461ff0019166101001790555b5050565b60008060085485101515156131a357600080fd5b5060028054600190810180835560009081526017602052604090209182018054600160a060020a03338116600160a060020a0319928316179092558354328316908216178455918301805491891691909216179055436003820155600b81018590556005810183805161321a9291602001906138bf565b506004818101805460ff1916905554600c8201557f67c5c7a990f9f7edc7e62c6f4a8292e29ef238e69af4a0a4b7ff90307f6b716b328733438789604051600160a060020a0380881682528681166020830152851660408201526060810184905260c0608082018181529060a0830190830185818151815260200191508051906020019080838360005b838110156132bc5780820151838201526020016132a4565b50505050905090810190601f1680156132e95780820380516001836020036101000a031916815260200191505b50838103825284818151815260200191508051906020019080838360005b8381101561331f578082015183820152602001613307565b50505050905090810190601f16801561334c5780820380516001836020036101000a031916815260200191505b509850505050505050505060405180910390a1600454600160a060020a0332166000908152601b602052604090205461338a9163ffffffff61382616565b600160a060020a03328181166000908152601b60205260408082209490945554600454921692639dc29fac92905160e060020a63ffffffff8516028152600160a060020a0390921660048301526024820152604401602060405180830381600087803b15156133f857600080fd5b5af1151561340557600080fd5b505050604051805150506002549695505050505050565b600080613427613a76565b600160a060020a03331660009081526015602052604081205481901161344c57600080fd5b600160a060020a033316600090815260156020908152604080832054808452601190925291829020909450906080905190810160405290816000820160009054906101000a9004600160a060020a0316600160a060020a0316600160a060020a03168152602001600182018054600181600116156101000203166002900480601f01602080910402602001604051908101604052809291908181526020018280546001816001161561010002031660029004801561354b5780601f106135205761010080835404028352916020019161354b565b820191906000526020600020905b81548152906001019060200180831161352e57829003601f168201915b5050505050815260200160028201548152602001600382018054806020026020016040519081016040528092919081815260200182805480156135ad57602002820191906000526020600020905b815481526020019060010190808311613599575b5050509190925250505060008481526011602052604081208054600160a060020a03191681559193506135e3600183018261397e565b60028201600090556003820160006135fb919061395d565b5050600160a060020a033316600090815260156020526040812055600d5460ff1683141561362c5760019350613820565b50600182015b600d5460ff908116600101168110156136f95760008181526011602081815260408084208054600160a060020a039081168652601580855283872054600019808a01808a52888852868a20805486168b5293885295892091909155959094529190945283548254600160a060020a03191691161781556001808401805492936136cd93858401936002908216156101000290920116046139c2565b506002820154816002015560038201816003019080546136ee929190613a37565b505050600101613632565b600d805460ff908116600090815260116020818152604080842054600160a060020a0316845260158252808420849055945490931682529091529081208054600160a060020a031916815590613752600183018261397e565b600282016000905560038201600061376a919061395d565b505033600160a060020a03167f2c6fcfac54486ccee7284fe7e39271f77d8dc94c4ee8488cc5f9b2d3ad9a9b248360200151856040518080602001838152602001828103825284818151815260200191508051906020019080838360005b838110156137e05780820151838201526020016137c8565b50505050905090810190601f16801561380d5780820380516001836020036101000a031916815260200191505b50935050505060405180910390a2600193505b50505090565b60008282018381101561383557fe5b9392505050565b60008282111561384857fe5b50900390565b6000818381151561385b57fe5b049392505050565b600080831515613876576000915061113a565b5082820282848281151561388657fe5b041461383557fe5b8154818355818115116138ba576002028160020283600052602060002091820191016138ba9190613aaa565b505050565b828054600181600116156101000203166002900490600052602060002090601f016020900481019282601f1061390057805160ff191683800117855561392d565b8280016001018555821561392d579182015b8281111561392d578251825591602001919060010190613912565b50612fa1929150613adf565b8154818355818115116138ba576000838152602090206138ba918101908301613adf565b508054600082559060005260206000209081019061397b9190613adf565b50565b50805460018160011615610100020316600290046000825580601f106139a4575061397b565b601f01602090049060005260206000209081019061397b9190613adf565b828054600181600116156101000203166002900490600052602060002090601f016020900481019282601f106139fb578054855561392d565b8280016001018555821561392d57600052602060002091601f016020900482015b8281111561392d578254825591600101919060010190613a1c565b82805482825590600052602060002090810192821561392d5760005260206000209182018281111561392d578254825591600101919060010190613a1c565b60806040519081016040526000815260208101613a91613af9565b815260200160008152602001613aa5613af9565b905290565b61109191905b80821115612fa1576000613ac4828261397e565b50600181018054600160a060020a0319169055600201613ab0565b61109191905b80821115612fa15760008155600101613ae5565b602060405190810160405260008152905600a165627a7a723058206636051874014c8a87f7da72f2e4a0be14bd3e926e5135f9fd713aff41aec67f0029",
  "source": "pragma solidity ^0.4.18;\n\nimport \"./TokenInterface.sol\";\nimport \"./ClientInterface.sol\";\nimport \"./SafeMath.sol\";\n\n/**\n@title DCourt Arbitration contract\n@author Ihab McShea Nour Haridy\n*/\ncontract DCArbitration {\n    using SafeMath for uint256;\n    DCTInterface DCToken;\n\n    /*\n        Variables\n    */\n\n    uint256 round;\n    uint256 caseCounter;\n    uint256 RoundReward;\n    uint256 collateral;\n    uint256 roundsPerHalving;\n    uint256 votingPeriod;\n    uint256 unlockingPeriod;\n    uint256 minTrialPeriod;\n    uint256 challengingPeriod;\n    uint256 roundWeight;\n    uint256 blocksPerRound;\n    uint256 genesisBlock;\n    uint8 witnessCount;\n    uint8 maxWitnesses;\n    uint256 courtCouncilPool;\n    struct Witness {\n       address addr;\n       string name;\n       uint256 reportCount;\n       uint256[] reports;\n    }\n    struct spamReport{\n      address submitter;\n      uint256 caseID;\n      address accuser;\n      bool verdict;\n    }\n    mapping(address => uint256) public delegates;\n    mapping(address => address) public voters;\n    mapping (uint => Witness) public witnesses;\n    mapping(uint256 => mapping(uint256 => bool)) witnessVote;\n    mapping(uint256 => spamReport) reportedCases;\n    mapping(uint => uint) reportVotes;\n    mapping (address => uint) public witnessRanks;\n    /*\n        structs\n    */\n    struct Client{\n        bytes32 ToA;\n        uint256 trialDuration;\n        string URL;\n    }\n    struct Case{\n        address accuser;\n        address defendant;\n        address client;\n        uint256 block;\n        phase _phase;\n        string title;\n        evidence[] _evidence;\n        uint256 voteWeight;\n        uint256 ayes;\n        uint256 nayes;\n        uint256 round;\n        uint256 trialDuration;\n        uint256 collateral;\n        bool decided;\n        bool spam;\n        bool verdict;\n    }\n    struct evidence{\n        string body;\n        address author;\n    }\n\n    struct juror{\n        uint256 deposit;\n        uint256 round;\n        uint256 remaining;\n        uint256 activeCases;\n        uint256 caseCount;\n        uint256[] cases;\n    }\n    struct Vote{\n        bytes32 _hash;\n        uint256 amount;\n        string nonce;\n        bool decision;\n        uint256 caseID;\n        bool unlocked;\n        bool claimed; //Rewarded or penalized.\n    }\n\n    struct Round{\n        uint256 roundWeight;\n        uint256 caseCount;\n        uint256 reportCount;\n    }\n    /*\n        modifiers\n\n    */\n\n    modifier onlyWhenOwner(){\n         require(DCToken.getOwner() == address(this));\n        _;\n    }\n\n    modifier onlyContract(){\n        require(isContract(msg.sender));\n        _;\n    }\n    modifier onlyCaseParty(uint256 _caseID){\n        require(cases[_caseID].defendant == msg.sender || cases[_caseID].accuser == msg.sender);\n        _;\n    }\n    modifier onlyJuror(){\n//           require(jurors[msg.sender].round.add(2) <= round);\n        _;\n    }\n\n    modifier onlyWitness {\n      require(witnessRanks[msg.sender] > 0);\n      _;\n    }\n\n    /*\n        Enumerators\n    */\n    enum phase {\n        TRIAL,\n        VOTING,\n        UNLOCKING,\n        FINAL\n    }\n\n\n    /*\n        mappings\n    */\n    mapping (address => Client) clients;\n    mapping(uint256 => Case) cases;\n    mapping (address => juror) jurors;\n    mapping (uint256 => Round) rounds;\n    mapping (address => mapping(uint256 => Vote)) votes;\n    mapping (address => uint256) frozenBalance;\n    /*\n        events\n    */\n\n    event Registration(address indexed addr, bytes32 ToA, string URL);\n    event newCase(address accuser,\n        address defendant,\n        address client,\n        uint256 block,\n        string title,\n        string statement\n        );\n    event newEvidence(string body, address author, uint256 caseID);\n\n    /*\n        Functions\n    */\n\n    function DCArbitration(address DCTAddress, uint256 _votingPeriod, uint256 _minTrialPeriod, uint256 _roundReward,  uint256 _blocksPerRound, uint256 _roundsPerHalving, uint256 _collateral, uint256 _challengingPeriod, uint8 _maxWitnesses) public{\n        DCToken = DCTInterface(DCTAddress);\n        votingPeriod = _votingPeriod;\n        minTrialPeriod = _minTrialPeriod;\n        RoundReward = _roundReward;\n        blocksPerRound = _blocksPerRound;\n        unlockingPeriod = 5;\n        roundsPerHalving = _roundsPerHalving;\n        genesisBlock = block.number;\n        collateral = _collateral;\n        challengingPeriod = _challengingPeriod;\n        maxWitnesses = _maxWitnesses;\n    }\n    /**\n    @notice Register a decentralized application on the Dcourt system, called by the smart contract of the decentralized application.\n    @dev You must call this function from your dApp smart contract in order to be able to build it on top of Dcourt.\n    @param _ToA the hash of terms of agreement\n    @param _URL the address of the dApp.\n    @return {\n      \"registered\": \"if registered\"\n    }\n    */\n    function register(bytes32 _ToA, string _URL) public   onlyWhenOwner returns(bool registered){\n        require(clients[msg.sender].trialDuration == 0);\n        clients[msg.sender].ToA = _ToA;\n        clients[msg.sender].URL = _URL;\n        emit Registration(msg.sender, _ToA, _URL);\n        return true;\n    }\n    event Filed(address indexed _accuser, address indexed _defendant, string _statement, string _title);\n    /**\n    @notice File a case from a dApp to the Dcourt system\n    @dev You should implement a \"fileCase\" function in your smart contract which can be invoked by the accuser\n    @param _defendant the address of the defendant\n    @param _statement the opening statement of the case, also considered the first body of evidence\n    @param _title the title of the case. should be hard-coded in your contract.\n    @param trialDuration the duration in which case parties can submit evidence, should be at least as long as the global duration\n    @return {\n      \"_caseID\": \"the ID of the filed case\"\n    }\n    */\n    function fileCase(address _defendant, uint256 trialDuration, string _statement, string _title) public  returns(uint256 _caseID){\n        require(trialDuration >= minTrialPeriod);\n        caseCounter++;\n        Case storage filedCase = cases[caseCounter];\n        filedCase.client = msg.sender;\n        filedCase.accuser = tx.origin;\n        filedCase.defendant = _defendant;\n        filedCase.block = block.number;\n        filedCase.trialDuration = trialDuration;\n        //  evidence storage _evidence = filedCase._evidence[0];\n        //  _evidence.body = _statement;\n        //  _evidence.author = tx.origin;\n        filedCase.title = _title;\n        filedCase._phase = phase.TRIAL;\n        filedCase.collateral = collateral;\n        emit newCase(tx.origin,\n        _defendant,\n        msg.sender,\n        block.number,\n        _title,\n        _statement\n        );\n        frozenBalance[tx.origin] = frozenBalance[tx.origin].add(collateral);\n        DCToken.burn(tx.origin, collateral);\n        return caseCounter;\n\n    }\n    function unfreezeCollateral(uint256 _caseID){\n     require(block.number > cases[_caseID].block + clients[cases[_caseID].client].trialDuration + votingPeriod + unlockingPeriod + challengingPeriod && cases[_caseID].spam == false);\n      DCToken.mint(cases[_caseID].accuser, (cases[_caseID].collateral/2));\n    }\n    event Delegation(address indexed voter, address indexed delegate, uint256 balance);\n    function increaseVote(address _voter, uint256 _amount){\n      delegates[voters[_voter]] = delegates[voters[_voter]].add(_amount);\n      emit Delegation(_voter, voters[msg.sender], DCToken.balanceOf(msg.sender));\n    }\n    function decreaseVote(address _voter, uint256 _amount){\n      delegates[voters[_voter]] = delegates[voters[_voter]].sub(_amount);\n      emit Delegation(_voter, voters[_voter], DCToken.balanceOf(msg.sender));\n    }\n    function eligibleForWitness(address _delegate) public view returns (bool) {\n       return delegates[_delegate] > delegates[witnesses[witnessCount].addr];\n    }\n    event Stepdown(address indexed _witness, string _name, uint rank);\n    event NewWitness(address indexed _witness, string _name, uint rank);\n    function witnessStepdown() public onlyWitness  returns (bool) {\n     uint rank = witnessRanks[msg.sender];\n     Witness memory thisWitness = witnesses[rank];\n     delete witnesses[rank];\n     witnessRanks[msg.sender] = 0;\n     if(rank == witnessCount) return true; // If this the last rank, skipping the next loop\n     for (uint i = rank+1; i < witnessCount+1; i++){ // Move up each witness of a lower rank\n         witnessRanks[witnesses[i-1].addr] = witnessRanks[witnesses[i].addr];\n         witnesses[i-1] = witnesses[i];\n     }\n\n     witnessRanks[witnesses[witnessCount].addr] = 0; // Last witness seat must become available after witness stepdown\n     delete witnesses[witnessCount];\n     emit Stepdown(msg.sender, thisWitness.name, rank);\n     return true;\n     }\n     function becomeWitness(string _name) public returns (bool) {\n      uint256 weight = delegates[msg.sender];\n      require(weight > 0 && ( witnessRanks[msg.sender] > 21 || witnessRanks[msg.sender] ==0));\n      uint rank;\n      if(witnessCount == 0 ){\n        rank = 1;\n      }else{\n        for (uint i = witnessCount; i > 0 ; i--){ // iterate on the witnesses from the lowest to highest rank to save as much gas as possible. Loop is bounded by witnessCount\n            // if(witnesses[i].addr == msg.sender) break; // if message sender is already this witness, throw\n            address witnessAddr = witnesses[i].addr;\n           uint256 witnessWeight = delegates[witnessAddr];\n            if(witnessWeight == 0 && i != 1) continue; //if there is no delegate at this rank and this is not the highest rank then skip this iteration\n            if(witnessWeight > weight) break; // if this witness has a higher weight than message sender, break the loop\n          if(i == maxWitnesses){  // if this is the lowest witness rank, remove this delegate from witnesses\n               witnessRanks[witnessAddr] = 0;\n               delete witnesses[i];\n            }else{\n                witnesses[i+1] = witnesses[i]; // Move this witness down 1 rank\n                witnessRanks[witnesses[i+1].addr] = i;\n            }\n            rank = i;\n        }\n      }\n\n      require(rank > 0); // Require that message sender has a rank after the loop\n      if(rank > 0 && witnessCount < 21){\n        witnessCount +=1;\n      }\n      witnessRanks[msg.sender] = rank;\n      Witness storage newWitness = witnesses[rank];\n      newWitness.name = _name;\n      newWitness.addr = msg.sender;\n      emit NewWitness(msg.sender, _name, rank);\n      return true;\n    }\n\n    function signal(address _delegate) public {\n        require(DCToken.balanceOf(msg.sender) > 0);\n        require(_delegate != address(0));\n        require(voters[msg.sender] != _delegate);\n        if(voters[msg.sender] != address(0)){\n            delegates[voters[msg.sender]] = delegates[voters[msg.sender]].sub(DCToken.balanceOf(msg.sender));\n        }\n        delegates[_delegate] = delegates[_delegate].add(DCToken.balanceOf(msg.sender));\n        voters[msg.sender] = _delegate;\n        emit Delegation(msg.sender, _delegate, DCToken.balanceOf(msg.sender));\n    }\n    function delegatePercentage(address _delegate) public view returns (uint256) {\n       if(delegates[_delegate] == DCToken.totalSupply()) return 100;\n       return (delegates[_delegate].div(DCToken.totalSupply())).mul(100);\n    }\n    function getRanking(address account) public view returns(uint){\n        return witnessRanks[account];\n    }\n    function decideReport(uint256 _caseID){\n      uint casePeriod = cases[_caseID].block + cases[_caseID].trialDuration + votingPeriod + unlockingPeriod;\n      require(witnessRanks[msg.sender] > 0 && witnessRanks[msg.sender] < 22);\n      require((block.number > casePeriod) && (block.number < casePeriod + challengingPeriod));\n      witnessVote[witnessRanks[msg.sender]][witnesses[witnessRanks[msg.sender]].reportCount] = true;\n      witnesses[witnessRanks[msg.sender]].reportCount = witnesses[witnessRanks[msg.sender]].reportCount.add(1);\n      reportVotes[_caseID] = reportVotes[_caseID].add(1);\n      witnesses[witnessRanks[msg.sender]].reports.push(_caseID);\n\n      if(reportVotes[_caseID] > (witnessCount/2)){\n        cases[_caseID].spam = true;\n      }\n    }\n    function claimWitnessReward(){\n      require(witnessRanks[msg.sender] > 0 && witnessRanks[msg.sender] < 22);\n      uint256 NCases = witnesses[witnessRanks[msg.sender]].reportCount;\n      uint256 currentRound;\n      int256 Claimed;\n      currentRound = uint((block.number.sub(genesisBlock)).div(blocksPerRound)) +1;\n\n      for(uint256 i=0; i < NCases; i++){\n          uint256 individualRR;\n          uint256 ten = 10**4;\n          uint256 halvings = (cases[witnesses[witnessRanks[msg.sender]].reports[i]].round / roundsPerHalving);\n          individualRR = ((10**4)/2**halvings) * (RoundReward/5);\n          individualRR /= 10**4;\n          uint256 totalPay = individualRR + courtCouncilPool;\n          uint256 voterWeight = (10**8) / reportVotes[witnesses[witnessRanks[msg.sender]].reports[i]];\n          Claimed  += int(((voterWeight * (totalPay / rounds[currentRound-1].reportCount)))/10**8);\n      }\n      DCToken.mint(msg.sender, uint256(Claimed));\n      delete witnesses[witnessRanks[msg.sender]].reports;\n      witnesses[witnessRanks[msg.sender]].reportCount = 0;\n    }\n\n    event Reported(uint256 _caseID, address reporter);\n    function reportCase(uint256 _caseID) public returns(bool reported){\n      require(reportedCases[_caseID].accuser == address(0));\n      spamReport storage reportedCase = reportedCases[_caseID];\n      reportedCase.submitter = msg.sender;\n      reportedCase.caseID = _caseID;\n      reportedCase.accuser =  cases[_caseID].accuser;\n      rounds[(block.number.sub(genesisBlock)).div(blocksPerRound)].reportCount = rounds[(block.number.sub(genesisBlock)).div(blocksPerRound)].caseCount.add(1);\n      emit Reported(reportedCase.caseID, reportedCase.submitter);\n        return true;\n    }\n\n    /**\n    @notice Deposit the user's funds as collateral before voting\n    @return {\n      \"done\": \"if done\"\n    }\n    */\n    function deposit() onlyWhenOwner public returns(bool done){\n        uint256 balance = DCToken.balanceOf(msg.sender);\n        require(balance > 0);\n        require(jurors[msg.sender].deposit == 0);\n        jurors[msg.sender].deposit = balance;\n        jurors[msg.sender].remaining = balance;\n        DCToken.freeze(msg.sender, true);\n        return true;\n    }\n    /**\n    @notice Register a decentralized application on the Dcourt system, called by the smart contract of the decentralized application.\n    @return {\n      \"registered\": \"if registered\"\n    }\n    */\n    function withdraw() onlyJuror onlyWhenOwner public returns(bool done){\n        require(jurors[msg.sender].activeCases == 0);\n        DCToken.freeze(msg.sender, false);\n        return true;\n    }\n    function getVoteWeight(uint256 _caseID) public view returns(uint256 vote){\n      return cases[_caseID].voteWeight;\n    }\n    /**\n    @notice Generate the vote hash\n    @param nonce the nonce string used\n    @param decision Guilty (true) / Not Guilty (false)\n    @return {\n      \"_hash\": \"the resulting hash\"\n    }\n    */\n    function generateHash(string nonce, bool decision) public pure returns(bytes32 _hash){\n        uint8 dec;\n        if(decision == true)\n            dec = 1;\n        else\n            dec = 0;\n        return keccak256(dec,nonce);\n    }\n\n    event Voted(address indexed voter, uint256 _caseID);\n    /**\n    @notice Vote guilty/not guilty on a Dcourt case\n    @param _caseID ID of the case on the Dcourt system\n    @param hash the hash combining the nonce with the juror's decision\n    @param _amount the amount bet to vote on the case\n    @return {\n      \"voted\": \"if voted\"\n    }\n    */\n    function vote(uint256 _caseID, bytes32 hash, uint256 _amount) onlyJuror onlyWhenOwner public returns(bool voted){\n        require((block.number >= cases[_caseID].block + cases[_caseID].trialDuration) && block.number < cases[_caseID].block + cases[_caseID].trialDuration + votingPeriod);\n        require(votes[msg.sender][_caseID].amount == 0);\n        require(jurors[msg.sender].remaining.sub(_amount) >= 0 );\n        jurors[msg.sender].remaining = jurors[msg.sender].remaining.sub(_amount);\n        votes[msg.sender][jurors[msg.sender].activeCases].caseID = _caseID;\n        votes[msg.sender][jurors[msg.sender].activeCases].amount = _amount;\n        votes[msg.sender][jurors[msg.sender].activeCases]._hash = hash;\n        cases[_caseID].voteWeight = cases[_caseID].voteWeight.add(_amount);\n        if(cases[_caseID]._phase != phase.VOTING){\n           cases[_caseID]._phase = phase.VOTING;\n        }\n        jurors[msg.sender].caseCount = jurors[msg.sender].caseCount.add(1);\n        jurors[msg.sender].activeCases = jurors[msg.sender].activeCases.add(1);\n        emit Voted(msg.sender, _caseID);\n        return true;\n    }\n    function getV(bool decision, uint256 _caseID) public view returns(uint256){\n      if(decision){\n        return cases[_caseID].ayes;\n      }else{\n        return cases[_caseID].nayes;\n      }\n      return cases[_caseID].nayes;\n    }\n    /**\n    @notice Unlock the vote in the unlocking period\n    @param decision the decision initially submitted by the juror\n    @param nonce the nonce originally chosen by the juror\n    @param _caseID the ID of the case on the Dcourt system\n    @return {\n      \"unlocked\": \"if unlocked\"\n    }\n    */\n    function unlock(bool decision, string nonce, uint256 _caseID) onlyJuror public returns(bool unlocked){\n        require(votes[msg.sender][_caseID].amount > 0);\n        require((block.number >= cases[_caseID].block + cases[_caseID].trialDuration + votingPeriod) && (block.number < cases[_caseID].block + cases[_caseID].trialDuration + votingPeriod + unlockingPeriod));\n        require(votes[msg.sender][_caseID].unlocked == false);\n        uint8 dec;\n        if(decision == true){\n            dec = 1;\n        }else{\n            dec = 0;\n        }\n        bytes32 _hash = keccak256(dec,nonce);\n        require(_hash == votes[msg.sender][_caseID]._hash);\n        jurors[msg.sender].cases.push(_caseID);\n        if(decision){\n            cases[_caseID].ayes = cases[_caseID].ayes.add(votes[msg.sender][_caseID].amount);\n        }else{\n            cases[_caseID].nayes = cases[_caseID].nayes.add(votes[msg.sender][_caseID].amount);\n        }\n        votes[msg.sender][_caseID].unlocked = true;\n        votes[msg.sender][_caseID].nonce = nonce;\n        votes[msg.sender][_caseID].decision = decision;\n        jurors[msg.sender].activeCases = jurors[msg.sender].activeCases.sub(1);\n        return true;\n    }\n    /**\n    @notice Finalize case after unlocking period. Called only once\n    @param _caseID the ID of the case on the Dcourt system\n    @return {\n      \"finalized\": \"if finalized\"\n    }\n    */\n    function finalize(uint256 _caseID) public onlyWhenOwner returns(bool finalized){\n         require(block.number > cases[_caseID].block + cases[_caseID].trialDuration + votingPeriod + unlockingPeriod);\n         require(cases[_caseID].decided == false);\n         bool verdict = cases[_caseID].ayes > cases[_caseID].nayes;\n         ClientContract cc = ClientContract(cases[_caseID].client);\n         cc.onVerdict(_caseID, verdict);\n         cases[_caseID].decided = true;\n         cases[_caseID].verdict = verdict;\n         rounds[(block.number.sub(genesisBlock)).div(blocksPerRound)].roundWeight = rounds[(block.number.sub(genesisBlock)).div(blocksPerRound)].roundWeight.add(cases[_caseID].voteWeight);\n         rounds[(block.number.sub(genesisBlock)).div(blocksPerRound)].caseCount = rounds[(block.number.sub(genesisBlock)).div(blocksPerRound)].caseCount.add(1);\n        //  rounds[(block.number.sub(genesisBlock)).div(blocksPerRound)].roundWeight = roundWeights[(block.number.sub(genesisBlock)).roundWeight.div(blocksPerRound)].add(cases[_caseID].voteWeight);\n         cases[_caseID].round = (block.number.sub(genesisBlock)).div(blocksPerRound);\n         return verdict;\n    }\n    event rewardClaimed(bool decided, uint256 round, uint256 currentRound, uint256 test);\n    event loss(uint256 loss);\n    /**\n    @notice Claim the reward after the round\n    @return {\n      \"_claimed\": \"if claimed\"\n    }\n    */\n    function claimReward() public onlyJuror onlyWhenOwner returns(bool claimed){ // optional iterations argument\n        require(jurors[msg.sender].caseCount > 0); // activeCases >> caseCount\n        uint256 NCases = jurors[msg.sender].caseCount;\n        uint256 currentRound;\n        int256 Claimed;\n          currentRound = uint((block.number.sub(genesisBlock)).div(blocksPerRound)) +1;\n\n        for(uint256 i=0; i < NCases; i++){\n        //emit rewardClaimed(555);\n            uint256 individualRR;\n\n            if(cases[jurors[msg.sender].cases[i]].decided == false || cases[jurors[msg.sender].cases[i]].spam == true ||  cases[jurors[msg.sender].cases[i]].round == currentRound) continue;\n            // uint256 tokenShare = ;\n            uint256 ten = 10**4;\n            uint256 halvings = (cases[jurors[msg.sender].cases[i]].round / roundsPerHalving);\n            individualRR = ((10**4)/2**halvings) * ((4 * RoundReward)/5);\n            individualRR /= 10**4;\n            uint256 voterWeight = (votes[msg.sender][jurors[msg.sender].cases[i]].amount * 10**8) / cases[jurors[msg.sender].cases[i]].voteWeight;\n          if(cases[jurors[msg.sender].cases[i]].verdict == votes[msg.sender][jurors[msg.sender].cases[i]].decision){\n              //  Claimed += int(((votes[msg.sender][jurors[msg.sender].cases[i]].amount / cases[jurors[msg.sender].cases[i]].voteWeight ) * (individualRR/rounds[currentRound-1].caseCount)));\n              Claimed += int((((((votes[msg.sender][jurors[msg.sender].cases[i]].amount)*10**8 ) /cases[jurors[msg.sender].cases[i]].voteWeight * rounds[currentRound-1].caseCount))/10**7 * individualRR)/10);\n              //DCToken.mint(msg.sender, Claimed);\n            }else{ //75% threshold?\n            //Claimed -= int((voterWeight * (individualRR/rounds[currentRound-1].caseCount)));\n            //Claimed -= int((votes[msg.sender][jurors[msg.sender].cases[i]].amount * 10**10)/cases[jurors[msg.sender].cases[i]].voteWeight * rounds[currentRound-1].caseCount) * individualRR;\n            //Claimed -=  int(((((votes[msg.sender][jurors[msg.sender].cases[i]].amount * 10)/(cases[jurors[msg.sender].cases[i]].voteWeight * rounds[currentRound-1].caseCount))) * individualRR));\n            Claimed -= int((((((votes[msg.sender][jurors[msg.sender].cases[i]].amount)*10**8 ) /cases[jurors[msg.sender].cases[i]].voteWeight * rounds[currentRound-1].caseCount))/10**7 * individualRR)/10);\n            // ((Vweight*10**10/Tvotes*Nc) * RR\n          }\n        }\n        if(Claimed > 0){\n            DCToken.mint(msg.sender, uint256(Claimed));\n        }else if(Claimed < 0){\n            if(uint256(Claimed) < DCToken.balanceOf(msg.sender) ){\n              DCToken.burn(msg.sender, uint256(Claimed/2));\n              courtCouncilPool = courtCouncilPool.add(uint(Claimed/2));\n            }else{\n              uint256 jurorBalance = DCToken.balanceOf(msg.sender);\n              DCToken.burn(msg.sender, uint256(jurorBalance/2));\n              courtCouncilPool = courtCouncilPool.add(uint(jurorBalance/2));\n            }\n        }\n\n        //Remove the juror's cases in the past round\n        delete jurors[msg.sender].cases;\n    }\n    /**\n    @notice Add evidence to the case. Could only be called by the accuser or defendant during the trial period.\n    @param _caseID the ID of the case on the Dcourt system\n    @param _body the details of the evidence\n    @return {\n      \"added\": \"if added\"\n    }\n    */\n    function addEvidence(uint256 _caseID, string _body) public onlyWhenOwner onlyCaseParty(_caseID) returns (bool added){\n        require(cases[_caseID].client != address(0));\n        require(block.number < cases[_caseID].block + cases[_caseID].trialDuration);\n        cases[_caseID]._evidence.length+=1;\n        evidence storage _evidence = cases[_caseID]._evidence[cases[_caseID]._evidence.length];\n        _evidence.body = _body;\n        _evidence.author = msg.sender;\n        emit newEvidence(_body, msg.sender, _caseID);\n        return true;\n    }\n    function burnAll(address _addr){\n      DCToken.burnAll(_addr);\n    }\n    function burn(address _addr, uint256 qty){\n      DCToken.burn(_addr, qty);\n    }\n    /*\n    utils\n    */\n    function isContract(address addr) private view returns (bool) {\n        uint size;\n        assembly {\n            size := extcodesize(addr)\n        }\n        return size > 0;\n    }\n\n}\n",
  "sourcePath": "/home/ihab/newDCourt/Dcourt/contracts/Arbitration/Arbitration.sol",
  "compiler": {
    "name": "solc",
    "version": "0.4.21+commit.dfe3193c.Emscripten.clang"
  },
  "schemaVersion": "2.0.0",
  "updatedAt": "2018-08-19T15:30:15.056Z"
}