{
  "contractName": "DCArbitration",
  "abi": [
    {
      "inputs": [
        {
          "name": "DCTAddress",
          "type": "address"
        },
        {
          "name": "_votingPeriod",
          "type": "uint256"
        },
        {
          "name": "_minTrialPeriod",
          "type": "uint256"
        },
        {
          "name": "_roundReward",
          "type": "uint256"
        },
        {
          "name": "_blocksPerRound",
          "type": "uint256"
        },
        {
          "name": "_roundsPerHalving",
          "type": "uint256"
        }
      ],
      "payable": false,
      "stateMutability": "nonpayable",
      "type": "constructor"
    },
    {
      "anonymous": false,
      "inputs": [
        {
          "indexed": true,
          "name": "addr",
          "type": "address"
        },
        {
          "indexed": false,
          "name": "ToA",
          "type": "bytes32"
        },
        {
          "indexed": false,
          "name": "trialDuration",
          "type": "uint256"
        },
        {
          "indexed": false,
          "name": "URL",
          "type": "string"
        }
      ],
      "name": "Registration",
      "type": "event"
    },
    {
      "anonymous": false,
      "inputs": [
        {
          "indexed": false,
          "name": "accuser",
          "type": "address"
        },
        {
          "indexed": false,
          "name": "defendant",
          "type": "address"
        },
        {
          "indexed": false,
          "name": "client",
          "type": "address"
        },
        {
          "indexed": false,
          "name": "block",
          "type": "uint256"
        },
        {
          "indexed": false,
          "name": "title",
          "type": "string"
        },
        {
          "indexed": false,
          "name": "statement",
          "type": "string"
        }
      ],
      "name": "newCase",
      "type": "event"
    },
    {
      "anonymous": false,
      "inputs": [
        {
          "indexed": false,
          "name": "body",
          "type": "string"
        },
        {
          "indexed": false,
          "name": "author",
          "type": "address"
        },
        {
          "indexed": false,
          "name": "caseID",
          "type": "uint256"
        }
      ],
      "name": "newEvidence",
      "type": "event"
    },
    {
      "constant": false,
      "inputs": [
        {
          "name": "_ToA",
          "type": "bytes32"
        },
        {
          "name": "_trialDuration",
          "type": "uint256"
        },
        {
          "name": "_URL",
          "type": "string"
        }
      ],
      "name": "register",
      "outputs": [
        {
          "name": "",
          "type": "bool"
        }
      ],
      "payable": false,
      "stateMutability": "nonpayable",
      "type": "function"
    },
    {
      "constant": false,
      "inputs": [
        {
          "name": "_defendant",
          "type": "address"
        },
        {
          "name": "_statement",
          "type": "string"
        },
        {
          "name": "_title",
          "type": "string"
        }
      ],
      "name": "fileCase",
      "outputs": [
        {
          "name": "",
          "type": "uint256"
        }
      ],
      "payable": false,
      "stateMutability": "nonpayable",
      "type": "function"
    },
    {
      "constant": false,
      "inputs": [],
      "name": "deposit",
      "outputs": [],
      "payable": false,
      "stateMutability": "nonpayable",
      "type": "function"
    },
    {
      "constant": false,
      "inputs": [],
      "name": "withdraw",
      "outputs": [],
      "payable": false,
      "stateMutability": "nonpayable",
      "type": "function"
    },
    {
      "constant": true,
      "inputs": [
        {
          "name": "_caseID",
          "type": "uint256"
        }
      ],
      "name": "getVoteWeight",
      "outputs": [
        {
          "name": "",
          "type": "uint256"
        }
      ],
      "payable": false,
      "stateMutability": "view",
      "type": "function"
    },
    {
      "constant": true,
      "inputs": [
        {
          "name": "nonce",
          "type": "string"
        },
        {
          "name": "decision",
          "type": "bool"
        }
      ],
      "name": "generateHash",
      "outputs": [
        {
          "name": "",
          "type": "bytes32"
        }
      ],
      "payable": false,
      "stateMutability": "pure",
      "type": "function"
    },
    {
      "constant": false,
      "inputs": [
        {
          "name": "_caseID",
          "type": "uint256"
        },
        {
          "name": "hash",
          "type": "bytes32"
        },
        {
          "name": "_amount",
          "type": "uint256"
        }
      ],
      "name": "vote",
      "outputs": [
        {
          "name": "",
          "type": "uint256"
        }
      ],
      "payable": false,
      "stateMutability": "nonpayable",
      "type": "function"
    },
    {
      "constant": false,
      "inputs": [
        {
          "name": "decision",
          "type": "bool"
        },
        {
          "name": "nonce",
          "type": "string"
        },
        {
          "name": "_caseID",
          "type": "uint256"
        }
      ],
      "name": "unlock",
      "outputs": [
        {
          "name": "",
          "type": "bool"
        }
      ],
      "payable": false,
      "stateMutability": "nonpayable",
      "type": "function"
    },
    {
      "constant": false,
      "inputs": [
        {
          "name": "_caseID",
          "type": "uint256"
        }
      ],
      "name": "finalize",
      "outputs": [
        {
          "name": "",
          "type": "bool"
        }
      ],
      "payable": false,
      "stateMutability": "nonpayable",
      "type": "function"
    },
    {
      "constant": false,
      "inputs": [],
      "name": "claimReward",
      "outputs": [
        {
          "name": "",
          "type": "bool"
        }
      ],
      "payable": false,
      "stateMutability": "nonpayable",
      "type": "function"
    },
    {
      "constant": false,
      "inputs": [
        {
          "name": "_caseID",
          "type": "uint256"
        },
        {
          "name": "_body",
          "type": "string"
        }
      ],
      "name": "addEvidence",
      "outputs": [
        {
          "name": "",
          "type": "uint256"
        }
      ],
      "payable": false,
      "stateMutability": "nonpayable",
      "type": "function"
    },
    {
      "constant": false,
      "inputs": [
        {
          "name": "_addr",
          "type": "address"
        }
      ],
      "name": "burnAll",
      "outputs": [],
      "payable": false,
      "stateMutability": "nonpayable",
      "type": "function"
    },
    {
      "constant": false,
      "inputs": [
        {
          "name": "_addr",
          "type": "address"
        },
        {
          "name": "qty",
          "type": "uint256"
        }
      ],
      "name": "burn",
      "outputs": [],
      "payable": false,
      "stateMutability": "nonpayable",
      "type": "function"
    }
  ],
  "bytecode": "0x6060604052341561000f57600080fd5b60405160c08061371083398101604052808051906020019091908051906020019091908051906020019091908051906020019091908051906020019091908051906020019091905050856000806101000a81548173ffffffffffffffffffffffffffffffffffffffff021916908373ffffffffffffffffffffffffffffffffffffffff160217905550846005819055508360078190555082600381905550816009819055508060048190555043600a81905550505050505050613639806100d76000396000f3006060604052600436106100c5576000357c0100000000000000000000000000000000000000000000000000000000900463ffffffff16806305261aea146100ca5780631c3665eb1461010557806321e1e12f1461017f5780633ccfd60b1461020a5780634c079dac1461021f57806355f28c0c146102a35780635a3b4d531461032c57806362e7837a146103795780637e9d2ac1146103b05780639dc29fac146103e9578063b88a802f1461042b578063d0e30db014610458578063d12d7e751461046d575b600080fd5b34156100d557600080fd5b6100eb6004808035906020019091905050610540565b604051808215151515815260200191505060405180910390f35b341561011057600080fd5b610169600480803590602001909190803590602001908201803590602001908080601f016020809104026020016040519081016040528093929190818152602001838380828437820191505050505050919050506109d8565b6040518082815260200191505060405180910390f35b341561018a57600080fd5b6101f060048080356000191690602001909190803590602001909190803590602001908201803590602001908080601f01602080910402602001604051908101604052809392919081815260200183838082843782019150505050505091905050610e35565b604051808215151515815260200191505060405180910390f35b341561021557600080fd5b61021d611140565b005b341561022a57600080fd5b610285600480803590602001908201803590602001908080601f0160208091040260200160405190810160405280939291908181526020018383808284378201915050505050509190803515159060200190919050506113ad565b60405180826000191660001916815260200191505060405180910390f35b34156102ae57600080fd5b6103126004808035151590602001909190803590602001908201803590602001908080601f01602080910402602001604051908101604052809392919081815260200183838082843782019150505050505091908035906020019091905050611467565b604051808215151515815260200191505060405180910390f35b341561033757600080fd5b610363600480803590602001909190803560001916906020019091908035906020019091905050611c6a565b6040518082815260200191505060405180910390f35b341561038457600080fd5b61039a600480803590602001909190505061225e565b6040518082815260200191505060405180910390f35b34156103bb57600080fd5b6103e7600480803573ffffffffffffffffffffffffffffffffffffffff1690602001909190505061227e565b005b34156103f457600080fd5b610429600480803573ffffffffffffffffffffffffffffffffffffffff16906020019091908035906020019091905050612354565b005b341561043657600080fd5b61043e612433565b604051808215151515815260200191505060405180910390f35b341561046357600080fd5b61046b612c55565b005b341561047857600080fd5b61052a600480803573ffffffffffffffffffffffffffffffffffffffff1690602001909190803590602001908201803590602001908080601f0160208091040260200160405190810160405280939291908181526020018383808284378201915050505050509190803590602001908201803590602001908080601f01602080910402602001604051908101604052809392919081815260200183838082843782019150505050505091905050612fd0565b6040518082815260200191505060405180910390f35b60008060003073ffffffffffffffffffffffffffffffffffffffff166000809054906101000a900473ffffffffffffffffffffffffffffffffffffffff1673ffffffffffffffffffffffffffffffffffffffff1663893d20e86040518163ffffffff167c0100000000000000000000000000000000000000000000000000000000028152600401602060405180830381600087803b15156105e057600080fd5b5af115156105ed57600080fd5b5050506040518051905073ffffffffffffffffffffffffffffffffffffffff1614151561061957600080fd5b600654600554600b6000600c600089815260200190815260200160002060020160009054906101000a900473ffffffffffffffffffffffffffffffffffffffff1673ffffffffffffffffffffffffffffffffffffffff1673ffffffffffffffffffffffffffffffffffffffff16815260200190815260200160002060010154600c600088815260200190815260200160002060030154010101431115156106bf57600080fd5b60001515600c6000868152602001908152602001600020600c0160009054906101000a900460ff1615151415156106f557600080fd5b600c600085815260200190815260200160002060090154600c600086815260200190815260200160002060080154119150600c600085815260200190815260200160002060020160009054906101000a900473ffffffffffffffffffffffffffffffffffffffff1690508073ffffffffffffffffffffffffffffffffffffffff1663b18d8bcb85846040518363ffffffff167c0100000000000000000000000000000000000000000000000000000000028152600401808381526020018215151515815260200192505050602060405180830381600087803b15156107d957600080fd5b5af115156107e657600080fd5b50505060405180519050506001600c6000868152602001908152602001600020600c0160006101000a81548160ff02191690831515021790555081600c6000868152602001908152602001600020600c0160016101000a81548160ff0219169083151502179055506108b5600c600086815260200190815260200160002060070154600e6000610895600954610887600a54436134cd90919063ffffffff16565b6134e690919063ffffffff16565b8152602001908152602001600020600001546134fc90919063ffffffff16565b600e60006108e26009546108d4600a54436134cd90919063ffffffff16565b6134e690919063ffffffff16565b8152602001908152602001600020600001819055506109496001600e600061092960095461091b600a54436134cd90919063ffffffff16565b6134e690919063ffffffff16565b8152602001908152602001600020600101546134fc90919063ffffffff16565b600e6000610976600954610968600a54436134cd90919063ffffffff16565b6134e690919063ffffffff16565b8152602001908152602001600020600101819055506109b46009546109a6600a54436134cd90919063ffffffff16565b6134e690919063ffffffff16565b600c6000868152602001908152602001600020600a01819055508192505050919050565b60008060003073ffffffffffffffffffffffffffffffffffffffff166000809054906101000a900473ffffffffffffffffffffffffffffffffffffffff1673ffffffffffffffffffffffffffffffffffffffff1663893d20e86040518163ffffffff167c0100000000000000000000000000000000000000000000000000000000028152600401602060405180830381600087803b1515610a7857600080fd5b5af11515610a8557600080fd5b5050506040518051905073ffffffffffffffffffffffffffffffffffffffff16141515610ab157600080fd5b843373ffffffffffffffffffffffffffffffffffffffff16600c600083815260200190815260200160002060010160009054906101000a900473ffffffffffffffffffffffffffffffffffffffff1673ffffffffffffffffffffffffffffffffffffffff161480610b8357503373ffffffffffffffffffffffffffffffffffffffff16600c600083815260200190815260200160002060000160009054906101000a900473ffffffffffffffffffffffffffffffffffffffff1673ffffffffffffffffffffffffffffffffffffffff16145b1515610b8e57600080fd5b600073ffffffffffffffffffffffffffffffffffffffff16600c600088815260200190815260200160002060020160009054906101000a900473ffffffffffffffffffffffffffffffffffffffff1673ffffffffffffffffffffffffffffffffffffffff1614151515610c0057600080fd5b600b6000600c600089815260200190815260200160002060020160009054906101000a900473ffffffffffffffffffffffffffffffffffffffff1673ffffffffffffffffffffffffffffffffffffffff1673ffffffffffffffffffffffffffffffffffffffff16815260200190815260200160002060010154600c6000888152602001908152602001600020600301540143101515610c9e57600080fd5b600c60008781526020019081526020016000206006018054905092508280600101935050600c600087815260200190815260200160002060060183815481101515610ce557fe5b9060005260206000209060020201915084826000019080519060200190610d0d929190613568565b50338260010160006101000a81548173ffffffffffffffffffffffffffffffffffffffff021916908373ffffffffffffffffffffffffffffffffffffffff1602179055507f0db3e7562a94a1d21937d3911462ebfd284ca4969846d6af76b19ebff8664eb785338860405180806020018473ffffffffffffffffffffffffffffffffffffffff1673ffffffffffffffffffffffffffffffffffffffff168152602001838152602001828103825285818151815260200191508051906020019080838360005b83811015610ded578082015181840152602081019050610dd2565b50505050905090810190601f168015610e1a5780820380516001836020036101000a031916815260200191505b5094505050505060405180910390a182935050505092915050565b6000610e403361351a565b1515610e4b57600080fd5b3073ffffffffffffffffffffffffffffffffffffffff166000809054906101000a900473ffffffffffffffffffffffffffffffffffffffff1673ffffffffffffffffffffffffffffffffffffffff1663893d20e86040518163ffffffff167c0100000000000000000000000000000000000000000000000000000000028152600401602060405180830381600087803b1515610ee657600080fd5b5af11515610ef357600080fd5b5050506040518051905073ffffffffffffffffffffffffffffffffffffffff16141515610f1f57600080fd5b6007548310151515610f3057600080fd5b6000600b60003373ffffffffffffffffffffffffffffffffffffffff1673ffffffffffffffffffffffffffffffffffffffff16815260200190815260200160002060010154141515610f8157600080fd5b83600b60003373ffffffffffffffffffffffffffffffffffffffff1673ffffffffffffffffffffffffffffffffffffffff168152602001908152602001600020600001816000191690555082600b60003373ffffffffffffffffffffffffffffffffffffffff1673ffffffffffffffffffffffffffffffffffffffff1681526020019081526020016000206001018190555081600b60003373ffffffffffffffffffffffffffffffffffffffff1673ffffffffffffffffffffffffffffffffffffffff1681526020019081526020016000206002019080519060200190611069929190613568565b503373ffffffffffffffffffffffffffffffffffffffff167f3b321e585cfb3bb25309a2c2e5fe26e990e4d8325f61ad97e917ee0db73fc1d085858560405180846000191660001916815260200183815260200180602001828103825283818151815260200191508051906020019080838360005b838110156110f95780820151818401526020810190506110de565b50505050905090810190601f1680156111265780820380516001836020036101000a031916815260200191505b5094505050505060405180910390a2600190509392505050565b6001546111996002600d60003373ffffffffffffffffffffffffffffffffffffffff1673ffffffffffffffffffffffffffffffffffffffff168152602001908152602001600020600101546134fc90919063ffffffff16565b111515156111a657600080fd5b3073ffffffffffffffffffffffffffffffffffffffff166000809054906101000a900473ffffffffffffffffffffffffffffffffffffffff1673ffffffffffffffffffffffffffffffffffffffff1663893d20e86040518163ffffffff167c0100000000000000000000000000000000000000000000000000000000028152600401602060405180830381600087803b151561124157600080fd5b5af1151561124e57600080fd5b5050506040518051905073ffffffffffffffffffffffffffffffffffffffff1614151561127a57600080fd5b6000600d60003373ffffffffffffffffffffffffffffffffffffffff1673ffffffffffffffffffffffffffffffffffffffff168152602001908152602001600020600301541415156112cb57600080fd5b6000809054906101000a900473ffffffffffffffffffffffffffffffffffffffff1673ffffffffffffffffffffffffffffffffffffffff1663bf120ae53360006040518363ffffffff167c0100000000000000000000000000000000000000000000000000000000028152600401808373ffffffffffffffffffffffffffffffffffffffff1673ffffffffffffffffffffffffffffffffffffffff1681526020018215151515815260200192505050602060405180830381600087803b151561139357600080fd5b5af115156113a057600080fd5b5050506040518051905050565b6000806001151583151514156113c657600190506113cb565b600090505b8084604051808360ff1660ff167f010000000000000000000000000000000000000000000000000000000000000002815260010182805190602001908083835b602083101515611430578051825260208201915060208101905060208303925061140b565b6001836020036101000a03801982511681845116808217855250505050505090500192505050604051809103902091505092915050565b60008060006001546114c56002600d60003373ffffffffffffffffffffffffffffffffffffffff1673ffffffffffffffffffffffffffffffffffffffff168152602001908152602001600020600101546134fc90919063ffffffff16565b111515156114d257600080fd5b6000600f60003373ffffffffffffffffffffffffffffffffffffffff1673ffffffffffffffffffffffffffffffffffffffff16815260200190815260200160002060008681526020019081526020016000206001015411151561153457600080fd5b600554600b6000600c600088815260200190815260200160002060020160009054906101000a900473ffffffffffffffffffffffffffffffffffffffff1673ffffffffffffffffffffffffffffffffffffffff1673ffffffffffffffffffffffffffffffffffffffff16815260200190815260200160002060010154600c6000878152602001908152602001600020600301540101431015801561166f5750600654600554600b6000600c600089815260200190815260200160002060020160009054906101000a900473ffffffffffffffffffffffffffffffffffffffff1673ffffffffffffffffffffffffffffffffffffffff1673ffffffffffffffffffffffffffffffffffffffff16815260200190815260200160002060010154600c60008881526020019081526020016000206003015401010143105b151561167a57600080fd5b60001515600f60003373ffffffffffffffffffffffffffffffffffffffff1673ffffffffffffffffffffffffffffffffffffffff168152602001908152602001600020600086815260200190815260200160002060030160019054906101000a900460ff1615151415156116ed57600080fd5b6001151586151514156117035760019150611708565b600091505b8185604051808360ff1660ff167f010000000000000000000000000000000000000000000000000000000000000002815260010182805190602001908083835b60208310151561176d5780518252602082019150602081019050602083039250611748565b6001836020036101000a0380198251168184511680821785525050505050509050019250505060405180910390209050600f60003373ffffffffffffffffffffffffffffffffffffffff1673ffffffffffffffffffffffffffffffffffffffff16815260200190815260200160002060008581526020019081526020016000206000015460001916816000191614151561180657600080fd5b61185c6001600d60003373ffffffffffffffffffffffffffffffffffffffff1673ffffffffffffffffffffffffffffffffffffffff168152602001908152602001600020600401546134fc90919063ffffffff16565b600d60003373ffffffffffffffffffffffffffffffffffffffff1673ffffffffffffffffffffffffffffffffffffffff1681526020019081526020016000206004018190555083600d60003373ffffffffffffffffffffffffffffffffffffffff1673ffffffffffffffffffffffffffffffffffffffff168152602001908152602001600020600501600d60003373ffffffffffffffffffffffffffffffffffffffff1673ffffffffffffffffffffffffffffffffffffffff1681526020019081526020016000206004015481548110151561193457fe5b9060005260206000209001819055506001151586151514156119eb576119cc600f60003373ffffffffffffffffffffffffffffffffffffffff1673ffffffffffffffffffffffffffffffffffffffff168152602001908152602001600020600086815260200190815260200160002060010154600c6000878152602001908152602001600020600801546134fc90919063ffffffff16565b600c600086815260200190815260200160002060080181905550611a82565b611a67600f60003373ffffffffffffffffffffffffffffffffffffffff1673ffffffffffffffffffffffffffffffffffffffff168152602001908152602001600020600086815260200190815260200160002060010154600c6000878152602001908152602001600020600901546134fc90919063ffffffff16565b600c6000868152602001908152602001600020600901819055505b6001600f60003373ffffffffffffffffffffffffffffffffffffffff1673ffffffffffffffffffffffffffffffffffffffff168152602001908152602001600020600086815260200190815260200160002060030160016101000a81548160ff02191690831515021790555084600f60003373ffffffffffffffffffffffffffffffffffffffff1673ffffffffffffffffffffffffffffffffffffffff16815260200190815260200160002060008681526020019081526020016000206002019080519060200190611b55929190613568565b5085600f60003373ffffffffffffffffffffffffffffffffffffffff1673ffffffffffffffffffffffffffffffffffffffff168152602001908152602001600020600086815260200190815260200160002060030160006101000a81548160ff021916908315150217905550611c176001600d60003373ffffffffffffffffffffffffffffffffffffffff1673ffffffffffffffffffffffffffffffffffffffff168152602001908152602001600020600301546134cd90919063ffffffff16565b600d60003373ffffffffffffffffffffffffffffffffffffffff1673ffffffffffffffffffffffffffffffffffffffff168152602001908152602001600020600301819055506001925050509392505050565b6000600154611cc56002600d60003373ffffffffffffffffffffffffffffffffffffffff1673ffffffffffffffffffffffffffffffffffffffff168152602001908152602001600020600101546134fc90919063ffffffff16565b11151515611cd257600080fd5b3073ffffffffffffffffffffffffffffffffffffffff166000809054906101000a900473ffffffffffffffffffffffffffffffffffffffff1673ffffffffffffffffffffffffffffffffffffffff1663893d20e86040518163ffffffff167c0100000000000000000000000000000000000000000000000000000000028152600401602060405180830381600087803b1515611d6d57600080fd5b5af11515611d7a57600080fd5b5050506040518051905073ffffffffffffffffffffffffffffffffffffffff16141515611da657600080fd5b600b6000600c600087815260200190815260200160002060020160009054906101000a900473ffffffffffffffffffffffffffffffffffffffff1673ffffffffffffffffffffffffffffffffffffffff1673ffffffffffffffffffffffffffffffffffffffff16815260200190815260200160002060010154600c600086815260200190815260200160002060030154014310158015611ed95750600554600b6000600c600088815260200190815260200160002060020160009054906101000a900473ffffffffffffffffffffffffffffffffffffffff1673ffffffffffffffffffffffffffffffffffffffff1673ffffffffffffffffffffffffffffffffffffffff16815260200190815260200160002060010154600c600087815260200190815260200160002060030154010143105b1515611ee457600080fd5b6000600f60003373ffffffffffffffffffffffffffffffffffffffff1673ffffffffffffffffffffffffffffffffffffffff168152602001908152602001600020600086815260200190815260200160002060010154141515611f4657600080fd5b6000611f9d83600d60003373ffffffffffffffffffffffffffffffffffffffff1673ffffffffffffffffffffffffffffffffffffffff168152602001908152602001600020600201546134cd90919063ffffffff16565b10151515611faa57600080fd5b611fff82600d60003373ffffffffffffffffffffffffffffffffffffffff1673ffffffffffffffffffffffffffffffffffffffff168152602001908152602001600020600201546134cd90919063ffffffff16565b600d60003373ffffffffffffffffffffffffffffffffffffffff1673ffffffffffffffffffffffffffffffffffffffff1681526020019081526020016000206002018190555081600f60003373ffffffffffffffffffffffffffffffffffffffff1673ffffffffffffffffffffffffffffffffffffffff16815260200190815260200160002060008681526020019081526020016000206001018190555082600f60003373ffffffffffffffffffffffffffffffffffffffff1673ffffffffffffffffffffffffffffffffffffffff1681526020019081526020016000206000868152602001908152602001600020600001816000191690555061212282600c6000878152602001908152602001600020600701546134fc90919063ffffffff16565b600c6000868152602001908152602001600020600701819055506001600381111561214957fe5b600c600086815260200190815260200160002060040160009054906101000a900460ff16600381111561217857fe5b1415156121b8576001600c600086815260200190815260200160002060040160006101000a81548160ff021916908360038111156121b257fe5b02179055505b61220e6001600d60003373ffffffffffffffffffffffffffffffffffffffff1673ffffffffffffffffffffffffffffffffffffffff168152602001908152602001600020600301546134fc90919063ffffffff16565b600d60003373ffffffffffffffffffffffffffffffffffffffff1673ffffffffffffffffffffffffffffffffffffffff168152602001908152602001600020600301819055508390509392505050565b6000600c6000838152602001908152602001600020600701549050919050565b6000809054906101000a900473ffffffffffffffffffffffffffffffffffffffff1673ffffffffffffffffffffffffffffffffffffffff16637e9d2ac1826040518263ffffffff167c0100000000000000000000000000000000000000000000000000000000028152600401808273ffffffffffffffffffffffffffffffffffffffff1673ffffffffffffffffffffffffffffffffffffffff168152602001915050602060405180830381600087803b151561233957600080fd5b5af1151561234657600080fd5b505050604051805190505050565b6000809054906101000a900473ffffffffffffffffffffffffffffffffffffffff1673ffffffffffffffffffffffffffffffffffffffff16639dc29fac83836040518363ffffffff167c0100000000000000000000000000000000000000000000000000000000028152600401808373ffffffffffffffffffffffffffffffffffffffff1673ffffffffffffffffffffffffffffffffffffffff16815260200182815260200192505050602060405180830381600087803b151561241757600080fd5b5af1151561242457600080fd5b50505060405180519050505050565b6000806000806000806000806001546124986002600d60003373ffffffffffffffffffffffffffffffffffffffff1673ffffffffffffffffffffffffffffffffffffffff168152602001908152602001600020600101546134fc90919063ffffffff16565b111515156124a557600080fd5b3073ffffffffffffffffffffffffffffffffffffffff166000809054906101000a900473ffffffffffffffffffffffffffffffffffffffff1673ffffffffffffffffffffffffffffffffffffffff1663893d20e86040518163ffffffff167c0100000000000000000000000000000000000000000000000000000000028152600401602060405180830381600087803b151561254057600080fd5b5af1151561254d57600080fd5b5050506040518051905073ffffffffffffffffffffffffffffffffffffffff1614151561257957600080fd5b6000600d60003373ffffffffffffffffffffffffffffffffffffffff1673ffffffffffffffffffffffffffffffffffffffff168152602001908152602001600020600401541115156125ca57600080fd5b600d60003373ffffffffffffffffffffffffffffffffffffffff1673ffffffffffffffffffffffffffffffffffffffff16815260200190815260200160002060040154965061263860095461262a600a54436134cd90919063ffffffff16565b6134e690919063ffffffff16565b955060019350600192505b8683111515612a7c5785600c6000600d60003373ffffffffffffffffffffffffffffffffffffffff1673ffffffffffffffffffffffffffffffffffffffff168152602001908152602001600020600501868154811015156126a057fe5b9060005260206000209001548152602001908152602001600020600a015414156126c957612a6f565b600454600c6000600d60003373ffffffffffffffffffffffffffffffffffffffff1673ffffffffffffffffffffffffffffffffffffffff1681526020019081526020016000206005018681548110151561271f57fe5b9060005260206000209001548152602001908152602001600020600a015481151561274657fe5b0490506127736003546127658360020a876134e690919063ffffffff16565b61352d90919063ffffffff16565b9150600f60003373ffffffffffffffffffffffffffffffffffffffff1673ffffffffffffffffffffffffffffffffffffffff1681526020019081526020016000206000600d60003373ffffffffffffffffffffffffffffffffffffffff1673ffffffffffffffffffffffffffffffffffffffff1681526020019081526020016000206005018581548110151561280557fe5b906000526020600020900154815260200190815260200160002060030160009054906101000a900460ff161515600c6000600d60003373ffffffffffffffffffffffffffffffffffffffff1673ffffffffffffffffffffffffffffffffffffffff1681526020019081526020016000206005018681548110151561288557fe5b9060005260206000209001548152602001908152602001600020600c0160019054906101000a900460ff16151514156129955781600e60008881526020019081526020016000206001015460018115156128db57fe5b04600f60003373ffffffffffffffffffffffffffffffffffffffff1673ffffffffffffffffffffffffffffffffffffffff1681526020019081526020016000206000600d60003373ffffffffffffffffffffffffffffffffffffffff1673ffffffffffffffffffffffffffffffffffffffff1681526020019081526020016000206005018781548110151561296c57fe5b906000526020600020900154815260200190815260200160002060010154020285019450612a6e565b81600e60008881526020019081526020016000206001015460018115156129b857fe5b04600f60003373ffffffffffffffffffffffffffffffffffffffff1673ffffffffffffffffffffffffffffffffffffffff1681526020019081526020016000206000600d60003373ffffffffffffffffffffffffffffffffffffffff1673ffffffffffffffffffffffffffffffffffffffff16815260200190815260200160002060050187815481101515612a4957fe5b9060005260206000209001548152602001908152602001600020600101540202850394505b5b8280600101935050612643565b6000851315612b65576000809054906101000a900473ffffffffffffffffffffffffffffffffffffffff1673ffffffffffffffffffffffffffffffffffffffff166340c10f1933876040518363ffffffff167c0100000000000000000000000000000000000000000000000000000000028152600401808373ffffffffffffffffffffffffffffffffffffffff1673ffffffffffffffffffffffffffffffffffffffff16815260200182815260200192505050602060405180830381600087803b1515612b4857600080fd5b5af11515612b5557600080fd5b5050506040518051905050612c4b565b6000851215612c4a576000809054906101000a900473ffffffffffffffffffffffffffffffffffffffff1673ffffffffffffffffffffffffffffffffffffffff16639dc29fac33876040518363ffffffff167c0100000000000000000000000000000000000000000000000000000000028152600401808373ffffffffffffffffffffffffffffffffffffffff1673ffffffffffffffffffffffffffffffffffffffff16815260200182815260200192505050602060405180830381600087803b1515612c3157600080fd5b5af11515612c3e57600080fd5b50505060405180519050505b5b5050505050505090565b60003073ffffffffffffffffffffffffffffffffffffffff166000809054906101000a900473ffffffffffffffffffffffffffffffffffffffff1673ffffffffffffffffffffffffffffffffffffffff1663893d20e86040518163ffffffff167c0100000000000000000000000000000000000000000000000000000000028152600401602060405180830381600087803b1515612cf257600080fd5b5af11515612cff57600080fd5b5050506040518051905073ffffffffffffffffffffffffffffffffffffffff16141515612d2b57600080fd5b6000809054906101000a900473ffffffffffffffffffffffffffffffffffffffff1673ffffffffffffffffffffffffffffffffffffffff166370a08231336040518263ffffffff167c0100000000000000000000000000000000000000000000000000000000028152600401808273ffffffffffffffffffffffffffffffffffffffff1673ffffffffffffffffffffffffffffffffffffffff168152602001915050602060405180830381600087803b1515612de657600080fd5b5af11515612df357600080fd5b505050604051805190509050600081111515612e0e57600080fd5b6000600d60003373ffffffffffffffffffffffffffffffffffffffff1673ffffffffffffffffffffffffffffffffffffffff16815260200190815260200160002060000154141515612e5f57600080fd5b80600d60003373ffffffffffffffffffffffffffffffffffffffff1673ffffffffffffffffffffffffffffffffffffffff1681526020019081526020016000206000018190555080600d60003373ffffffffffffffffffffffffffffffffffffffff1673ffffffffffffffffffffffffffffffffffffffff168152602001908152602001600020600201819055506000809054906101000a900473ffffffffffffffffffffffffffffffffffffffff1673ffffffffffffffffffffffffffffffffffffffff1663bf120ae53360016040518363ffffffff167c0100000000000000000000000000000000000000000000000000000000028152600401808373ffffffffffffffffffffffffffffffffffffffff1673ffffffffffffffffffffffffffffffffffffffff1681526020018215151515815260200192505050602060405180830381600087803b1515612fb557600080fd5b5af11515612fc257600080fd5b505050604051805190505050565b6000806000612fde3361351a565b1515612fe957600080fd5b3073ffffffffffffffffffffffffffffffffffffffff166000809054906101000a900473ffffffffffffffffffffffffffffffffffffffff1673ffffffffffffffffffffffffffffffffffffffff1663893d20e86040518163ffffffff167c0100000000000000000000000000000000000000000000000000000000028152600401602060405180830381600087803b151561308457600080fd5b5af1151561309157600080fd5b5050506040518051905073ffffffffffffffffffffffffffffffffffffffff161415156130bd57600080fd5b6000600b60003373ffffffffffffffffffffffffffffffffffffffff1673ffffffffffffffffffffffffffffffffffffffff168152602001908152602001600020600101541415151561310f57600080fd5b600260008154809291906001019190505550600c600060025481526020019081526020016000209150338260020160006101000a81548173ffffffffffffffffffffffffffffffffffffffff021916908373ffffffffffffffffffffffffffffffffffffffff160217905550328260000160006101000a81548173ffffffffffffffffffffffffffffffffffffffff021916908373ffffffffffffffffffffffffffffffffffffffff160217905550858260010160006101000a81548173ffffffffffffffffffffffffffffffffffffffff021916908373ffffffffffffffffffffffffffffffffffffffff160217905550438260030181905550600b60003373ffffffffffffffffffffffffffffffffffffffff1673ffffffffffffffffffffffffffffffffffffffff1681526020019081526020016000206001015482600b018190555081600601600081548110151561326757fe5b906000526020600020906002020190508481600001908051906020019061328f929190613568565b50328160010160006101000a81548173ffffffffffffffffffffffffffffffffffffffff021916908373ffffffffffffffffffffffffffffffffffffffff160217905550838260050190805190602001906132eb929190613568565b5060008260040160006101000a81548160ff0219169083600381111561330d57fe5b02179055507f67c5c7a990f9f7edc7e62c6f4a8292e29ef238e69af4a0a4b7ff90307f6b716b32873343888a604051808773ffffffffffffffffffffffffffffffffffffffff1673ffffffffffffffffffffffffffffffffffffffff1681526020018673ffffffffffffffffffffffffffffffffffffffff1673ffffffffffffffffffffffffffffffffffffffff1681526020018573ffffffffffffffffffffffffffffffffffffffff1673ffffffffffffffffffffffffffffffffffffffff1681526020018481526020018060200180602001838103835285818151815260200191508051906020019080838360005b838110156134195780820151818401526020810190506133fe565b50505050905090810190601f1680156134465780820380516001836020036101000a031916815260200191505b50838103825284818151815260200191508051906020019080838360005b8381101561347f578082015181840152602081019050613464565b50505050905090810190601f1680156134ac5780820380516001836020036101000a031916815260200191505b509850505050505050505060405180910390a1600254925050509392505050565b60008282111515156134db57fe5b818303905092915050565b600081838115156134f357fe5b04905092915050565b600080828401905083811015151561351057fe5b8091505092915050565b600080823b905060008111915050919050565b60008060008414156135425760009150613561565b828402905082848281151561355357fe5b0414151561355d57fe5b8091505b5092915050565b828054600181600116156101000203166002900490600052602060002090601f016020900481019282601f106135a957805160ff19168380011785556135d7565b828001600101855582156135d7579182015b828111156135d65782518255916020019190600101906135bb565b5b5090506135e491906135e8565b5090565b61360a91905b808211156136065760008160009055506001016135ee565b5090565b905600a165627a7a723058202d109ad359b91b6aa5758c5fdebd69e0fc14d72ca0f66f12e09fc3940f60e3810029",
  "source": "pragma solidity ^0.4.18;\n\nimport \"./TokenInterface.sol\";\nimport \"./ClientInterface.sol\";\nimport \"./SafeMath.sol\";\n\ncontract DCArbitration {\n    using SafeMath for uint256;\n    DCTInterface DCToken;\n\n    /*\n        Variables\n    */\n\n    uint256 round;\n    uint256 caseCounter;\n    uint256 RoundReward;\n    uint256 roundsPerHalving;\n    uint256 votingPeriod;\n    uint256 unlockingPeriod;\n    uint256 minTrialPeriod;\n    uint256 roundWeight;\n    uint256 blocksPerRound;\n    uint256 genesisBlock;\n\n    /*\n        structs\n    */\n    struct Client{\n        bytes32 ToA;\n        uint256 trialDuration;\n        string URL;\n    }\n    struct Case{\n        address accuser;\n        address defendant;\n        address client;\n        uint256 block;\n        phase _phase;\n        string title;\n        evidence[] _evidence;\n        uint256 voteWeight;\n        uint256 ayes;\n        uint256 nayes;\n        uint256 round;\n        uint256 trialDuration;\n        bool decided;\n        bool verdict;\n    }\n    struct evidence{\n        string body;\n        address author;\n    }\n\n    struct juror{\n        uint256 deposit;\n        uint256 round;\n        uint256 remaining;\n        uint256 activeCases;\n        uint256 caseCount;\n        uint256[] cases;\n    }\n\n    struct Vote{\n        bytes32 _hash;\n        uint256 amount;\n        string nonce;\n        bool decision;\n        bool unlocked;\n        bool claimed; //Rewarded or penalized.\n    }\n\n    struct Round{\n        uint256 roundWeight;\n        uint256 caseCount;\n    }\n    /*\n        modifiers\n\n    */\n\n    modifier onlyWhenOwner(){\n         require(DCToken.getOwner() == address(this));\n        _;\n    }\n\n    modifier onlyContract(){\n        require(isContract(msg.sender));\n        _;\n    }\n    modifier onlyCaseParty(uint256 _caseID){\n        require(cases[_caseID].defendant == msg.sender || cases[_caseID].accuser == msg.sender);\n        _;\n    }\n    modifier onlyJuror(){\n        require(jurors[msg.sender].round.add(2) <= round);\n        _;\n    }\n\n    /*\n        Enumerators\n    */\n    enum phase {\n        TRIAL,\n        VOTING,\n        UNLOCKING,\n        FINAL\n    }\n\n\n    /*\n        mappings\n    */\n    mapping (address => Client) clients;\n    mapping(uint256 => Case) cases;\n    mapping (address => juror) jurors;\n    mapping (uint256 => Round) rounds;\n    mapping (address => mapping(uint256 => Vote)) votes;\n    /*\n        events\n    */\n    event Registration(address indexed addr, bytes32 ToA, uint256 trialDuration, string URL);\n    event newCase(address accuser,\n        address defendant,\n        address client,\n        uint256 block,\n        string title,\n        string statement\n        );\n    event newEvidence(string body, address author, uint256 caseID);\n\n    /*\n        Functions\n    */\n\n    function DCArbitration(address DCTAddress, uint256 _votingPeriod, uint256 _minTrialPeriod, uint256 _roundReward,  uint256 _blocksPerRound, uint256 _roundsPerHalving) public{\n        DCToken = DCTInterface(DCTAddress);\n        votingPeriod = _votingPeriod;\n        minTrialPeriod = _minTrialPeriod;\n        RoundReward = _roundReward;\n        blocksPerRound = _blocksPerRound;\n        roundsPerHalving = _roundsPerHalving;\n        genesisBlock = block.number;\n    }\n    function register(bytes32 _ToA, uint256 _trialDuration, string _URL) onlyContract onlyWhenOwner public returns(bool){\n        require(_trialDuration >= minTrialPeriod);\n        require(clients[msg.sender].trialDuration == 0);\n        clients[msg.sender].ToA = _ToA;\n        clients[msg.sender].trialDuration = _trialDuration;\n        clients[msg.sender].URL = _URL;\n        emit Registration(msg.sender, _ToA, _trialDuration, _URL);\n        return true;\n    }\n\n    function fileCase(address _defendant, string _statement, string _title) public onlyContract onlyWhenOwner returns(uint256){\n        require(clients[msg.sender].trialDuration != 0);\n        caseCounter++;\n        Case storage filedCase = cases[caseCounter];\n        filedCase.client = msg.sender;\n        filedCase.accuser = tx.origin;\n        filedCase.defendant = _defendant;\n        filedCase.block = block.number;\n        filedCase.trialDuration = clients[msg.sender].trialDuration;\n        evidence storage _evidence = filedCase._evidence[0];\n        _evidence.body = _statement;\n        _evidence.author = tx.origin;\n        filedCase.title = _title;\n        filedCase._phase = phase.TRIAL;\n        emit newCase(tx.origin,\n        _defendant,\n        msg.sender,\n        block.number,\n        _title,\n        _statement\n        );\n        return caseCounter;\n    }\n\n    function deposit() onlyWhenOwner public{\n        uint256 balance = DCToken.balanceOf(msg.sender);\n        require(balance > 0);\n        require(jurors[msg.sender].deposit == 0);\n        jurors[msg.sender].deposit = balance;\n        jurors[msg.sender].remaining = balance;\n        DCToken.freeze(msg.sender, true);\n    }\n\n    function withdraw() onlyJuror onlyWhenOwner public{\n        require(jurors[msg.sender].activeCases == 0);\n        DCToken.freeze(msg.sender, false);\n    }\n    function getVoteWeight(uint256 _caseID) public view returns(uint256){\n      return cases[_caseID].voteWeight;\n    }\n    function generateHash(string nonce, bool decision) public pure returns(bytes32){\n        uint8 dec;\n        if(decision == true)\n            dec = 1;\n        else\n            dec = 0;\n        return keccak256(dec,nonce);\n    }\n\n    function vote(uint256 _caseID, bytes32 hash, uint256 _amount) onlyJuror onlyWhenOwner public returns(uint256){\n        require((block.number >= cases[_caseID].block + clients[cases[_caseID].client].trialDuration) && block.number < cases[_caseID].block + clients[cases[_caseID].client].trialDuration + votingPeriod);\n\n        require(votes[msg.sender][_caseID].amount == 0);\n        require(jurors[msg.sender].remaining.sub(_amount) >= 0 );\n        jurors[msg.sender].remaining = jurors[msg.sender].remaining.sub(_amount);\n\n        votes[msg.sender][_caseID].amount = _amount;\n        votes[msg.sender][_caseID]._hash = hash;\n        cases[_caseID].voteWeight = cases[_caseID].voteWeight.add(_amount);\n        if(cases[_caseID]._phase != phase.VOTING){\n           cases[_caseID]._phase = phase.VOTING;\n        }\n        jurors[msg.sender].activeCases = jurors[msg.sender].activeCases.add(1);\n        return _caseID;\n    }\n    function unlock(bool decision, string nonce, uint256 _caseID) onlyJuror public returns(bool){\n        require(votes[msg.sender][_caseID].amount > 0);\n        require((block.number >= cases[_caseID].block + clients[cases[_caseID].client].trialDuration + votingPeriod) && (block.number < cases[_caseID].block + clients[cases[_caseID].client].trialDuration + votingPeriod + unlockingPeriod));\n        require(votes[msg.sender][_caseID].unlocked == false);\n        uint8 dec;\n        if(decision == true){\n            dec = 1;\n        }else{\n            dec = 0;\n        }\n        bytes32 _hash = keccak256(dec,nonce);\n        require(_hash == votes[msg.sender][_caseID]._hash);\n        jurors[msg.sender].caseCount = jurors[msg.sender].caseCount.add(1);\n        jurors[msg.sender].cases[jurors[msg.sender].caseCount] = _caseID;\n        if(decision == true){\n            cases[_caseID].ayes = cases[_caseID].ayes.add(votes[msg.sender][_caseID].amount);\n        }else{\n            cases[_caseID].nayes = cases[_caseID].nayes.add(votes[msg.sender][_caseID].amount);\n        }\n        votes[msg.sender][_caseID].unlocked = true;\n        votes[msg.sender][_caseID].nonce = nonce;\n        votes[msg.sender][_caseID].decision = decision;\n        jurors[msg.sender].activeCases = jurors[msg.sender].activeCases.sub(1);\n        return true;\n    }\n    function finalize(uint256 _caseID) public onlyWhenOwner returns(bool){\n         require(block.number > cases[_caseID].block + clients[cases[_caseID].client].trialDuration + votingPeriod + unlockingPeriod);\n         require(cases[_caseID].decided == false);\n         bool verdict = cases[_caseID].ayes > cases[_caseID].nayes;\n         ClientContract cc = ClientContract(cases[_caseID].client);\n         cc.onVerdict(_caseID, verdict);\n         cases[_caseID].decided = true;\n         cases[_caseID].verdict = verdict;\n         rounds[(block.number.sub(genesisBlock)).div(blocksPerRound)].roundWeight = rounds[(block.number.sub(genesisBlock)).div(blocksPerRound)].roundWeight.add(cases[_caseID].voteWeight);\n         rounds[(block.number.sub(genesisBlock)).div(blocksPerRound)].caseCount = rounds[(block.number.sub(genesisBlock)).div(blocksPerRound)].caseCount.add(1);\n        //  rounds[(block.number.sub(genesisBlock)).div(blocksPerRound)].roundWeight = roundWeights[(block.number.sub(genesisBlock)).roundWeight.div(blocksPerRound)].add(cases[_caseID].voteWeight);\n         cases[_caseID].round = (block.number.sub(genesisBlock)).div(blocksPerRound);\n         return verdict;\n    }\n    function claimReward() public onlyJuror onlyWhenOwner returns(bool){ // optional iterations argument\n        require(jurors[msg.sender].caseCount > 0); // activeCases >> caseCount\n        uint256 NCases = jurors[msg.sender].caseCount;\n        uint256 currentRound = uint((block.number.sub(genesisBlock)).div(blocksPerRound));\n        int256 Claimed;\n        uint256 one = 1;\n        for(uint256 i=1; i <= NCases; i++){\n            uint256 individualRR;\n            if(/* cases[jurors[msg.sender].cases[i]].decided == false || */ cases[jurors[msg.sender].cases[i]].round == currentRound) continue;\n            // uint256 tokenShare = ;\n            uint256 halvings = (cases[jurors[msg.sender].cases[i]].round / roundsPerHalving);\n            individualRR = (one.div(2**halvings)).mul(RoundReward);\n            if(cases[jurors[msg.sender].cases[i]].verdict == votes[msg.sender][jurors[msg.sender].cases[i]].decision){\n                Claimed += int(votes[msg.sender][jurors[msg.sender].cases[i]].amount * (1/rounds[currentRound].caseCount) * individualRR);\n                // DCToken.mint(msg.sender, Claimed);\n            }else{ //75% threshold?\n                Claimed -= int(votes[msg.sender][jurors[msg.sender].cases[i]].amount * (1/rounds[currentRound].caseCount) * individualRR);\n            }\n        }\n        if(Claimed > 0 ){\n            DCToken.mint(msg.sender, uint256(Claimed));\n        }else if(Claimed < 0){\n            DCToken.burn(msg.sender, uint256(Claimed));\n        }\n        //Remove cases from array\n    }\n\n    function addEvidence(uint256 _caseID, string _body) public onlyWhenOwner onlyCaseParty(_caseID) returns (uint256){\n        require(cases[_caseID].client != address(0));\n        require(block.number < cases[_caseID].block + clients[cases[_caseID].client].trialDuration);\n        uint256 evidenceLength = cases[_caseID]._evidence.length;\n        evidenceLength++;\n        evidence storage _evidence = cases[_caseID]._evidence[evidenceLength];\n        _evidence.body = _body;\n        _evidence.author = msg.sender;\n        emit newEvidence(_body, msg.sender, _caseID);\n        return evidenceLength;\n    }\n    function burnAll(address _addr){\n      DCToken.burnAll(_addr);\n    }\n    function burn(address _addr, uint256 qty){\n      DCToken.burn(_addr, qty);\n    }\n    /*\n    utils\n    */\n    function isContract(address addr) private view returns (bool) {\n        uint size;\n        assembly {\n            size := extcodesize(addr)\n        }\n        return size > 0;\n    }\n\n}\n",
  "sourcePath": "/home/ihab/newDCourt/Dcourt/contracts/Arbitration/Arbitration.sol",
  "compiler": {
    "name": "solc",
    "version": "0.4.21+commit.dfe3193c.Emscripten.clang"
  },
  "schemaVersion": "2.0.0",
  "updatedAt": "2018-04-18T23:04:46.755Z"
}