{
  "contractName": "DCT",
  "abi": [
    {
      "constant": true,
      "inputs": [],
      "name": "name",
      "outputs": [
        {
          "name": "",
          "type": "string"
        }
      ],
      "payable": false,
      "stateMutability": "view",
      "type": "function"
    },
    {
      "constant": true,
      "inputs": [],
      "name": "totalSupply",
      "outputs": [
        {
          "name": "",
          "type": "uint256"
        }
      ],
      "payable": false,
      "stateMutability": "view",
      "type": "function"
    },
    {
      "constant": true,
      "inputs": [
        {
          "name": "",
          "type": "address"
        }
      ],
      "name": "balances",
      "outputs": [
        {
          "name": "",
          "type": "uint256"
        }
      ],
      "payable": false,
      "stateMutability": "view",
      "type": "function"
    },
    {
      "constant": true,
      "inputs": [],
      "name": "decimals",
      "outputs": [
        {
          "name": "",
          "type": "uint8"
        }
      ],
      "payable": false,
      "stateMutability": "view",
      "type": "function"
    },
    {
      "constant": true,
      "inputs": [
        {
          "name": "",
          "type": "bytes32"
        }
      ],
      "name": "relayed",
      "outputs": [
        {
          "name": "",
          "type": "bool"
        }
      ],
      "payable": false,
      "stateMutability": "view",
      "type": "function"
    },
    {
      "constant": true,
      "inputs": [
        {
          "name": "",
          "type": "address"
        },
        {
          "name": "",
          "type": "address"
        }
      ],
      "name": "allowed",
      "outputs": [
        {
          "name": "",
          "type": "uint256"
        }
      ],
      "payable": false,
      "stateMutability": "view",
      "type": "function"
    },
    {
      "constant": true,
      "inputs": [],
      "name": "symbol",
      "outputs": [
        {
          "name": "",
          "type": "string"
        }
      ],
      "payable": false,
      "stateMutability": "view",
      "type": "function"
    },
    {
      "inputs": [],
      "payable": false,
      "stateMutability": "nonpayable",
      "type": "constructor"
    },
    {
      "anonymous": false,
      "inputs": [
        {
          "indexed": true,
          "name": "_from",
          "type": "address"
        },
        {
          "indexed": true,
          "name": "_to",
          "type": "address"
        },
        {
          "indexed": false,
          "name": "_value",
          "type": "uint256"
        }
      ],
      "name": "Transfer",
      "type": "event"
    },
    {
      "anonymous": false,
      "inputs": [
        {
          "indexed": true,
          "name": "_owner",
          "type": "address"
        },
        {
          "indexed": true,
          "name": "_spender",
          "type": "address"
        },
        {
          "indexed": false,
          "name": "_value",
          "type": "uint256"
        }
      ],
      "name": "Approval",
      "type": "event"
    },
    {
      "constant": false,
      "inputs": [
        {
          "name": "_to",
          "type": "address"
        },
        {
          "name": "_value",
          "type": "uint256"
        }
      ],
      "name": "transfer",
      "outputs": [
        {
          "name": "success",
          "type": "bool"
        }
      ],
      "payable": false,
      "stateMutability": "nonpayable",
      "type": "function"
    },
    {
      "constant": false,
      "inputs": [
        {
          "name": "_from",
          "type": "address"
        },
        {
          "name": "_to",
          "type": "address"
        },
        {
          "name": "_value",
          "type": "uint256"
        }
      ],
      "name": "transferFrom",
      "outputs": [
        {
          "name": "success",
          "type": "bool"
        }
      ],
      "payable": false,
      "stateMutability": "nonpayable",
      "type": "function"
    },
    {
      "constant": true,
      "inputs": [
        {
          "name": "_owner",
          "type": "address"
        }
      ],
      "name": "balanceOf",
      "outputs": [
        {
          "name": "balance",
          "type": "uint256"
        }
      ],
      "payable": false,
      "stateMutability": "view",
      "type": "function"
    },
    {
      "constant": false,
      "inputs": [
        {
          "name": "_spender",
          "type": "address"
        },
        {
          "name": "_value",
          "type": "uint256"
        }
      ],
      "name": "approve",
      "outputs": [
        {
          "name": "success",
          "type": "bool"
        }
      ],
      "payable": false,
      "stateMutability": "nonpayable",
      "type": "function"
    },
    {
      "constant": true,
      "inputs": [
        {
          "name": "_owner",
          "type": "address"
        },
        {
          "name": "_spender",
          "type": "address"
        }
      ],
      "name": "allowance",
      "outputs": [
        {
          "name": "remaining",
          "type": "uint256"
        }
      ],
      "payable": false,
      "stateMutability": "view",
      "type": "function"
    },
    {
      "constant": false,
      "inputs": [
        {
          "name": "_to",
          "type": "address"
        },
        {
          "name": "_value",
          "type": "uint256"
        }
      ],
      "name": "mint",
      "outputs": [
        {
          "name": "success",
          "type": "bool"
        }
      ],
      "payable": false,
      "stateMutability": "nonpayable",
      "type": "function"
    },
    {
      "constant": false,
      "inputs": [
        {
          "name": "_to",
          "type": "address"
        }
      ],
      "name": "changeMinter",
      "outputs": [
        {
          "name": "success",
          "type": "bool"
        }
      ],
      "payable": false,
      "stateMutability": "nonpayable",
      "type": "function"
    },
    {
      "constant": false,
      "inputs": [
        {
          "name": "_value",
          "type": "bool"
        }
      ],
      "name": "freeze",
      "outputs": [
        {
          "name": "success",
          "type": "bool"
        }
      ],
      "payable": false,
      "stateMutability": "nonpayable",
      "type": "function"
    },
    {
      "constant": false,
      "inputs": [
        {
          "name": "_from",
          "type": "address"
        },
        {
          "name": "_to",
          "type": "address"
        },
        {
          "name": "_value",
          "type": "uint256"
        },
        {
          "name": "_fee",
          "type": "uint256"
        },
        {
          "name": "_timeout",
          "type": "uint256"
        },
        {
          "name": "v",
          "type": "uint8"
        },
        {
          "name": "r",
          "type": "bytes32"
        },
        {
          "name": "s",
          "type": "bytes32"
        }
      ],
      "name": "relayTransfer",
      "outputs": [
        {
          "name": "success",
          "type": "bool"
        }
      ],
      "payable": false,
      "stateMutability": "nonpayable",
      "type": "function"
    }
  ],
  "bytecode": "0x60606040526040805190810160405280600681526020017f44636f757274000000000000000000000000000000000000000000000000000081525060039080519060200190620000519291906200012a565b506012600460006101000a81548160ff021916908360ff1602179055506040805190810160405280600381526020017f444354000000000000000000000000000000000000000000000000000000000081525060059080519060200190620000bb9291906200012a565b506001600760146101000a81548160ff0219169083151502179055503415620000e357600080fd5b33600760006101000a81548173ffffffffffffffffffffffffffffffffffffffff021916908373ffffffffffffffffffffffffffffffffffffffff160217905550620001d9565b828054600181600116156101000203166002900490600052602060002090601f016020900481019282601f106200016d57805160ff19168380011785556200019e565b828001600101855582156200019e579182015b828111156200019d57825182559160200191906001019062000180565b5b509050620001ad9190620001b1565b5090565b620001d691905b80821115620001d2576000816000905550600101620001b8565b5090565b90565b6115a980620001e96000396000f3006060604052600436106100e6576000357c0100000000000000000000000000000000000000000000000000000000900463ffffffff16806306fdde03146100eb578063095ea7b31461017957806318160ddd146101d357806323b872dd146101fc57806327e235e3146102755780632c4d4d18146102c2578063313ce567146103135780633f82495d1461034257806340c10f191461038157806351144533146103db5780635c6581651461048c57806370a08231146104f857806395d89b4114610545578063a9059cbb146105d3578063b5bf15e51461062d578063dd62ed3e1461066a575b600080fd5b34156100f657600080fd5b6100fe6106d6565b6040518080602001828103825283818151815260200191508051906020019080838360005b8381101561013e578082015181840152602081019050610123565b50505050905090810190601f16801561016b5780820380516001836020036101000a031916815260200191505b509250505060405180910390f35b341561018457600080fd5b6101b9600480803573ffffffffffffffffffffffffffffffffffffffff16906020019091908035906020019091905050610774565b604051808215151515815260200191505060405180910390f35b34156101de57600080fd5b6101e6610866565b6040518082815260200191505060405180910390f35b341561020757600080fd5b61025b600480803573ffffffffffffffffffffffffffffffffffffffff1690602001909190803573ffffffffffffffffffffffffffffffffffffffff1690602001909190803590602001909190505061086c565b604051808215151515815260200191505060405180910390f35b341561028057600080fd5b6102ac600480803573ffffffffffffffffffffffffffffffffffffffff16906020019091905050610b7c565b6040518082815260200191505060405180910390f35b34156102cd57600080fd5b6102f9600480803573ffffffffffffffffffffffffffffffffffffffff16906020019091905050610b94565b604051808215151515815260200191505060405180910390f35b341561031e57600080fd5b610326610c3c565b604051808260ff1660ff16815260200191505060405180910390f35b341561034d57600080fd5b610367600480803560001916906020019091905050610c4f565b604051808215151515815260200191505060405180910390f35b341561038c57600080fd5b6103c1600480803573ffffffffffffffffffffffffffffffffffffffff16906020019091908035906020019091905050610c6f565b604051808215151515815260200191505060405180910390f35b34156103e657600080fd5b610472600480803573ffffffffffffffffffffffffffffffffffffffff1690602001909190803573ffffffffffffffffffffffffffffffffffffffff1690602001909190803590602001909190803590602001909190803590602001909190803560ff169060200190919080356000191690602001909190803560001916906020019091905050610d24565b604051808215151515815260200191505060405180910390f35b341561049757600080fd5b6104e2600480803573ffffffffffffffffffffffffffffffffffffffff1690602001909190803573ffffffffffffffffffffffffffffffffffffffff1690602001909190505061119a565b6040518082815260200191505060405180910390f35b341561050357600080fd5b61052f600480803573ffffffffffffffffffffffffffffffffffffffff169060200190919050506111bf565b6040518082815260200191505060405180910390f35b341561055057600080fd5b610558611208565b6040518080602001828103825283818151815260200191508051906020019080838360005b8381101561059857808201518184015260208101905061057d565b50505050905090810190601f1680156105c55780820380516001836020036101000a031916815260200191505b509250505060405180910390f35b34156105de57600080fd5b610613600480803573ffffffffffffffffffffffffffffffffffffffff169060200190919080359060200190919050506112a6565b604051808215151515815260200191505060405180910390f35b341561063857600080fd5b61065060048080351515906020019091905050611475565b604051808215151515815260200191505060405180910390f35b341561067557600080fd5b6106c0600480803573ffffffffffffffffffffffffffffffffffffffff1690602001909190803573ffffffffffffffffffffffffffffffffffffffff169060200190919050506114f6565b6040518082815260200191505060405180910390f35b60038054600181600116156101000203166002900480601f01602080910402602001604051908101604052809291908181526020018280546001816001161561010002031660029004801561076c5780601f106107415761010080835404028352916020019161076c565b820191906000526020600020905b81548152906001019060200180831161074f57829003601f168201915b505050505081565b600081600260003373ffffffffffffffffffffffffffffffffffffffff1673ffffffffffffffffffffffffffffffffffffffff16815260200190815260200160002060008573ffffffffffffffffffffffffffffffffffffffff1673ffffffffffffffffffffffffffffffffffffffff168152602001908152602001600020819055508273ffffffffffffffffffffffffffffffffffffffff163373ffffffffffffffffffffffffffffffffffffffff167f8c5be1e5ebec7d5bd14f71427d1e84f3dd0314c0f7b2291e5b200ac8c7c3b925846040518082815260200191505060405180910390a36001905092915050565b60065481565b600080600760149054906101000a900460ff161580156108da5750600760009054906101000a900473ffffffffffffffffffffffffffffffffffffffff1673ffffffffffffffffffffffffffffffffffffffff163373ffffffffffffffffffffffffffffffffffffffff1614155b15156108e557600080fd5b600260008673ffffffffffffffffffffffffffffffffffffffff1673ffffffffffffffffffffffffffffffffffffffff16815260200190815260200160002060003373ffffffffffffffffffffffffffffffffffffffff1673ffffffffffffffffffffffffffffffffffffffff16815260200190815260200160002054905082600160008773ffffffffffffffffffffffffffffffffffffffff1673ffffffffffffffffffffffffffffffffffffffff16815260200190815260200160002054101580156109b35750828110155b15156109be57600080fd5b82600160008673ffffffffffffffffffffffffffffffffffffffff1673ffffffffffffffffffffffffffffffffffffffff1681526020019081526020016000206000828254019250508190555082600160008773ffffffffffffffffffffffffffffffffffffffff1673ffffffffffffffffffffffffffffffffffffffff168152602001908152602001600020600082825403925050819055507fffffffffffffffffffffffffffffffffffffffffffffffffffffffffffffffff811015610b0b5782600260008773ffffffffffffffffffffffffffffffffffffffff1673ffffffffffffffffffffffffffffffffffffffff16815260200190815260200160002060003373ffffffffffffffffffffffffffffffffffffffff1673ffffffffffffffffffffffffffffffffffffffff168152602001908152602001600020600082825403925050819055505b8373ffffffffffffffffffffffffffffffffffffffff168573ffffffffffffffffffffffffffffffffffffffff167fddf252ad1be2c89b69c2b068fc378daa952ba7f163c4a11628f55a4df523b3ef856040518082815260200191505060405180910390a360019150509392505050565b60016020528060005260406000206000915090505481565b6000600760009054906101000a900473ffffffffffffffffffffffffffffffffffffffff1673ffffffffffffffffffffffffffffffffffffffff163373ffffffffffffffffffffffffffffffffffffffff16141515610bf257600080fd5b81600760006101000a81548173ffffffffffffffffffffffffffffffffffffffff021916908373ffffffffffffffffffffffffffffffffffffffff16021790555060019050919050565b600460009054906101000a900460ff1681565b60086020528060005260406000206000915054906101000a900460ff1681565b6000600760009054906101000a900473ffffffffffffffffffffffffffffffffffffffff1673ffffffffffffffffffffffffffffffffffffffff163373ffffffffffffffffffffffffffffffffffffffff16141515610ccd57600080fd5b81600160008573ffffffffffffffffffffffffffffffffffffffff1673ffffffffffffffffffffffffffffffffffffffff168152602001908152602001600020600082825401925050819055506001905092915050565b600080600760149054906101000a900460ff16158015610d925750600760009054906101000a900473ffffffffffffffffffffffffffffffffffffffff1673ffffffffffffffffffffffffffffffffffffffff163373ffffffffffffffffffffffffffffffffffffffff1614155b1515610d9d57600080fd5b868801600160008c73ffffffffffffffffffffffffffffffffffffffff1673ffffffffffffffffffffffffffffffffffffffff1681526020019081526020016000205410158015610ded57508542105b1515610df857600080fd5b8989898989604051808673ffffffffffffffffffffffffffffffffffffffff1673ffffffffffffffffffffffffffffffffffffffff166c010000000000000000000000000281526014018573ffffffffffffffffffffffffffffffffffffffff1673ffffffffffffffffffffffffffffffffffffffff166c0100000000000000000000000002815260140184815260200183815260200182815260200195505050505050604051809103902090506001151560086000836000191660001916815260200190815260200160002060009054906101000a900460ff16151514151515610ee257600080fd5b8973ffffffffffffffffffffffffffffffffffffffff16600182878787604051600081526020016040526000604051602001526040518085600019166000191681526020018460ff1660ff16815260200183600019166000191681526020018260001916600019168152602001945050505050602060405160208103908084039060008661646e5a03f11515610f7757600080fd5b50506020604051035173ffffffffffffffffffffffffffffffffffffffff16141515610fa257600080fd5b868801600160008c73ffffffffffffffffffffffffffffffffffffffff1673ffffffffffffffffffffffffffffffffffffffff1681526020019081526020016000206000828254039250508190555087600160008b73ffffffffffffffffffffffffffffffffffffffff1673ffffffffffffffffffffffffffffffffffffffff1681526020019081526020016000206000828254019250508190555086600160003373ffffffffffffffffffffffffffffffffffffffff1673ffffffffffffffffffffffffffffffffffffffff168152602001908152602001600020600082825401925050819055508873ffffffffffffffffffffffffffffffffffffffff168a73ffffffffffffffffffffffffffffffffffffffff167fddf252ad1be2c89b69c2b068fc378daa952ba7f163c4a11628f55a4df523b3ef8a6040518082815260200191505060405180910390a33373ffffffffffffffffffffffffffffffffffffffff168a73ffffffffffffffffffffffffffffffffffffffff167fddf252ad1be2c89b69c2b068fc378daa952ba7f163c4a11628f55a4df523b3ef896040518082815260200191505060405180910390a3600160086000836000191660001916815260200190815260200160002060006101000a81548160ff021916908315150217905550600191505098975050505050505050565b6002602052816000526040600020602052806000526040600020600091509150505481565b6000600160008373ffffffffffffffffffffffffffffffffffffffff1673ffffffffffffffffffffffffffffffffffffffff168152602001908152602001600020549050919050565b60058054600181600116156101000203166002900480601f01602080910402602001604051908101604052809291908181526020018280546001816001161561010002031660029004801561129e5780601f106112735761010080835404028352916020019161129e565b820191906000526020600020905b81548152906001019060200180831161128157829003601f168201915b505050505081565b6000600760149054906101000a900460ff161580156113135750600760009054906101000a900473ffffffffffffffffffffffffffffffffffffffff1673ffffffffffffffffffffffffffffffffffffffff163373ffffffffffffffffffffffffffffffffffffffff1614155b151561131e57600080fd5b81600160003373ffffffffffffffffffffffffffffffffffffffff1673ffffffffffffffffffffffffffffffffffffffff168152602001908152602001600020541015151561136c57600080fd5b81600160003373ffffffffffffffffffffffffffffffffffffffff1673ffffffffffffffffffffffffffffffffffffffff1681526020019081526020016000206000828254039250508190555081600160008573ffffffffffffffffffffffffffffffffffffffff1673ffffffffffffffffffffffffffffffffffffffff168152602001908152602001600020600082825401925050819055508273ffffffffffffffffffffffffffffffffffffffff163373ffffffffffffffffffffffffffffffffffffffff167fddf252ad1be2c89b69c2b068fc378daa952ba7f163c4a11628f55a4df523b3ef846040518082815260200191505060405180910390a36001905092915050565b6000600760009054906101000a900473ffffffffffffffffffffffffffffffffffffffff1673ffffffffffffffffffffffffffffffffffffffff163373ffffffffffffffffffffffffffffffffffffffff161415156114d357600080fd5b81600760146101000a81548160ff02191690831515021790555060019050919050565b6000600260008473ffffffffffffffffffffffffffffffffffffffff1673ffffffffffffffffffffffffffffffffffffffff16815260200190815260200160002060008373ffffffffffffffffffffffffffffffffffffffff1673ffffffffffffffffffffffffffffffffffffffff168152602001908152602001600020549050929150505600a165627a7a72305820643755a581dec893102239654516f419dcf69eedca497ce4bd150a50414340010029",
  "source": "pragma solidity ^0.4.18;\n\ncontract EIP20Interface {\n\n    uint256 public totalSupply;\n\n    function balanceOf(address _owner) public view returns (uint256 balance);\n    function transfer(address _to, uint256 _value) public returns (bool success);\n    function transferFrom(address _from, address _to, uint256 _value) public returns (bool success);\n    function approve(address _spender, uint256 _value) public returns (bool success);\n    function allowance(address _owner, address _spender) public view returns (uint256 remaining);\n\n    event Transfer(address indexed _from, address indexed _to, uint256 _value); \n    event Approval(address indexed _owner, address indexed _spender, uint256 _value);\n}\n\ncontract DCT is EIP20Interface {\n\n    // Token\n    mapping (address => uint256) public balances;\n    mapping (address => mapping (address => uint256)) public allowed;\n\n    uint256 constant private MAX_UINT256 = 2**256 - 1;\n    string public name = \"Dcourt\";\n    uint8 public decimals = 18;\n    string public symbol = \"DCT\";\n    uint256 public totalSupply;\n    address private minter;\n    bool private frozen = true;\n    \n    //Functions\n    function DCT() public {\n        minter = msg.sender;\n    }\n\n    function transfer(address _to, uint256 _value) public returns (bool success) {\n        require(!frozen && msg.sender != minter);\n        require(balances[msg.sender] >= _value);\n        balances[msg.sender] -= _value;\n        balances[_to] += _value;\n        Transfer(msg.sender, _to, _value);\n        return true;\n    }\n\n    function transferFrom(address _from, address _to, uint256 _value) public returns (bool success) {\n        require(!frozen && msg.sender != minter);\n        uint256 allowance = allowed[_from][msg.sender];\n        require(balances[_from] >= _value && allowance >= _value);\n        balances[_to] += _value;\n        balances[_from] -= _value;\n        if (allowance < MAX_UINT256) {\n            allowed[_from][msg.sender] -= _value;\n        }\n        Transfer(_from, _to, _value);\n        return true;\n    }\n\n    function balanceOf(address _owner) public view returns (uint256 balance) {\n        return balances[_owner];\n    }\n\n    function approve(address _spender, uint256 _value) public returns (bool success) {\n        allowed[msg.sender][_spender] = _value;\n        Approval(msg.sender, _spender, _value);\n        return true;\n    }\n    \n    function allowance(address _owner, address _spender) public view returns (uint256 remaining) {\n        return allowed[_owner][_spender];\n    }\n    \n    // Only minter\n    \n    mapping (bytes32 => bool) public relayed;\n    \n    modifier onlyMinter(){\n        require(msg.sender == minter);\n        _;\n    }\n    \n    function mint(address _to, uint256 _value) onlyMinter public returns (bool success) {\n        balances[_to] += _value;\n        return true;\n    }\n    \n    function changeMinter(address _to) onlyMinter public returns (bool success) {\n        minter = _to;\n        return true;\n    }\n    \n    function freeze(bool _value) onlyMinter public returns (bool success){\n        frozen = _value;\n        return true;\n    }\n    \n    //Governance\n    //function signal(address _minter) public {\n        //\n    //}\n    \n    //Relayed Functions\n    function relayTransfer(address _from, address _to, uint256 _value, uint256 _fee, uint256 _timeout, uint8 v, bytes32 r, bytes32 s) public returns (bool success) {\n        require(!frozen && msg.sender != minter);\n        require(balances[_from] >= (_value + _fee) && now < _timeout);\n        bytes32 hash = keccak256(_from, _to, _value, _fee, _timeout);\n        require(relayed[hash] != true);\n        require(ecrecover(hash, v, r, s) == _from);\n        balances[_from] -= (_value + _fee);\n        balances[_to] += _value;\n        balances[msg.sender] += _fee;\n        Transfer(_from, _to, _value);\n        Transfer(_from, msg.sender, _fee);\n        relayed[hash] = true;\n        return true;\n    }\n}\n\n",
  "sourcePath": "/home/nour/Documents/Lamarkaz/Dcourt/contracts/DCT.sol",
  "compiler": {
    "name": "solc",
    "version": "0.4.19+commit.c4cbbb05.Emscripten.clang"
  },
  "schemaVersion": "2.0.0",
  "updatedAt": "2018-03-27T11:39:05.775Z"
}