{
  "contractName": "DCT",
  "abi": [
    {
      "constant": true,
      "inputs": [
        {
          "name": "",
          "type": "address"
        }
      ],
      "name": "owners",
      "outputs": [
        {
          "name": "",
          "type": "uint256"
        }
      ],
      "payable": false,
      "stateMutability": "view",
      "type": "function"
    },
    {
      "constant": true,
      "inputs": [],
      "name": "name",
      "outputs": [
        {
          "name": "",
          "type": "string"
        }
      ],
      "payable": false,
      "stateMutability": "view",
      "type": "function"
    },
    {
      "constant": true,
      "inputs": [
        {
          "name": "",
          "type": "address"
        }
      ],
      "name": "balances",
      "outputs": [
        {
          "name": "",
          "type": "uint256"
        }
      ],
      "payable": false,
      "stateMutability": "view",
      "type": "function"
    },
    {
      "constant": true,
      "inputs": [],
      "name": "decimals",
      "outputs": [
        {
          "name": "",
          "type": "uint8"
        }
      ],
      "payable": false,
      "stateMutability": "view",
      "type": "function"
    },
    {
      "constant": false,
      "inputs": [],
      "name": "unpause",
      "outputs": [],
      "payable": false,
      "stateMutability": "nonpayable",
      "type": "function"
    },
    {
      "constant": true,
      "inputs": [
        {
          "name": "",
          "type": "bytes32"
        }
      ],
      "name": "relayed",
      "outputs": [
        {
          "name": "",
          "type": "bool"
        }
      ],
      "payable": false,
      "stateMutability": "view",
      "type": "function"
    },
    {
      "constant": true,
      "inputs": [
        {
          "name": "",
          "type": "address"
        },
        {
          "name": "",
          "type": "address"
        }
      ],
      "name": "allowed",
      "outputs": [
        {
          "name": "",
          "type": "uint256"
        }
      ],
      "payable": false,
      "stateMutability": "view",
      "type": "function"
    },
    {
      "constant": true,
      "inputs": [],
      "name": "paused",
      "outputs": [
        {
          "name": "",
          "type": "bool"
        }
      ],
      "payable": false,
      "stateMutability": "view",
      "type": "function"
    },
    {
      "constant": false,
      "inputs": [],
      "name": "pause",
      "outputs": [],
      "payable": false,
      "stateMutability": "nonpayable",
      "type": "function"
    },
    {
      "constant": true,
      "inputs": [],
      "name": "owner",
      "outputs": [
        {
          "name": "",
          "type": "address"
        }
      ],
      "payable": false,
      "stateMutability": "view",
      "type": "function"
    },
    {
      "constant": true,
      "inputs": [],
      "name": "symbol",
      "outputs": [
        {
          "name": "",
          "type": "string"
        }
      ],
      "payable": false,
      "stateMutability": "view",
      "type": "function"
    },
    {
      "constant": true,
      "inputs": [
        {
          "name": "",
          "type": "address"
        }
      ],
      "name": "voters",
      "outputs": [
        {
          "name": "",
          "type": "address"
        }
      ],
      "payable": false,
      "stateMutability": "view",
      "type": "function"
    },
    {
      "constant": true,
      "inputs": [
        {
          "name": "",
          "type": "address"
        }
      ],
      "name": "frozen",
      "outputs": [
        {
          "name": "",
          "type": "bool"
        }
      ],
      "payable": false,
      "stateMutability": "view",
      "type": "function"
    },
    {
      "constant": true,
      "inputs": [],
      "name": "saleContract",
      "outputs": [
        {
          "name": "",
          "type": "address"
        }
      ],
      "payable": false,
      "stateMutability": "view",
      "type": "function"
    },
    {
      "constant": false,
      "inputs": [
        {
          "name": "newOwner",
          "type": "address"
        }
      ],
      "name": "transferOwnership",
      "outputs": [],
      "payable": false,
      "stateMutability": "nonpayable",
      "type": "function"
    },
    {
      "anonymous": false,
      "inputs": [
        {
          "indexed": true,
          "name": "to",
          "type": "address"
        },
        {
          "indexed": false,
          "name": "amount",
          "type": "uint256"
        }
      ],
      "name": "Mint",
      "type": "event"
    },
    {
      "anonymous": false,
      "inputs": [
        {
          "indexed": false,
          "name": "_voter",
          "type": "address"
        },
        {
          "indexed": false,
          "name": "_owner",
          "type": "address"
        },
        {
          "indexed": false,
          "name": "_amount",
          "type": "uint256"
        }
      ],
      "name": "Signal",
      "type": "event"
    },
    {
      "anonymous": false,
      "inputs": [
        {
          "indexed": false,
          "name": "_owner",
          "type": "address"
        },
        {
          "indexed": false,
          "name": "_votes",
          "type": "uint256"
        }
      ],
      "name": "ElectedOwner",
      "type": "event"
    },
    {
      "anonymous": false,
      "inputs": [],
      "name": "Pause",
      "type": "event"
    },
    {
      "anonymous": false,
      "inputs": [],
      "name": "Unpause",
      "type": "event"
    },
    {
      "anonymous": false,
      "inputs": [
        {
          "indexed": true,
          "name": "previousOwner",
          "type": "address"
        },
        {
          "indexed": true,
          "name": "newOwner",
          "type": "address"
        }
      ],
      "name": "OwnershipTransferred",
      "type": "event"
    },
    {
      "anonymous": false,
      "inputs": [
        {
          "indexed": true,
          "name": "from",
          "type": "address"
        },
        {
          "indexed": true,
          "name": "to",
          "type": "address"
        },
        {
          "indexed": false,
          "name": "value",
          "type": "uint256"
        }
      ],
      "name": "Transfer",
      "type": "event"
    },
    {
      "anonymous": false,
      "inputs": [
        {
          "indexed": true,
          "name": "owner",
          "type": "address"
        },
        {
          "indexed": true,
          "name": "spender",
          "type": "address"
        },
        {
          "indexed": false,
          "name": "value",
          "type": "uint256"
        }
      ],
      "name": "Approval",
      "type": "event"
    },
    {
      "constant": true,
      "inputs": [],
      "name": "totalSupply",
      "outputs": [
        {
          "name": "",
          "type": "uint256"
        }
      ],
      "payable": false,
      "stateMutability": "view",
      "type": "function"
    },
    {
      "constant": true,
      "inputs": [],
      "name": "getOwner",
      "outputs": [
        {
          "name": "",
          "type": "address"
        }
      ],
      "payable": false,
      "stateMutability": "view",
      "type": "function"
    },
    {
      "constant": false,
      "inputs": [
        {
          "name": "_to",
          "type": "address"
        },
        {
          "name": "_value",
          "type": "uint256"
        }
      ],
      "name": "transfer",
      "outputs": [
        {
          "name": "",
          "type": "bool"
        }
      ],
      "payable": false,
      "stateMutability": "nonpayable",
      "type": "function"
    },
    {
      "constant": false,
      "inputs": [
        {
          "name": "_from",
          "type": "address"
        },
        {
          "name": "_to",
          "type": "address"
        },
        {
          "name": "_value",
          "type": "uint256"
        }
      ],
      "name": "transferFrom",
      "outputs": [
        {
          "name": "",
          "type": "bool"
        }
      ],
      "payable": false,
      "stateMutability": "nonpayable",
      "type": "function"
    },
    {
      "constant": true,
      "inputs": [
        {
          "name": "_owner",
          "type": "address"
        }
      ],
      "name": "balanceOf",
      "outputs": [
        {
          "name": "balance",
          "type": "uint256"
        }
      ],
      "payable": false,
      "stateMutability": "view",
      "type": "function"
    },
    {
      "constant": false,
      "inputs": [
        {
          "name": "_spender",
          "type": "address"
        },
        {
          "name": "_value",
          "type": "uint256"
        }
      ],
      "name": "approve",
      "outputs": [
        {
          "name": "",
          "type": "bool"
        }
      ],
      "payable": false,
      "stateMutability": "nonpayable",
      "type": "function"
    },
    {
      "constant": true,
      "inputs": [
        {
          "name": "_owner",
          "type": "address"
        },
        {
          "name": "_spender",
          "type": "address"
        }
      ],
      "name": "allowance",
      "outputs": [
        {
          "name": "",
          "type": "uint256"
        }
      ],
      "payable": false,
      "stateMutability": "view",
      "type": "function"
    },
    {
      "constant": false,
      "inputs": [
        {
          "name": "_contract",
          "type": "address"
        }
      ],
      "name": "setSaleContract",
      "outputs": [],
      "payable": false,
      "stateMutability": "nonpayable",
      "type": "function"
    },
    {
      "constant": false,
      "inputs": [],
      "name": "removeSaleContract",
      "outputs": [],
      "payable": false,
      "stateMutability": "nonpayable",
      "type": "function"
    },
    {
      "constant": false,
      "inputs": [
        {
          "name": "_to",
          "type": "address"
        },
        {
          "name": "_amount",
          "type": "uint256"
        }
      ],
      "name": "mint",
      "outputs": [
        {
          "name": "",
          "type": "bool"
        }
      ],
      "payable": false,
      "stateMutability": "nonpayable",
      "type": "function"
    },
    {
      "constant": false,
      "inputs": [
        {
          "name": "_owner",
          "type": "address"
        }
      ],
      "name": "signal",
      "outputs": [],
      "payable": false,
      "stateMutability": "nonpayable",
      "type": "function"
    },
    {
      "constant": true,
      "inputs": [
        {
          "name": "_owner",
          "type": "address"
        }
      ],
      "name": "ownerPercentage",
      "outputs": [
        {
          "name": "",
          "type": "uint256"
        }
      ],
      "payable": false,
      "stateMutability": "view",
      "type": "function"
    },
    {
      "constant": false,
      "inputs": [
        {
          "name": "_recipient",
          "type": "address"
        },
        {
          "name": "_amount",
          "type": "uint256"
        },
        {
          "name": "_nonce",
          "type": "uint256"
        },
        {
          "name": "sig",
          "type": "bytes"
        }
      ],
      "name": "bounty",
      "outputs": [
        {
          "name": "",
          "type": "bool"
        }
      ],
      "payable": false,
      "stateMutability": "nonpayable",
      "type": "function"
    },
    {
      "constant": false,
      "inputs": [
        {
          "name": "_from",
          "type": "address"
        },
        {
          "name": "_relay",
          "type": "address"
        },
        {
          "name": "_fee",
          "type": "uint256"
        }
      ],
      "name": "relayFee",
      "outputs": [
        {
          "name": "",
          "type": "bool"
        }
      ],
      "payable": false,
      "stateMutability": "nonpayable",
      "type": "function"
    },
    {
      "constant": false,
      "inputs": [
        {
          "name": "_account",
          "type": "address"
        },
        {
          "name": "_value",
          "type": "bool"
        }
      ],
      "name": "freeze",
      "outputs": [
        {
          "name": "",
          "type": "uint256"
        }
      ],
      "payable": false,
      "stateMutability": "nonpayable",
      "type": "function"
    },
    {
      "constant": false,
      "inputs": [
        {
          "name": "_account",
          "type": "address"
        },
        {
          "name": "_amount",
          "type": "uint256"
        }
      ],
      "name": "burn",
      "outputs": [
        {
          "name": "",
          "type": "uint256"
        }
      ],
      "payable": false,
      "stateMutability": "nonpayable",
      "type": "function"
    },
    {
      "constant": false,
      "inputs": [
        {
          "name": "_account",
          "type": "address"
        }
      ],
      "name": "burnAll",
      "outputs": [
        {
          "name": "",
          "type": "bool"
        }
      ],
      "payable": false,
      "stateMutability": "nonpayable",
      "type": "function"
    },
    {
      "constant": false,
      "inputs": [
        {
          "name": "_from",
          "type": "address"
        },
        {
          "name": "_to",
          "type": "address"
        },
        {
          "name": "_value",
          "type": "uint256"
        },
        {
          "name": "_fee",
          "type": "uint256"
        },
        {
          "name": "_timeout",
          "type": "uint256"
        },
        {
          "name": "sig",
          "type": "bytes"
        }
      ],
      "name": "relayTransfer",
      "outputs": [
        {
          "name": "",
          "type": "bool"
        }
      ],
      "payable": false,
      "stateMutability": "nonpayable",
      "type": "function"
    }
  ],
  "bytecode": "0x60606040526001600060146101000a81548160ff0219169083151502179055506040805190810160405280600681526020017f44636f7572740000000000000000000000000000000000000000000000000000815250600390805190602001906200006c9291906200011d565b506012600460006101000a81548160ff021916908360ff1602179055506040805190810160405280600381526020017f444354000000000000000000000000000000000000000000000000000000000081525060059080519060200190620000d69291906200011d565b50336000806101000a81548173ffffffffffffffffffffffffffffffffffffffff021916908373ffffffffffffffffffffffffffffffffffffffff160217905550620001cc565b828054600181600116156101000203166002900490600052602060002090601f016020900481019282601f106200016057805160ff191683800117855562000191565b8280016001018555821562000191579182015b828111156200019057825182559160200191906001019062000173565b5b509050620001a09190620001a4565b5090565b620001c991905b80821115620001c5576000816000905550600101620001ab565b5090565b90565b613ccd80620001dc6000396000f3006060604052600436106101a1576000357c0100000000000000000000000000000000000000000000000000000000900463ffffffff168063022914a7146101a65780630593d244146101f357806306fdde031461022c578063095ea7b3146102ba5780631807ba7f1461031457806318160ddd146103ba57806323b872dd146103e357806327e235e31461045c578063313ce567146104a95780633f4ba83a146104d85780633f82495d146104ed57806340c10f191461052c5780634cd0c96f14610586578063552b836f146105d357806355ebe9e51461060c5780635c658165146106215780635c975abb1461068d57806367954a92146106ba57806370a08231146107885780637e9d2ac1146107d55780638456cb5914610826578063864093811461083b578063893d20e8146108b45780638da5cb5b1461090957806395d89b411461095e5780639dc29fac146109ec578063a3ec138d14610a42578063a9059cbb14610abb578063bf120ae514610b15578063d051665014610b6d578063daf6ca3014610bbe578063dd62ed3e14610c13578063f2fde38b14610c7f575b600080fd5b34156101b157600080fd5b6101dd600480803573ffffffffffffffffffffffffffffffffffffffff16906020019091905050610cb8565b6040518082815260200191505060405180910390f35b34156101fe57600080fd5b61022a600480803573ffffffffffffffffffffffffffffffffffffffff16906020019091905050610cd0565b005b341561023757600080fd5b61023f610d83565b6040518080602001828103825283818151815260200191508051906020019080838360005b8381101561027f578082015181840152602081019050610264565b50505050905090810190601f1680156102ac5780820380516001836020036101000a031916815260200191505b509250505060405180910390f35b34156102c557600080fd5b6102fa600480803573ffffffffffffffffffffffffffffffffffffffff16906020019091908035906020019091905050610e21565b604051808215151515815260200191505060405180910390f35b341561031f57600080fd5b6103a0600480803573ffffffffffffffffffffffffffffffffffffffff1690602001909190803590602001909190803590602001909190803590602001908201803590602001908080601f01602080910402602001604051908101604052809392919081815260200183838082843782019150505050505091905050610f85565b604051808215151515815260200191505060405180910390f35b34156103c557600080fd5b6103cd61103e565b6040518082815260200191505060405180910390f35b34156103ee57600080fd5b610442600480803573ffffffffffffffffffffffffffffffffffffffff1690602001909190803573ffffffffffffffffffffffffffffffffffffffff16906020019091908035906020019091905050611048565b604051808215151515815260200191505060405180910390f35b341561046757600080fd5b610493600480803573ffffffffffffffffffffffffffffffffffffffff169060200190919050506114ed565b6040518082815260200191505060405180910390f35b34156104b457600080fd5b6104bc611505565b604051808260ff1660ff16815260200191505060405180910390f35b34156104e357600080fd5b6104eb611518565b005b34156104f857600080fd5b6105126004808035600019169060200190919050506115d6565b604051808215151515815260200191505060405180910390f35b341561053757600080fd5b61056c600480803573ffffffffffffffffffffffffffffffffffffffff169060200190919080359060200190919050506115f6565b604051808215151515815260200191505060405180910390f35b341561059157600080fd5b6105bd600480803573ffffffffffffffffffffffffffffffffffffffff16906020019091905050611823565b6040518082815260200191505060405180910390f35b34156105de57600080fd5b61060a600480803573ffffffffffffffffffffffffffffffffffffffff169060200190919050506118e6565b005b341561061757600080fd5b61061f611feb565b005b341561062c57600080fd5b610677600480803573ffffffffffffffffffffffffffffffffffffffff1690602001909190803573ffffffffffffffffffffffffffffffffffffffff1690602001909190505061208a565b6040518082815260200191505060405180910390f35b341561069857600080fd5b6106a06120af565b604051808215151515815260200191505060405180910390f35b34156106c557600080fd5b61076e600480803573ffffffffffffffffffffffffffffffffffffffff1690602001909190803573ffffffffffffffffffffffffffffffffffffffff1690602001909190803590602001909190803590602001909190803590602001909190803590602001908201803590602001908080601f016020809104026020016040519081016040528093929190818152602001838380828437820191505050505050919050506120c2565b604051808215151515815260200191505060405180910390f35b341561079357600080fd5b6107bf600480803573ffffffffffffffffffffffffffffffffffffffff1690602001909190505061260d565b6040518082815260200191505060405180910390f35b34156107e057600080fd5b61080c600480803573ffffffffffffffffffffffffffffffffffffffff16906020019091905050612656565b604051808215151515815260200191505060405180910390f35b341561083157600080fd5b610839612821565b005b341561084657600080fd5b61089a600480803573ffffffffffffffffffffffffffffffffffffffff1690602001909190803573ffffffffffffffffffffffffffffffffffffffff169060200190919080359060200190919050506128e1565b604051808215151515815260200191505060405180910390f35b34156108bf57600080fd5b6108c7612b6c565b604051808273ffffffffffffffffffffffffffffffffffffffff1673ffffffffffffffffffffffffffffffffffffffff16815260200191505060405180910390f35b341561091457600080fd5b61091c612b95565b604051808273ffffffffffffffffffffffffffffffffffffffff1673ffffffffffffffffffffffffffffffffffffffff16815260200191505060405180910390f35b341561096957600080fd5b610971612bba565b6040518080602001828103825283818151815260200191508051906020019080838360005b838110156109b1578082015181840152602081019050610996565b50505050905090810190601f1680156109de5780820380516001836020036101000a031916815260200191505b509250505060405180910390f35b34156109f757600080fd5b610a2c600480803573ffffffffffffffffffffffffffffffffffffffff16906020019091908035906020019091905050612c58565b6040518082815260200191505060405180910390f35b3415610a4d57600080fd5b610a79600480803573ffffffffffffffffffffffffffffffffffffffff16906020019091905050612e34565b604051808273ffffffffffffffffffffffffffffffffffffffff1673ffffffffffffffffffffffffffffffffffffffff16815260200191505060405180910390f35b3415610ac657600080fd5b610afb600480803573ffffffffffffffffffffffffffffffffffffffff16906020019091908035906020019091905050612e67565b604051808215151515815260200191505060405180910390f35b3415610b2057600080fd5b610b57600480803573ffffffffffffffffffffffffffffffffffffffff169060200190919080351515906020019091905050613171565b6040518082815260200191505060405180910390f35b3415610b7857600080fd5b610ba4600480803573ffffffffffffffffffffffffffffffffffffffff1690602001909190505061329f565b604051808215151515815260200191505060405180910390f35b3415610bc957600080fd5b610bd16132bf565b604051808273ffffffffffffffffffffffffffffffffffffffff1673ffffffffffffffffffffffffffffffffffffffff16815260200191505060405180910390f35b3415610c1e57600080fd5b610c69600480803573ffffffffffffffffffffffffffffffffffffffff1690602001909190803573ffffffffffffffffffffffffffffffffffffffff169060200190919050506132e5565b6040518082815260200191505060405180910390f35b3415610c8a57600080fd5b610cb6600480803573ffffffffffffffffffffffffffffffffffffffff1690602001909190505061336c565b005b60086020528060005260406000206000915090505481565b6000809054906101000a900473ffffffffffffffffffffffffffffffffffffffff1673ffffffffffffffffffffffffffffffffffffffff163373ffffffffffffffffffffffffffffffffffffffff16141515610d2b57600080fd5b610d34816134c1565b1515610d3f57600080fd5b80600760006101000a81548173ffffffffffffffffffffffffffffffffffffffff021916908373ffffffffffffffffffffffffffffffffffffffff16021790555050565b60038054600181600116156101000203166002900480601f016020809104026020016040519081016040528092919081815260200182805460018160011615610100020316600290048015610e195780601f10610dee57610100808354040283529160200191610e19565b820191906000526020600020905b815481529060010190602001808311610dfc57829003601f168201915b505050505081565b60008060149054906101000a900460ff161580610e8a57506000809054906101000a900473ffffffffffffffffffffffffffffffffffffffff1673ffffffffffffffffffffffffffffffffffffffff163373ffffffffffffffffffffffffffffffffffffffff16145b1515610e9557600080fd5b81600260003373ffffffffffffffffffffffffffffffffffffffff1673ffffffffffffffffffffffffffffffffffffffff16815260200190815260200160002060008573ffffffffffffffffffffffffffffffffffffffff1673ffffffffffffffffffffffffffffffffffffffff168152602001908152602001600020819055508273ffffffffffffffffffffffffffffffffffffffff163373ffffffffffffffffffffffffffffffffffffffff167f8c5be1e5ebec7d5bd14f71427d1e84f3dd0314c0f7b2291e5b200ac8c7c3b925846040518082815260200191505060405180910390a36001905092915050565b600080610f9e6001600a546134d490919063ffffffff16565b84141515610fab57600080fd5b858585604051808473ffffffffffffffffffffffffffffffffffffffff1673ffffffffffffffffffffffffffffffffffffffff166c0100000000000000000000000002815260140183815260200182815260200193505050506040518091039020905061101886866115f6565b5061102f6001600a546134d490919063ffffffff16565b600a8190555050949350505050565b6000600654905090565b60008060149054906101000a900460ff1615806110b157506000809054906101000a900473ffffffffffffffffffffffffffffffffffffffff1673ffffffffffffffffffffffffffffffffffffffff163373ffffffffffffffffffffffffffffffffffffffff16145b15156110bc57600080fd5b60001515600b60008673ffffffffffffffffffffffffffffffffffffffff1673ffffffffffffffffffffffffffffffffffffffff16815260200190815260200160002060009054906101000a900460ff16151514151561111b57600080fd5b600073ffffffffffffffffffffffffffffffffffffffff168373ffffffffffffffffffffffffffffffffffffffff161415151561115757600080fd5b600160008573ffffffffffffffffffffffffffffffffffffffff1673ffffffffffffffffffffffffffffffffffffffff1681526020019081526020016000205482111515156111a557600080fd5b600260008573ffffffffffffffffffffffffffffffffffffffff1673ffffffffffffffffffffffffffffffffffffffff16815260200190815260200160002060003373ffffffffffffffffffffffffffffffffffffffff1673ffffffffffffffffffffffffffffffffffffffff16815260200190815260200160002054821115151561123057600080fd5b61128282600160008773ffffffffffffffffffffffffffffffffffffffff1673ffffffffffffffffffffffffffffffffffffffff168152602001908152602001600020546134f290919063ffffffff16565b600160008673ffffffffffffffffffffffffffffffffffffffff1673ffffffffffffffffffffffffffffffffffffffff168152602001908152602001600020819055506112cf848361350b565b61132182600160008673ffffffffffffffffffffffffffffffffffffffff1673ffffffffffffffffffffffffffffffffffffffff168152602001908152602001600020546134d490919063ffffffff16565b600160008573ffffffffffffffffffffffffffffffffffffffff1673ffffffffffffffffffffffffffffffffffffffff1681526020019081526020016000208190555061136e8383613835565b6113fd82600260008773ffffffffffffffffffffffffffffffffffffffff1673ffffffffffffffffffffffffffffffffffffffff16815260200190815260200160002060003373ffffffffffffffffffffffffffffffffffffffff1673ffffffffffffffffffffffffffffffffffffffff168152602001908152602001600020546134f290919063ffffffff16565b600260008673ffffffffffffffffffffffffffffffffffffffff1673ffffffffffffffffffffffffffffffffffffffff16815260200190815260200160002060003373ffffffffffffffffffffffffffffffffffffffff1673ffffffffffffffffffffffffffffffffffffffff168152602001908152602001600020819055508273ffffffffffffffffffffffffffffffffffffffff168473ffffffffffffffffffffffffffffffffffffffff167fddf252ad1be2c89b69c2b068fc378daa952ba7f163c4a11628f55a4df523b3ef846040518082815260200191505060405180910390a3600190509392505050565b60016020528060005260406000206000915090505481565b600460009054906101000a900460ff1681565b6000809054906101000a900473ffffffffffffffffffffffffffffffffffffffff1673ffffffffffffffffffffffffffffffffffffffff163373ffffffffffffffffffffffffffffffffffffffff1614151561157357600080fd5b600060149054906101000a900460ff16151561158e57600080fd5b60008060146101000a81548160ff0219169083151502179055507f7805862f689e2f13df9f062ff482ad3ad112aca9e0847911ed832e158c525b3360405160405180910390a1565b600c6020528060005260406000206000915054906101000a900460ff1681565b60008060009054906101000a900473ffffffffffffffffffffffffffffffffffffffff1673ffffffffffffffffffffffffffffffffffffffff163373ffffffffffffffffffffffffffffffffffffffff1614806116a05750600760009054906101000a900473ffffffffffffffffffffffffffffffffffffffff1673ffffffffffffffffffffffffffffffffffffffff163373ffffffffffffffffffffffffffffffffffffffff16145b15156116ab57600080fd5b6116c0826006546134d490919063ffffffff16565b60068190555061171882600160008673ffffffffffffffffffffffffffffffffffffffff1673ffffffffffffffffffffffffffffffffffffffff168152602001908152602001600020546134d490919063ffffffff16565b600160008573ffffffffffffffffffffffffffffffffffffffff1673ffffffffffffffffffffffffffffffffffffffff168152602001908152602001600020819055506117658383613835565b8273ffffffffffffffffffffffffffffffffffffffff167f0f6798a560793a54c3bcfe86a93cde1e73087d944c0ea20544137d4121396885836040518082815260200191505060405180910390a28273ffffffffffffffffffffffffffffffffffffffff16600073ffffffffffffffffffffffffffffffffffffffff167fddf252ad1be2c89b69c2b068fc378daa952ba7f163c4a11628f55a4df523b3ef846040518082815260200191505060405180910390a36001905092915050565b6000600654600860008473ffffffffffffffffffffffffffffffffffffffff1673ffffffffffffffffffffffffffffffffffffffff16815260200190815260200160002054141561187757606490506118e1565b6118de60646118d0600654600860008773ffffffffffffffffffffffffffffffffffffffff1673ffffffffffffffffffffffffffffffffffffffff16815260200190815260200160002054613b5f90919063ffffffff16565b613b7590919063ffffffff16565b90505b919050565b600060149054906101000a900460ff16158061194e57506000809054906101000a900473ffffffffffffffffffffffffffffffffffffffff1673ffffffffffffffffffffffffffffffffffffffff163373ffffffffffffffffffffffffffffffffffffffff16145b151561195957600080fd5b611962816134c1565b151561196d57600080fd5b6000600160003373ffffffffffffffffffffffffffffffffffffffff1673ffffffffffffffffffffffffffffffffffffffff168152602001908152602001600020541115156119bb57600080fd5b600073ffffffffffffffffffffffffffffffffffffffff168173ffffffffffffffffffffffffffffffffffffffff1614158015611a4557506000809054906101000a900473ffffffffffffffffffffffffffffffffffffffff1673ffffffffffffffffffffffffffffffffffffffff168173ffffffffffffffffffffffffffffffffffffffff1614155b1515611a5057600080fd5b8073ffffffffffffffffffffffffffffffffffffffff16600960003373ffffffffffffffffffffffffffffffffffffffff1673ffffffffffffffffffffffffffffffffffffffff16815260200190815260200160002060009054906101000a900473ffffffffffffffffffffffffffffffffffffffff1673ffffffffffffffffffffffffffffffffffffffff1614151515611aea57600080fd5b600073ffffffffffffffffffffffffffffffffffffffff16600960003373ffffffffffffffffffffffffffffffffffffffff1673ffffffffffffffffffffffffffffffffffffffff16815260200190815260200160002060009054906101000a900473ffffffffffffffffffffffffffffffffffffffff1673ffffffffffffffffffffffffffffffffffffffff16141515611c7157611c6f600160003373ffffffffffffffffffffffffffffffffffffffff1673ffffffffffffffffffffffffffffffffffffffff1681526020019081526020016000205460086000600960003373ffffffffffffffffffffffffffffffffffffffff1673ffffffffffffffffffffffffffffffffffffffff16815260200190815260200160002060009054906101000a900473ffffffffffffffffffffffffffffffffffffffff1673ffffffffffffffffffffffffffffffffffffffff1673ffffffffffffffffffffffffffffffffffffffff168152602001908152602001600020546134f290919063ffffffff16565b505b611d02600160003373ffffffffffffffffffffffffffffffffffffffff1673ffffffffffffffffffffffffffffffffffffffff16815260200190815260200160002054600860008473ffffffffffffffffffffffffffffffffffffffff1673ffffffffffffffffffffffffffffffffffffffff168152602001908152602001600020546134d490919063ffffffff16565b600860008373ffffffffffffffffffffffffffffffffffffffff1673ffffffffffffffffffffffffffffffffffffffff1681526020019081526020016000208190555080600960003373ffffffffffffffffffffffffffffffffffffffff1673ffffffffffffffffffffffffffffffffffffffff16815260200190815260200160002060006101000a81548173ffffffffffffffffffffffffffffffffffffffff021916908373ffffffffffffffffffffffffffffffffffffffff1602179055507febda6743c83f8926f57f32774da6ded1c80294405dc3e35b95d6064db1d2c8cd3382600160003373ffffffffffffffffffffffffffffffffffffffff1673ffffffffffffffffffffffffffffffffffffffff16815260200190815260200160002054604051808473ffffffffffffffffffffffffffffffffffffffff1673ffffffffffffffffffffffffffffffffffffffff1681526020018373ffffffffffffffffffffffffffffffffffffffff1673ffffffffffffffffffffffffffffffffffffffff168152602001828152602001935050505060405180910390a1611eb76002600654613b5f90919063ffffffff16565b600860008373ffffffffffffffffffffffffffffffffffffffff1673ffffffffffffffffffffffffffffffffffffffff168152602001908152602001600020541115611fe857806000806101000a81548173ffffffffffffffffffffffffffffffffffffffff021916908373ffffffffffffffffffffffffffffffffffffffff1602179055507f9871b6549038b3b446497a85745320a13e6b5cea38d16fc0f4b5b4ff806f039c81600860008473ffffffffffffffffffffffffffffffffffffffff1673ffffffffffffffffffffffffffffffffffffffff16815260200190815260200160002054604051808373ffffffffffffffffffffffffffffffffffffffff1673ffffffffffffffffffffffffffffffffffffffff1681526020018281526020019250505060405180910390a15b50565b6000809054906101000a900473ffffffffffffffffffffffffffffffffffffffff1673ffffffffffffffffffffffffffffffffffffffff163373ffffffffffffffffffffffffffffffffffffffff1614151561204657600080fd5b6000600760006101000a81548173ffffffffffffffffffffffffffffffffffffffff021916908373ffffffffffffffffffffffffffffffffffffffff160217905550565b6002602052816000526040600020602052806000526040600020600091509150505481565b600060149054906101000a900460ff1681565b600080600060149054906101000a900460ff16158061212d57506000809054906101000a900473ffffffffffffffffffffffffffffffffffffffff1673ffffffffffffffffffffffffffffffffffffffff163373ffffffffffffffffffffffffffffffffffffffff16145b151561213857600080fd5b60001515600b60008a73ffffffffffffffffffffffffffffffffffffffff1673ffffffffffffffffffffffffffffffffffffffff16815260200190815260200160002060009054906101000a900460ff16151514151561219757600080fd5b848601600160008a73ffffffffffffffffffffffffffffffffffffffff1673ffffffffffffffffffffffffffffffffffffffff16815260200190815260200160002054101580156121e757508342105b15156121f257600080fd5b8787878787604051808673ffffffffffffffffffffffffffffffffffffffff1673ffffffffffffffffffffffffffffffffffffffff166c010000000000000000000000000281526014018573ffffffffffffffffffffffffffffffffffffffff1673ffffffffffffffffffffffffffffffffffffffff166c01000000000000000000000000028152601401848152602001838152602001828152602001955050505050506040518091039020905060011515600c6000836000191660001916815260200190815260200160002060009054906101000a900460ff161515141515156122dc57600080fd5b8773ffffffffffffffffffffffffffffffffffffffff166122fd8285613bb0565b73ffffffffffffffffffffffffffffffffffffffff1614151561231f57600080fd5b612373858701600160008b73ffffffffffffffffffffffffffffffffffffffff1673ffffffffffffffffffffffffffffffffffffffff168152602001908152602001600020546134f290919063ffffffff16565b600160008a73ffffffffffffffffffffffffffffffffffffffff1673ffffffffffffffffffffffffffffffffffffffff168152602001908152602001600020819055506123c28886880161350b565b61241486600160008a73ffffffffffffffffffffffffffffffffffffffff1673ffffffffffffffffffffffffffffffffffffffff168152602001908152602001600020546134d490919063ffffffff16565b600160008973ffffffffffffffffffffffffffffffffffffffff1673ffffffffffffffffffffffffffffffffffffffff168152602001908152602001600020819055506124618787613835565b6124b385600160003373ffffffffffffffffffffffffffffffffffffffff1673ffffffffffffffffffffffffffffffffffffffff168152602001908152602001600020546134d490919063ffffffff16565b600160003373ffffffffffffffffffffffffffffffffffffffff1673ffffffffffffffffffffffffffffffffffffffff168152602001908152602001600020819055506125003386613835565b8673ffffffffffffffffffffffffffffffffffffffff168873ffffffffffffffffffffffffffffffffffffffff167fddf252ad1be2c89b69c2b068fc378daa952ba7f163c4a11628f55a4df523b3ef886040518082815260200191505060405180910390a33373ffffffffffffffffffffffffffffffffffffffff168873ffffffffffffffffffffffffffffffffffffffff167fddf252ad1be2c89b69c2b068fc378daa952ba7f163c4a11628f55a4df523b3ef876040518082815260200191505060405180910390a36001600c6000836000191660001916815260200190815260200160002060006101000a81548160ff02191690831515021790555060019150509695505050505050565b6000600160008373ffffffffffffffffffffffffffffffffffffffff1673ffffffffffffffffffffffffffffffffffffffff168152602001908152602001600020549050919050565b60008060009054906101000a900473ffffffffffffffffffffffffffffffffffffffff1673ffffffffffffffffffffffffffffffffffffffff163373ffffffffffffffffffffffffffffffffffffffff161480156126da57506126d96000809054906101000a900473ffffffffffffffffffffffffffffffffffffffff166134c1565b5b15156126e557600080fd5b61272e82600160008573ffffffffffffffffffffffffffffffffffffffff1673ffffffffffffffffffffffffffffffffffffffff1681526020019081526020016000205461350b565b600073ffffffffffffffffffffffffffffffffffffffff168273ffffffffffffffffffffffffffffffffffffffff167fddf252ad1be2c89b69c2b068fc378daa952ba7f163c4a11628f55a4df523b3ef600160008673ffffffffffffffffffffffffffffffffffffffff1673ffffffffffffffffffffffffffffffffffffffff168152602001908152602001600020546040518082815260200191505060405180910390a36000600160008473ffffffffffffffffffffffffffffffffffffffff1673ffffffffffffffffffffffffffffffffffffffff1681526020019081526020016000208190555060019050919050565b6000809054906101000a900473ffffffffffffffffffffffffffffffffffffffff1673ffffffffffffffffffffffffffffffffffffffff163373ffffffffffffffffffffffffffffffffffffffff1614151561287c57600080fd5b600060149054906101000a900460ff1615151561289857600080fd5b6001600060146101000a81548160ff0219169083151502179055507f6985a02210a168e66602d3235cb6db0e70f92b3ba4d376a33c0f3d9434bff62560405160405180910390a1565b60008060009054906101000a900473ffffffffffffffffffffffffffffffffffffffff1673ffffffffffffffffffffffffffffffffffffffff163373ffffffffffffffffffffffffffffffffffffffff1614801561296557506129646000809054906101000a900473ffffffffffffffffffffffffffffffffffffffff166134c1565b5b151561297057600080fd5b81600160008673ffffffffffffffffffffffffffffffffffffffff1673ffffffffffffffffffffffffffffffffffffffff16815260200190815260200160002054101515156129be57600080fd5b612a1082600160008773ffffffffffffffffffffffffffffffffffffffff1673ffffffffffffffffffffffffffffffffffffffff168152602001908152602001600020546134f290919063ffffffff16565b600160008673ffffffffffffffffffffffffffffffffffffffff1673ffffffffffffffffffffffffffffffffffffffff16815260200190815260200160002081905550612a5d848361350b565b612aaf82600160008673ffffffffffffffffffffffffffffffffffffffff1673ffffffffffffffffffffffffffffffffffffffff168152602001908152602001600020546134d490919063ffffffff16565b600160008573ffffffffffffffffffffffffffffffffffffffff1673ffffffffffffffffffffffffffffffffffffffff16815260200190815260200160002081905550612afc8383613835565b8273ffffffffffffffffffffffffffffffffffffffff168473ffffffffffffffffffffffffffffffffffffffff167fddf252ad1be2c89b69c2b068fc378daa952ba7f163c4a11628f55a4df523b3ef846040518082815260200191505060405180910390a3600190509392505050565b60008060009054906101000a900473ffffffffffffffffffffffffffffffffffffffff16905090565b6000809054906101000a900473ffffffffffffffffffffffffffffffffffffffff1681565b60058054600181600116156101000203166002900480601f016020809104026020016040519081016040528092919081815260200182805460018160011615610100020316600290048015612c505780601f10612c2557610100808354040283529160200191612c50565b820191906000526020600020905b815481529060010190602001808311612c3357829003601f168201915b505050505081565b60008060009054906101000a900473ffffffffffffffffffffffffffffffffffffffff1673ffffffffffffffffffffffffffffffffffffffff163373ffffffffffffffffffffffffffffffffffffffff16148015612cdc5750612cdb6000809054906101000a900473ffffffffffffffffffffffffffffffffffffffff166134c1565b5b1515612ce757600080fd5b612d3982600160008673ffffffffffffffffffffffffffffffffffffffff1673ffffffffffffffffffffffffffffffffffffffff168152602001908152602001600020546134f290919063ffffffff16565b600160008573ffffffffffffffffffffffffffffffffffffffff1673ffffffffffffffffffffffffffffffffffffffff16815260200190815260200160002081905550612d86838361350b565b600073ffffffffffffffffffffffffffffffffffffffff168373ffffffffffffffffffffffffffffffffffffffff167fddf252ad1be2c89b69c2b068fc378daa952ba7f163c4a11628f55a4df523b3ef846040518082815260200191505060405180910390a3600160008473ffffffffffffffffffffffffffffffffffffffff1673ffffffffffffffffffffffffffffffffffffffff16815260200190815260200160002054905092915050565b60096020528060005260406000206000915054906101000a900473ffffffffffffffffffffffffffffffffffffffff1681565b60008060149054906101000a900460ff161580612ed057506000809054906101000a900473ffffffffffffffffffffffffffffffffffffffff1673ffffffffffffffffffffffffffffffffffffffff163373ffffffffffffffffffffffffffffffffffffffff16145b1515612edb57600080fd5b60001515600b60003373ffffffffffffffffffffffffffffffffffffffff1673ffffffffffffffffffffffffffffffffffffffff16815260200190815260200160002060009054906101000a900460ff161515141515612f3a57600080fd5b600073ffffffffffffffffffffffffffffffffffffffff168373ffffffffffffffffffffffffffffffffffffffff1614151515612f7657600080fd5b600160003373ffffffffffffffffffffffffffffffffffffffff1673ffffffffffffffffffffffffffffffffffffffff168152602001908152602001600020548211151515612fc457600080fd5b61301682600160003373ffffffffffffffffffffffffffffffffffffffff1673ffffffffffffffffffffffffffffffffffffffff168152602001908152602001600020546134f290919063ffffffff16565b600160003373ffffffffffffffffffffffffffffffffffffffff1673ffffffffffffffffffffffffffffffffffffffff16815260200190815260200160002081905550613063338361350b565b6130b582600160008673ffffffffffffffffffffffffffffffffffffffff1673ffffffffffffffffffffffffffffffffffffffff168152602001908152602001600020546134d490919063ffffffff16565b600160008573ffffffffffffffffffffffffffffffffffffffff1673ffffffffffffffffffffffffffffffffffffffff168152602001908152602001600020819055506131028383613835565b8273ffffffffffffffffffffffffffffffffffffffff163373ffffffffffffffffffffffffffffffffffffffff167fddf252ad1be2c89b69c2b068fc378daa952ba7f163c4a11628f55a4df523b3ef846040518082815260200191505060405180910390a36001905092915050565b60008060009054906101000a900473ffffffffffffffffffffffffffffffffffffffff1673ffffffffffffffffffffffffffffffffffffffff163373ffffffffffffffffffffffffffffffffffffffff161480156131f557506131f46000809054906101000a900473ffffffffffffffffffffffffffffffffffffffff166134c1565b5b151561320057600080fd5b81600b60008573ffffffffffffffffffffffffffffffffffffffff1673ffffffffffffffffffffffffffffffffffffffff16815260200190815260200160002060006101000a81548160ff021916908315150217905550600160008473ffffffffffffffffffffffffffffffffffffffff1673ffffffffffffffffffffffffffffffffffffffff16815260200190815260200160002054905092915050565b600b6020528060005260406000206000915054906101000a900460ff1681565b600760009054906101000a900473ffffffffffffffffffffffffffffffffffffffff1681565b6000600260008473ffffffffffffffffffffffffffffffffffffffff1673ffffffffffffffffffffffffffffffffffffffff16815260200190815260200160002060008373ffffffffffffffffffffffffffffffffffffffff1673ffffffffffffffffffffffffffffffffffffffff16815260200190815260200160002054905092915050565b6000809054906101000a900473ffffffffffffffffffffffffffffffffffffffff1673ffffffffffffffffffffffffffffffffffffffff163373ffffffffffffffffffffffffffffffffffffffff161415156133c757600080fd5b600073ffffffffffffffffffffffffffffffffffffffff168173ffffffffffffffffffffffffffffffffffffffff161415151561340357600080fd5b8073ffffffffffffffffffffffffffffffffffffffff166000809054906101000a900473ffffffffffffffffffffffffffffffffffffffff1673ffffffffffffffffffffffffffffffffffffffff167f8be0079c531659141344cd1fd0a4f28419497f9722a3daafe3b4186f6b6457e060405160405180910390a3806000806101000a81548173ffffffffffffffffffffffffffffffffffffffff021916908373ffffffffffffffffffffffffffffffffffffffff16021790555050565b600080823b905060008111915050919050565b60008082840190508381101515156134e857fe5b8091505092915050565b600082821115151561350057fe5b818303905092915050565b600073ffffffffffffffffffffffffffffffffffffffff16600960008473ffffffffffffffffffffffffffffffffffffffff1673ffffffffffffffffffffffffffffffffffffffff16815260200190815260200160002060009054906101000a900473ffffffffffffffffffffffffffffffffffffffff1673ffffffffffffffffffffffffffffffffffffffff16141515613831577febda6743c83f8926f57f32774da6ded1c80294405dc3e35b95d6064db1d2c8cd82600960008573ffffffffffffffffffffffffffffffffffffffff1673ffffffffffffffffffffffffffffffffffffffff16815260200190815260200160002060009054906101000a900473ffffffffffffffffffffffffffffffffffffffff16600160003373ffffffffffffffffffffffffffffffffffffffff1673ffffffffffffffffffffffffffffffffffffffff16815260200190815260200160002054604051808473ffffffffffffffffffffffffffffffffffffffff1673ffffffffffffffffffffffffffffffffffffffff1681526020018373ffffffffffffffffffffffffffffffffffffffff1673ffffffffffffffffffffffffffffffffffffffff168152602001828152602001935050505060405180910390a161378e8160086000600960008773ffffffffffffffffffffffffffffffffffffffff1673ffffffffffffffffffffffffffffffffffffffff16815260200190815260200160002060009054906101000a900473ffffffffffffffffffffffffffffffffffffffff1673ffffffffffffffffffffffffffffffffffffffff1673ffffffffffffffffffffffffffffffffffffffff168152602001908152602001600020546134f290919063ffffffff16565b60086000600960008673ffffffffffffffffffffffffffffffffffffffff1673ffffffffffffffffffffffffffffffffffffffff16815260200190815260200160002060009054906101000a900473ffffffffffffffffffffffffffffffffffffffff1673ffffffffffffffffffffffffffffffffffffffff1673ffffffffffffffffffffffffffffffffffffffff168152602001908152602001600020819055505b5050565b600073ffffffffffffffffffffffffffffffffffffffff16600960008473ffffffffffffffffffffffffffffffffffffffff1673ffffffffffffffffffffffffffffffffffffffff16815260200190815260200160002060009054906101000a900473ffffffffffffffffffffffffffffffffffffffff1673ffffffffffffffffffffffffffffffffffffffff16141515613b5b577febda6743c83f8926f57f32774da6ded1c80294405dc3e35b95d6064db1d2c8cd82600960008573ffffffffffffffffffffffffffffffffffffffff1673ffffffffffffffffffffffffffffffffffffffff16815260200190815260200160002060009054906101000a900473ffffffffffffffffffffffffffffffffffffffff16600160003373ffffffffffffffffffffffffffffffffffffffff1673ffffffffffffffffffffffffffffffffffffffff16815260200190815260200160002054604051808473ffffffffffffffffffffffffffffffffffffffff1673ffffffffffffffffffffffffffffffffffffffff1681526020018373ffffffffffffffffffffffffffffffffffffffff1673ffffffffffffffffffffffffffffffffffffffff168152602001828152602001935050505060405180910390a1613ab88160086000600960008773ffffffffffffffffffffffffffffffffffffffff1673ffffffffffffffffffffffffffffffffffffffff16815260200190815260200160002060009054906101000a900473ffffffffffffffffffffffffffffffffffffffff1673ffffffffffffffffffffffffffffffffffffffff1673ffffffffffffffffffffffffffffffffffffffff168152602001908152602001600020546134d490919063ffffffff16565b60086000600960008673ffffffffffffffffffffffffffffffffffffffff1673ffffffffffffffffffffffffffffffffffffffff16815260200190815260200160002060009054906101000a900473ffffffffffffffffffffffffffffffffffffffff1673ffffffffffffffffffffffffffffffffffffffff1673ffffffffffffffffffffffffffffffffffffffff168152602001908152602001600020819055505b5050565b60008183811515613b6c57fe5b04905092915050565b6000806000841415613b8a5760009150613ba9565b8284029050828482811515613b9b57fe5b04141515613ba557fe5b8091505b5092915050565b60008060008060418551141515613bca5760009350613c98565b6020850151925060408501519150606085015160001a9050601b8160ff161015613bf557601b810190505b601b8160ff1614158015613c0d5750601c8160ff1614155b15613c1b5760009350613c98565b600186828585604051600081526020016040526040518085600019166000191681526020018460ff1660ff1681526020018360001916600019168152602001826000191660001916815260200194505050505060206040516020810390808403906000865af11515613c8c57600080fd5b50506020604051035193505b505050929150505600a165627a7a7230582091a30704f4545e5c6bcd903e7c19974302cb93625224499232f309e19f3e70c00029",
  "source": "pragma solidity ^0.4.18;\n\nimport \"./SafeMath.sol\";\nimport \"./ERC20.sol\";\nimport \"./OwnablePausable.sol\";\n\ncontract DCT is ERC20, Pausable {\n    using SafeMath for uint256;\n\n    /*\n        Token\n    */\n\n    mapping (address => uint256) public balances;\n    mapping (address => mapping (address => uint256)) public allowed;\n\n    uint256 constant private MAX_UINT256 = 2**256 - 1;\n    string public name = \"Dcourt\";\n    uint8 public decimals = 18;\n    string public symbol = \"DCT\";\n    uint256 public totalSupply;\n\n    function totalSupply() public view returns (uint256) {\n        return totalSupply;\n    }\n\n    function getOwner() public view returns(address){\n        return owner;\n    }\n    function transfer(address _to, uint256 _value) public whenNotPaused returns (bool) {\n        require(frozen[msg.sender] == false);\n        require(_to != address(0));\n        require(_value <= balances[msg.sender]);\n        balances[msg.sender] = balances[msg.sender].sub(_value);\n        decreaseVote(msg.sender, _value);\n        balances[_to] = balances[_to].add(_value);\n        increaseVote(_to, _value);\n        Transfer(msg.sender, _to, _value);\n        return true;\n    }\n\n    function transferFrom(address _from, address _to, uint256 _value) public whenNotPaused returns (bool) {\n        require(frozen[_from] == false);\n        require(_to != address(0));\n        require(_value <= balances[_from]);\n        require(_value <= allowed[_from][msg.sender]);\n        balances[_from] = balances[_from].sub(_value);\n        decreaseVote(_from, _value);\n        balances[_to] = balances[_to].add(_value);\n        increaseVote(_to, _value);\n        allowed[_from][msg.sender] = allowed[_from][msg.sender].sub(_value);\n        Transfer(_from, _to, _value);\n        return true;\n    }\n\n    function balanceOf(address _owner) public view returns (uint256 balance) {\n        return balances[_owner];\n    }\n\n    function approve(address _spender, uint256 _value) public whenNotPaused returns (bool) {\n        allowed[msg.sender][_spender] = _value;\n        Approval(msg.sender, _spender, _value);\n        return true;\n    }\n\n    function allowance(address _owner, address _spender) public view returns (uint256) {\n        return allowed[_owner][_spender];\n    }\n\n    /*\n        Minting\n    */\n\n    address public saleContract;\n\n    function setSaleContract(address _contract) public onlyOwner {\n        require(isContract(_contract));\n        saleContract = _contract;\n    }\n\n    function removeSaleContract() public onlyOwner {\n        saleContract = address(0);\n    }\n\n    event Mint(address indexed to, uint256 amount);\n\n    function mint(address _to, uint256 _amount) public returns (bool) {\n    require(msg.sender == owner || msg.sender == saleContract);\n    totalSupply = totalSupply.add(_amount);\n    balances[_to] = balances[_to].add(_amount);\n    increaseVote(_to, _amount);\n    Mint(_to, _amount);\n    Transfer(address(0), _to, _amount);\n    return true;\n    }\n\n    /*\n        Governance\n    */\n\n    mapping (address => uint256) public owners;\n    mapping (address => address) public voters;\n    event Signal(address _voter, address _owner, uint256 _amount);\n    event ElectedOwner(address _owner, uint256 _votes);\n\n    function signal(address _owner) whenNotPaused public {\n        require(isContract(_owner));\n        require(balances[msg.sender] > 0);\n        require(_owner != address(0) && _owner != owner);\n        require(voters[msg.sender] != _owner);\n\n        if(voters[msg.sender] != address(0)){\n            owners[voters[msg.sender]].sub(balances[msg.sender]);\n        }\n        owners[_owner] = owners[_owner].add(balances[msg.sender]);\n        voters[msg.sender] = _owner;\n        Signal(msg.sender, _owner, balances[msg.sender]);\n        if(owners[_owner] > (totalSupply.div(2))){\n            owner = _owner;\n            ElectedOwner(_owner, owners[_owner]);\n        }\n    }\n\n    function ownerPercentage(address _owner) public view returns (uint256) {\n      if(owners[_owner] == totalSupply) return 100;\n      return (owners[_owner].div(totalSupply)).mul(100);\n    }\n\n    function decreaseVote(address _voter, uint256 _amount) private {\n        if(voters[_voter] != address(0)){\n            Signal(_voter, voters[_voter], balances[msg.sender]);\n            owners[voters[_voter]] = owners[voters[_voter]].sub(_amount);\n        }\n\n    }\n\n    function increaseVote(address _voter, uint256 _amount) private {\n        if(voters[_voter] != address(0)){\n            Signal(_voter, voters[_voter], balances[msg.sender]);\n            owners[voters[_voter]] = owners[voters[_voter]].add(_amount);\n        }\n\n    }\n\n    /*\n        Bounty\n    */\n\n    uint256 private nonce;\n\n    function bounty(address _recipient, uint256 _amount, uint256 _nonce, bytes sig) public returns (bool) {\n        require(_nonce == nonce.add(1));\n        bytes32 _hash = keccak256(_recipient, _amount, _nonce);\n        //require(recover(_hash, sig) == owner);\n        mint(_recipient, _amount);\n        nonce = nonce.add(1);\n    }\n\n    /*\n        Dispute Arbitration Hooks\n    */\n\n    function relayFee(address _from, address _relay, uint256 _fee) public onlyOwnerContract returns(bool){\n        require(balances[_from] >= _fee);\n        balances[_from] = balances[_from].sub(_fee);\n        decreaseVote(_from, _fee);\n        balances[_relay] = balances[_relay].add(_fee);\n        increaseVote(_relay, _fee);\n        Transfer(_from, _relay, _fee);\n        return true;\n    }\n\n    mapping (address => bool) public frozen;\n\n    function freeze(address _account, bool _value) public onlyOwnerContract returns (uint256) {\n        frozen[_account] = _value;\n        return balances[_account];\n    }\n\n    function burn(address _account, uint256 _amount) public onlyOwnerContract returns (uint256) {\n        balances[_account] = balances[_account].sub(_amount);\n        decreaseVote(_account, _amount);\n        Transfer(_account, address(0), _amount);\n        return balances[_account];\n    }\n\n    function burnAll(address _account) public onlyOwnerContract returns(bool){\n        decreaseVote(_account, balances[_account]);\n        Transfer(_account, address(0), balances[_account]);\n        balances[_account] = 0;\n        return true;\n    }\n\n    /*\n        Relayed Transactions\n    */\n\n    mapping (bytes32 => bool) public relayed;\n    function relayTransfer(address _from, address _to, uint256 _value, uint256 _fee, uint256 _timeout, bytes sig) public whenNotPaused returns (bool) {\n        require(frozen[_from] == false);\n        require(balances[_from] >= (_value + _fee) && now < _timeout);\n        bytes32 hash = keccak256(_from, _to, _value, _fee, _timeout);\n        require(relayed[hash] != true);\n        require(recover(hash, sig) == _from);\n        balances[_from] = balances[_from].sub(_value + _fee);\n        decreaseVote(_from, (_value + _fee));\n        balances[_to] = balances[_to].add(_value);\n        increaseVote(_to, _value);\n        balances[msg.sender] = balances[msg.sender].add(_fee);\n        increaseVote(msg.sender, _fee);\n        Transfer(_from, _to, _value);\n        Transfer(_from, msg.sender, _fee);\n        relayed[hash] = true;\n        return true;\n    }\n\n    /*\n        Utils\n    */\n\n    function recover(bytes32 hash, bytes sig) private pure returns (address) {\n        bytes32 r;\n        bytes32 s;\n        uint8 v;\n        if (sig.length != 65) {\n          return (address(0));\n        }\n        assembly {\n          r := mload(add(sig, 32))\n          s := mload(add(sig, 64))\n          v := byte(0, mload(add(sig, 96)))\n        }\n        if (v < 27) {\n          v += 27;\n        }\n        if (v != 27 && v != 28) {\n          return (address(0));\n        } else {\n          return ecrecover(hash, v, r, s);\n        }\n    }\n\n        function isContract(address addr) private view returns (bool) {\n        uint size;\n        assembly {\n            size := extcodesize(addr)\n        }\n        return size > 0;\n    }\n}\n",
  "sourcePath": "/home/nour/Documents/Lamarkaz/Dcourt/contracts/Token/DCT.sol",
  "compiler": {
    "name": "solc",
    "version": "0.4.21+commit.dfe3193c.Emscripten.clang"
  },
  "schemaVersion": "2.0.0",
  "updatedAt": "2018-04-16T02:31:28.717Z"
}