{
  "contractName": "DCT",
  "abi": [
    {
      "constant": true,
      "inputs": [
        {
          "name": "",
          "type": "address"
        }
      ],
      "name": "owners",
      "outputs": [
        {
          "name": "",
          "type": "uint256"
        }
      ],
      "payable": false,
      "stateMutability": "view",
      "type": "function"
    },
    {
      "constant": true,
      "inputs": [],
      "name": "name",
      "outputs": [
        {
          "name": "",
          "type": "string"
        }
      ],
      "payable": false,
      "stateMutability": "view",
      "type": "function"
    },
    {
      "constant": true,
      "inputs": [
        {
          "name": "",
          "type": "address"
        }
      ],
      "name": "balances",
      "outputs": [
        {
          "name": "",
          "type": "uint256"
        }
      ],
      "payable": false,
      "stateMutability": "view",
      "type": "function"
    },
    {
      "constant": true,
      "inputs": [],
      "name": "decimals",
      "outputs": [
        {
          "name": "",
          "type": "uint8"
        }
      ],
      "payable": false,
      "stateMutability": "view",
      "type": "function"
    },
    {
      "constant": false,
      "inputs": [],
      "name": "unpause",
      "outputs": [],
      "payable": false,
      "stateMutability": "nonpayable",
      "type": "function"
    },
    {
      "constant": true,
      "inputs": [
        {
          "name": "",
          "type": "bytes32"
        }
      ],
      "name": "relayed",
      "outputs": [
        {
          "name": "",
          "type": "bool"
        }
      ],
      "payable": false,
      "stateMutability": "view",
      "type": "function"
    },
    {
      "constant": true,
      "inputs": [
        {
          "name": "",
          "type": "address"
        },
        {
          "name": "",
          "type": "address"
        }
      ],
      "name": "allowed",
      "outputs": [
        {
          "name": "",
          "type": "uint256"
        }
      ],
      "payable": false,
      "stateMutability": "view",
      "type": "function"
    },
    {
      "constant": true,
      "inputs": [],
      "name": "paused",
      "outputs": [
        {
          "name": "",
          "type": "bool"
        }
      ],
      "payable": false,
      "stateMutability": "view",
      "type": "function"
    },
    {
      "constant": false,
      "inputs": [],
      "name": "pause",
      "outputs": [],
      "payable": false,
      "stateMutability": "nonpayable",
      "type": "function"
    },
    {
      "constant": true,
      "inputs": [],
      "name": "owner",
      "outputs": [
        {
          "name": "",
          "type": "address"
        }
      ],
      "payable": false,
      "stateMutability": "view",
      "type": "function"
    },
    {
      "constant": true,
      "inputs": [],
      "name": "symbol",
      "outputs": [
        {
          "name": "",
          "type": "string"
        }
      ],
      "payable": false,
      "stateMutability": "view",
      "type": "function"
    },
    {
      "constant": true,
      "inputs": [
        {
          "name": "",
          "type": "address"
        }
      ],
      "name": "voters",
      "outputs": [
        {
          "name": "",
          "type": "address"
        }
      ],
      "payable": false,
      "stateMutability": "view",
      "type": "function"
    },
    {
      "constant": true,
      "inputs": [
        {
          "name": "",
          "type": "address"
        }
      ],
      "name": "frozen",
      "outputs": [
        {
          "name": "",
          "type": "bool"
        }
      ],
      "payable": false,
      "stateMutability": "view",
      "type": "function"
    },
    {
      "constant": true,
      "inputs": [],
      "name": "saleContract",
      "outputs": [
        {
          "name": "",
          "type": "address"
        }
      ],
      "payable": false,
      "stateMutability": "view",
      "type": "function"
    },
    {
      "constant": false,
      "inputs": [
        {
          "name": "newOwner",
          "type": "address"
        }
      ],
      "name": "transferOwnership",
      "outputs": [],
      "payable": false,
      "stateMutability": "nonpayable",
      "type": "function"
    },
    {
      "anonymous": false,
      "inputs": [
        {
          "indexed": true,
          "name": "to",
          "type": "address"
        },
        {
          "indexed": false,
          "name": "amount",
          "type": "uint256"
        }
      ],
      "name": "Mint",
      "type": "event"
    },
    {
      "anonymous": false,
      "inputs": [
        {
          "indexed": false,
          "name": "_voter",
          "type": "address"
        },
        {
          "indexed": true,
          "name": "_owner",
          "type": "address"
        },
        {
          "indexed": false,
          "name": "_amount",
          "type": "uint256"
        }
      ],
      "name": "Signal",
      "type": "event"
    },
    {
      "anonymous": false,
      "inputs": [
        {
          "indexed": false,
          "name": "_owner",
          "type": "address"
        },
        {
          "indexed": false,
          "name": "_votes",
          "type": "uint256"
        }
      ],
      "name": "ElectedOwner",
      "type": "event"
    },
    {
      "anonymous": false,
      "inputs": [
        {
          "indexed": true,
          "name": "addr",
          "type": "address"
        },
        {
          "indexed": false,
          "name": "_status",
          "type": "bool"
        }
      ],
      "name": "Frozen",
      "type": "event"
    },
    {
      "anonymous": false,
      "inputs": [],
      "name": "Pause",
      "type": "event"
    },
    {
      "anonymous": false,
      "inputs": [],
      "name": "Unpause",
      "type": "event"
    },
    {
      "anonymous": false,
      "inputs": [
        {
          "indexed": true,
          "name": "previousOwner",
          "type": "address"
        },
        {
          "indexed": true,
          "name": "newOwner",
          "type": "address"
        }
      ],
      "name": "OwnershipTransferred",
      "type": "event"
    },
    {
      "anonymous": false,
      "inputs": [
        {
          "indexed": true,
          "name": "from",
          "type": "address"
        },
        {
          "indexed": true,
          "name": "to",
          "type": "address"
        },
        {
          "indexed": false,
          "name": "value",
          "type": "uint256"
        }
      ],
      "name": "Transfer",
      "type": "event"
    },
    {
      "anonymous": false,
      "inputs": [
        {
          "indexed": true,
          "name": "owner",
          "type": "address"
        },
        {
          "indexed": true,
          "name": "spender",
          "type": "address"
        },
        {
          "indexed": false,
          "name": "value",
          "type": "uint256"
        }
      ],
      "name": "Approval",
      "type": "event"
    },
    {
      "constant": true,
      "inputs": [],
      "name": "totalSupply",
      "outputs": [
        {
          "name": "",
          "type": "uint256"
        }
      ],
      "payable": false,
      "stateMutability": "view",
      "type": "function"
    },
    {
      "constant": true,
      "inputs": [],
      "name": "getOwner",
      "outputs": [
        {
          "name": "",
          "type": "address"
        }
      ],
      "payable": false,
      "stateMutability": "view",
      "type": "function"
    },
    {
      "constant": false,
      "inputs": [
        {
          "name": "_to",
          "type": "address"
        },
        {
          "name": "_value",
          "type": "uint256"
        }
      ],
      "name": "transfer",
      "outputs": [
        {
          "name": "transferred",
          "type": "bool"
        }
      ],
      "payable": false,
      "stateMutability": "nonpayable",
      "type": "function"
    },
    {
      "constant": false,
      "inputs": [
        {
          "name": "_from",
          "type": "address"
        },
        {
          "name": "_to",
          "type": "address"
        },
        {
          "name": "_value",
          "type": "uint256"
        }
      ],
      "name": "transferFrom",
      "outputs": [
        {
          "name": "transferred",
          "type": "bool"
        }
      ],
      "payable": false,
      "stateMutability": "nonpayable",
      "type": "function"
    },
    {
      "constant": true,
      "inputs": [
        {
          "name": "_owner",
          "type": "address"
        }
      ],
      "name": "balanceOf",
      "outputs": [
        {
          "name": "balance",
          "type": "uint256"
        }
      ],
      "payable": false,
      "stateMutability": "view",
      "type": "function"
    },
    {
      "constant": false,
      "inputs": [
        {
          "name": "_spender",
          "type": "address"
        },
        {
          "name": "_value",
          "type": "uint256"
        }
      ],
      "name": "approve",
      "outputs": [
        {
          "name": "",
          "type": "bool"
        }
      ],
      "payable": false,
      "stateMutability": "nonpayable",
      "type": "function"
    },
    {
      "constant": true,
      "inputs": [
        {
          "name": "_owner",
          "type": "address"
        },
        {
          "name": "_spender",
          "type": "address"
        }
      ],
      "name": "allowance",
      "outputs": [
        {
          "name": "",
          "type": "uint256"
        }
      ],
      "payable": false,
      "stateMutability": "view",
      "type": "function"
    },
    {
      "constant": false,
      "inputs": [
        {
          "name": "_contract",
          "type": "address"
        }
      ],
      "name": "setSaleContract",
      "outputs": [],
      "payable": false,
      "stateMutability": "nonpayable",
      "type": "function"
    },
    {
      "constant": false,
      "inputs": [],
      "name": "removeSaleContract",
      "outputs": [],
      "payable": false,
      "stateMutability": "nonpayable",
      "type": "function"
    },
    {
      "constant": false,
      "inputs": [
        {
          "name": "_to",
          "type": "address"
        },
        {
          "name": "_amount",
          "type": "uint256"
        }
      ],
      "name": "mint",
      "outputs": [
        {
          "name": "minted",
          "type": "bool"
        }
      ],
      "payable": false,
      "stateMutability": "nonpayable",
      "type": "function"
    },
    {
      "constant": false,
      "inputs": [
        {
          "name": "_owner",
          "type": "address"
        }
      ],
      "name": "signal",
      "outputs": [
        {
          "name": "signaled",
          "type": "bool"
        }
      ],
      "payable": false,
      "stateMutability": "nonpayable",
      "type": "function"
    },
    {
      "constant": true,
      "inputs": [
        {
          "name": "_owner",
          "type": "address"
        }
      ],
      "name": "ownerPercentage",
      "outputs": [
        {
          "name": "",
          "type": "uint256"
        }
      ],
      "payable": false,
      "stateMutability": "view",
      "type": "function"
    },
    {
      "constant": false,
      "inputs": [
        {
          "name": "_recipient",
          "type": "address"
        },
        {
          "name": "_amount",
          "type": "uint256"
        },
        {
          "name": "_nonce",
          "type": "uint256"
        },
        {
          "name": "sig",
          "type": "bytes"
        }
      ],
      "name": "bounty",
      "outputs": [
        {
          "name": "",
          "type": "bool"
        }
      ],
      "payable": false,
      "stateMutability": "nonpayable",
      "type": "function"
    },
    {
      "constant": true,
      "inputs": [
        {
          "name": "_recipient",
          "type": "address"
        },
        {
          "name": "_amount",
          "type": "uint256"
        },
        {
          "name": "_nonce",
          "type": "uint256"
        }
      ],
      "name": "generateBountyHash",
      "outputs": [
        {
          "name": "",
          "type": "bytes32"
        }
      ],
      "payable": false,
      "stateMutability": "pure",
      "type": "function"
    },
    {
      "constant": false,
      "inputs": [
        {
          "name": "_from",
          "type": "address"
        },
        {
          "name": "_relay",
          "type": "address"
        },
        {
          "name": "_fee",
          "type": "uint256"
        }
      ],
      "name": "relayFee",
      "outputs": [
        {
          "name": "",
          "type": "bool"
        }
      ],
      "payable": false,
      "stateMutability": "nonpayable",
      "type": "function"
    },
    {
      "constant": false,
      "inputs": [
        {
          "name": "_account",
          "type": "address"
        },
        {
          "name": "_value",
          "type": "bool"
        }
      ],
      "name": "freeze",
      "outputs": [
        {
          "name": "",
          "type": "uint256"
        }
      ],
      "payable": false,
      "stateMutability": "nonpayable",
      "type": "function"
    },
    {
      "constant": false,
      "inputs": [
        {
          "name": "_account",
          "type": "address"
        },
        {
          "name": "_amount",
          "type": "uint256"
        }
      ],
      "name": "burn",
      "outputs": [
        {
          "name": "",
          "type": "uint256"
        }
      ],
      "payable": false,
      "stateMutability": "nonpayable",
      "type": "function"
    },
    {
      "constant": false,
      "inputs": [
        {
          "name": "_account",
          "type": "address"
        }
      ],
      "name": "burnAll",
      "outputs": [
        {
          "name": "",
          "type": "bool"
        }
      ],
      "payable": false,
      "stateMutability": "nonpayable",
      "type": "function"
    },
    {
      "constant": false,
      "inputs": [
        {
          "name": "_from",
          "type": "address"
        },
        {
          "name": "_to",
          "type": "address"
        },
        {
          "name": "_value",
          "type": "uint256"
        },
        {
          "name": "_fee",
          "type": "uint256"
        },
        {
          "name": "_timeout",
          "type": "uint256"
        },
        {
          "name": "sig",
          "type": "bytes"
        }
      ],
      "name": "relayTransfer",
      "outputs": [
        {
          "name": "",
          "type": "bool"
        }
      ],
      "payable": false,
      "stateMutability": "nonpayable",
      "type": "function"
    },
    {
      "constant": true,
      "inputs": [
        {
          "name": "_from",
          "type": "address"
        },
        {
          "name": "_to",
          "type": "address"
        },
        {
          "name": "qty",
          "type": "uint256"
        },
        {
          "name": "_fee",
          "type": "uint256"
        },
        {
          "name": "timeout",
          "type": "uint256"
        }
      ],
      "name": "generateRelayedTransferHash",
      "outputs": [
        {
          "name": "",
          "type": "bytes32"
        }
      ],
      "payable": false,
      "stateMutability": "view",
      "type": "function"
    }
  ],
  "bytecode": "0x606060409081526000805460a060020a60ff021916740100000000000000000000000000000000000000001790558051908101604052600681527f44636f75727400000000000000000000000000000000000000000000000000006020820152600390805162000074929160200190620000ed565b506004805460ff1916601217905560408051908101604052600381527f444354000000000000000000000000000000000000000000000000000000000060208201526005908051620000cb929160200190620000ed565b5060008054600160a060020a03191633600160a060020a031617905562000192565b828054600181600116156101000203166002900490600052602060002090601f016020900481019282601f106200013057805160ff191683800117855562000160565b8280016001018555821562000160579182015b828111156200016057825182559160200191906001019062000143565b506200016e92915062000172565b5090565b6200018f91905b808211156200016e576000815560010162000179565b90565b611e8380620001a26000396000f3006060604052600436106101b65763ffffffff7c0100000000000000000000000000000000000000000000000000000000600035041663022914a781146101bb57806303cbc098146101ec5780630593d2441461021157806306fdde0314610232578063095ea7b3146102bc5780631807ba7f146102f257806318160ddd1461035a5780631e83eca01461036d57806323b872dd1461039b57806327e235e3146103c3578063313ce567146103e25780633f4ba83a1461040b5780633f82495d1461041e57806340c10f19146104345780634cd0c96f14610456578063552b836f1461047557806355ebe9e5146104945780635c658165146104a75780635c975abb146104cc57806367954a92146104df57806370a08231146105535780637e9d2ac1146105725780638456cb591461059157806386409381146105a4578063893d20e8146105cc5780638da5cb5b146105fb57806395d89b411461060e5780639dc29fac14610621578063a3ec138d14610643578063a9059cbb14610662578063bf120ae514610684578063d0516650146106a8578063daf6ca30146106c7578063dd62ed3e146106da578063f2fde38b146106ff575b600080fd5b34156101c657600080fd5b6101da600160a060020a036004351661071e565b60405190815260200160405180910390f35b34156101f757600080fd5b6101da600160a060020a0360043516602435604435610730565b341561021c57600080fd5b610230600160a060020a0360043516610776565b005b341561023d57600080fd5b6102456107d4565b60405160208082528190810183818151815260200191508051906020019080838360005b83811015610281578082015183820152602001610269565b50505050905090810190601f1680156102ae5780820380516001836020036101000a031916815260200191505b509250505060405180910390f35b34156102c757600080fd5b6102de600160a060020a0360043516602435610872565b604051901515815260200160405180910390f35b34156102fd57600080fd5b6102de60048035600160a060020a03169060248035916044359160849060643590810190830135806020601f8201819004810201604051908101604052818152929190602084018383808284375094965061090f95505050505050565b341561036557600080fd5b6101da6109c9565b341561037857600080fd5b6101da600160a060020a03600435811690602435166044356064356084356109cf565b34156103a657600080fd5b6102de600160a060020a0360043581169060243516604435610a2a565b34156103ce57600080fd5b6101da600160a060020a0360043516610c1a565b34156103ed57600080fd5b6103f5610c2c565b60405160ff909116815260200160405180910390f35b341561041657600080fd5b610230610c35565b341561042957600080fd5b6102de600435610cb4565b341561043f57600080fd5b6102de600160a060020a0360043516602435610cc9565b341561046157600080fd5b6101da600160a060020a0360043516610d15565b341561048057600080fd5b6102de600160a060020a0360043516610d87565b341561049f57600080fd5b610230611037565b34156104b257600080fd5b6101da600160a060020a0360043581169060243516611071565b34156104d757600080fd5b6102de61108e565b34156104ea57600080fd5b6102de600160a060020a0360048035821691602480359091169160443591606435916084359160c49060a43590810190830135806020601f8201819004810201604051908101604052818152929190602084018383808284375094965061109e95505050505050565b341561055e57600080fd5b6101da600160a060020a0360043516611303565b341561057d57600080fd5b6102de600160a060020a036004351661131e565b341561059c57600080fd5b610230611407565b34156105af57600080fd5b6102de600160a060020a036004358116906024351660443561148b565b34156105d757600080fd5b6105df6115c2565b604051600160a060020a03909116815260200160405180910390f35b341561060657600080fd5b6105df6115d1565b341561061957600080fd5b6102456115e0565b341561062c57600080fd5b6101da600160a060020a036004351660243561164b565b341561064e57600080fd5b6105df600160a060020a0360043516611731565b341561066d57600080fd5b6102de600160a060020a036004351660243561174c565b341561068f57600080fd5b6101da600160a060020a036004351660243515156118b9565b34156106b357600080fd5b6102de600160a060020a036004351661196b565b34156106d257600080fd5b6105df611980565b34156106e557600080fd5b6101da600160a060020a036004358116906024351661198f565b341561070a57600080fd5b610230600160a060020a03600435166119ba565b60086020526000908152604090205481565b6000838383604051600160a060020a03939093166c0100000000000000000000000002835260148301919091526034820152605401604051809103902090509392505050565b60005433600160a060020a0390811691161461079157600080fd5b61079a81611a55565b15156107a557600080fd5b6007805473ffffffffffffffffffffffffffffffffffffffff1916600160a060020a0392909216919091179055565b60038054600181600116156101000203166002900480601f01602080910402602001604051908101604052809291908181526020018280546001816001161561010002031660029004801561086a5780601f1061083f5761010080835404028352916020019161086a565b820191906000526020600020905b81548152906001019060200180831161084d57829003601f168201915b505050505081565b6000805460a060020a900460ff16158061089a575060005433600160a060020a039081169116145b15156108a557600080fd5b600160a060020a03338116600081815260026020908152604080832094881680845294909152908190208590557f8c5be1e5ebec7d5bd14f71427d1e84f3dd0314c0f7b2291e5b200ac8c7c3b9259085905190815260200160405180910390a35060015b92915050565b6000806109286001600a54611a5d90919063ffffffff16565b841461093357600080fd5b858585604051600160a060020a03939093166c0100000000000000000000000002835260148301919091526034820152605401604051908190039020600054909150600160a060020a03166109888285611a77565b600160a060020a03161461099b57600080fd5b6109a58686611b4a565b50600a546109ba90600163ffffffff611a5d16565b600a5550600195945050505050565b60065490565b600085858585856040516c01000000000000000000000000600160a060020a03968716810282529490951690930260148501526028840191909152604883015260688201526088016040518091039020905095945050505050565b6000805460a060020a900460ff161580610a52575060005433600160a060020a039081169116145b1515610a5d57600080fd5b600160a060020a0384166000908152600b602052604090205460ff1615610a8357600080fd5b600160a060020a0383161515610a9857600080fd5b600160a060020a038416600090815260016020526040902054821115610abd57600080fd5b600160a060020a0380851660009081526002602090815260408083203390941683529290522054821115610af057600080fd5b600160a060020a038416600090815260016020526040902054610b19908363ffffffff611c2216565b600160a060020a038516600090815260016020526040902055610b3c8483611c34565b600160a060020a038316600090815260016020526040902054610b65908363ffffffff611a5d16565b600160a060020a038416600090815260016020526040902055610b888383611d2c565b600160a060020a0380851660009081526002602090815260408083203390941683529290522054610bbf908363ffffffff611c2216565b600160a060020a0380861660008181526002602090815260408083203386168452909152908190209390935590851691600080516020611e388339815191529085905190815260200160405180910390a35060019392505050565b60016020526000908152604090205481565b60045460ff1681565b60005433600160a060020a03908116911614610c5057600080fd5b60005460a060020a900460ff161515610c6857600080fd5b6000805474ff0000000000000000000000000000000000000000191690557f7805862f689e2f13df9f062ff482ad3ad112aca9e0847911ed832e158c525b3360405160405180910390a1565b600c6020526000908152604090205460ff1681565b6000805433600160a060020a0390811691161480610cf5575060075433600160a060020a039081169116145b1515610d0057600080fd5b610d0a8383611b4a565b151561090957600080fd5b600654600160a060020a03821660009081526008602052604081205490911415610d4157506064610d82565b600654600160a060020a038316600090815260086020526040902054610d7f91606491610d739163ffffffff611df716565b9063ffffffff611e0c16565b90505b919050565b6000805460a060020a900460ff161580610daf575060005433600160a060020a039081169116145b1515610dba57600080fd5b610dc382611a55565b1515610dce57600080fd5b600160a060020a03331660009081526001602052604081205411610df157600080fd5b600160a060020a03821615801590610e175750600054600160a060020a03838116911614155b1515610e2257600080fd5b600160a060020a0333811660009081526009602052604090205483821691161415610e4c57600080fd5b600160a060020a033381166000908152600960205260409020541615610eaf57600160a060020a03338116600090815260016020908152604080832054600983528184205490941683526008909152902054610ead9163ffffffff611c2216565b505b600160a060020a0333811660009081526001602090815260408083205493861683526008909152902054610ee89163ffffffff611a5d16565b600160a060020a0380841660008181526008602090815260408083209590955533938416825260098152848220805473ffffffffffffffffffffffffffffffffffffffff191684179055600190528390205490927febda6743c83f8926f57f32774da6ded1c80294405dc3e35b95d6064db1d2c8cd92919051600160a060020a03909216825260208201526040908101905180910390a2600654610f9390600263ffffffff611df716565b600160a060020a038316600090815260086020526040902054111561102f576000805473ffffffffffffffffffffffffffffffffffffffff1916600160a060020a038416908117825581526008602052604090819020547f9871b6549038b3b446497a85745320a13e6b5cea38d16fc0f4b5b4ff806f039c9184919051600160a060020a03909216825260208201526040908101905180910390a15b506001919050565b60005433600160a060020a0390811691161461105257600080fd5b6007805473ffffffffffffffffffffffffffffffffffffffff19169055565b600260209081526000928352604080842090915290825290205481565b60005460a060020a900460ff1681565b60008054819060a060020a900460ff1615806110c8575060005433600160a060020a039081169116145b15156110d357600080fd5b600160a060020a0388166000908152600b602052604090205460ff16156110f957600080fd5b600160a060020a038816600090815260016020526040902054868601901080159061112357508342105b151561112e57600080fd5b61113b88888888886109cf565b6000818152600c602052604090205490915060ff1615156001141561115f57600080fd5b87600160a060020a03166111738285611a77565b600160a060020a03161461118657600080fd5b600160a060020a0388166000908152600160205260409020546111b19087870163ffffffff611c2216565b600160a060020a0389166000908152600160205260409020556111d688878701611c34565b600160a060020a0387166000908152600160205260409020546111ff908763ffffffff611a5d16565b600160a060020a0388166000908152600160205260409020556112228787611d2c565b600160a060020a03331660009081526001602052604090205461124b908663ffffffff611a5d16565b33600160a060020a0381166000908152600160205260409020919091556112729086611d2c565b86600160a060020a031688600160a060020a0316600080516020611e388339815191528860405190815260200160405180910390a333600160a060020a031688600160a060020a0316600080516020611e388339815191528760405190815260200160405180910390a36000908152600c60205260409020805460ff19166001908117909155979650505050505050565b600160a060020a031660009081526001602052604090205490565b6000805433600160a060020a03908116911614801561134d575060005461134d90600160a060020a0316611a55565b151561135857600080fd5b600160a060020a03821660009081526001602052604090205461137c908390611c34565b600160a060020a0382166000908152600160205260409020546006546113a79163ffffffff611c2216565b600655600160a060020a03821660008181526001602052604080822054919291600080516020611e38833981519152915190815260200160405180910390a350600160a060020a0316600090815260016020819052604082209190915590565b60005433600160a060020a0390811691161461142257600080fd5b60005460a060020a900460ff161561143957600080fd5b6000805474ff0000000000000000000000000000000000000000191660a060020a1790557f6985a02210a168e66602d3235cb6db0e70f92b3ba4d376a33c0f3d9434bff62560405160405180910390a1565b6000805433600160a060020a0390811691161480156114ba57506000546114ba90600160a060020a0316611a55565b15156114c557600080fd5b600160a060020a038416600090815260016020526040902054829010156114eb57600080fd5b600160a060020a038416600090815260016020526040902054611514908363ffffffff611c2216565b600160a060020a0385166000908152600160205260409020556115378483611c34565b600160a060020a038316600090815260016020526040902054611560908363ffffffff611a5d16565b600160a060020a0384166000908152600160205260409020556115838383611d2c565b82600160a060020a031684600160a060020a0316600080516020611e388339815191528460405190815260200160405180910390a35060019392505050565b600054600160a060020a031690565b600054600160a060020a031681565b60058054600181600116156101000203166002900480601f01602080910402602001604051908101604052809291908181526020018280546001816001161561010002031660029004801561086a5780601f1061083f5761010080835404028352916020019161086a565b6000805433600160a060020a03908116911614801561167a575060005461167a90600160a060020a0316611a55565b151561168557600080fd5b600160a060020a0383166000908152600160205260409020546116ae908363ffffffff611c2216565b600160a060020a0384166000908152600160205260409020556006546116da908363ffffffff611c2216565b6006556116e78383611c34565b6000600160a060020a038416600080516020611e388339815191528460405190815260200160405180910390a35050600160a060020a031660009081526001602052604090205490565b600960205260009081526040902054600160a060020a031681565b6000805460a060020a900460ff161580611774575060005433600160a060020a039081169116145b151561177f57600080fd5b600160a060020a0333166000908152600b602052604090205460ff16156117a557600080fd5b600160a060020a03831615156117ba57600080fd5b600160a060020a0333166000908152600160205260409020548211156117df57600080fd5b600160a060020a033316600090815260016020526040902054611808908363ffffffff611c2216565b33600160a060020a03811660009081526001602052604090209190915561182f9083611c34565b600160a060020a038316600090815260016020526040902054611858908363ffffffff611a5d16565b600160a060020a03841660009081526001602052604090205561187b8383611d2c565b82600160a060020a031633600160a060020a0316600080516020611e388339815191528460405190815260200160405180910390a350600192915050565b6000805433600160a060020a0390811691161480156118e857506000546118e890600160a060020a0316611a55565b15156118f357600080fd5b600160a060020a0383166000818152600b602052604090819020805460ff19168515151790557f713eb400302cebac61f82eb8de5051d38458517ffac43ae45f4a9fd5d09ee69890849051901515815260200160405180910390a25050600160a060020a031660009081526001602052604090205490565b600b6020526000908152604090205460ff1681565b600754600160a060020a031681565b600160a060020a03918216600090815260026020908152604080832093909416825291909152205490565b60005433600160a060020a039081169116146119d557600080fd5b600160a060020a03811615156119ea57600080fd5b600054600160a060020a0380831691167f8be0079c531659141344cd1fd0a4f28419497f9722a3daafe3b4186f6b6457e060405160405180910390a36000805473ffffffffffffffffffffffffffffffffffffffff1916600160a060020a0392909216919091179055565b6000903b1190565b600082820183811015611a6c57fe5b8091505b5092915050565b6000806000808451604114611a8f5760009350611b41565b6020850151925060408501519150606085015160001a9050601b8160ff161015611ab757601b015b8060ff16601b14158015611acf57508060ff16601c14155b15611add5760009350611b41565b6001868285856040516000815260200160405260405193845260ff9092166020808501919091526040808501929092526060840192909252608090920191516020810390808403906000865af11515611b3557600080fd5b50506020604051035193505b50505092915050565b600654600090611b60908363ffffffff611a5d16565b600655600160a060020a038316600090815260016020526040902054611b8c908363ffffffff611a5d16565b600160a060020a038416600090815260016020526040902055611baf8383611d2c565b82600160a060020a03167f0f6798a560793a54c3bcfe86a93cde1e73087d944c0ea20544137d41213968858360405190815260200160405180910390a2600160a060020a0383166000600080516020611e388339815191528460405190815260200160405180910390a350600192915050565b600082821115611c2e57fe5b50900390565b600160a060020a038281166000908152600960205260409020541615611d2857600160a060020a038083166000908152600960209081526040808320543385168452600190925291829020549216917febda6743c83f8926f57f32774da6ded1c80294405dc3e35b95d6064db1d2c8cd9185919051600160a060020a03909216825260208201526040908101905180910390a2600160a060020a038083166000908152600960209081526040808320549093168252600890522054611cff908263ffffffff611c2216565b600160a060020a0380841660009081526009602090815260408083205490931682526008905220555b5050565b600160a060020a038281166000908152600960205260409020541615611d2857600160a060020a038083166000908152600960209081526040808320543385168452600190925291829020549216917febda6743c83f8926f57f32774da6ded1c80294405dc3e35b95d6064db1d2c8cd9185919051600160a060020a03909216825260208201526040908101905180910390a2600160a060020a038083166000908152600960209081526040808320549093168252600890522054611cff908263ffffffff611a5d16565b60008183811515611e0457fe5b049392505050565b600080831515611e1f5760009150611a70565b50828202828482811515611e2f57fe5b0414611a6c57fe00ddf252ad1be2c89b69c2b068fc378daa952ba7f163c4a11628f55a4df523b3efa165627a7a72305820ad35aeb10ffd3a426520277deb5b03654f577ca46a4e8b8fe9f02776d16e64970029",
  "source": "pragma solidity ^0.4.18;\n\nimport \"./SafeMath.sol\";\nimport \"./ERC20.sol\";\nimport \"./OwnablePausable.sol\";\n/**\n@title DCourt Arbitration contract\n@author Ihab McShea Nour Haridy\n*/\ncontract DCT is ERC20, Pausable {\n    using SafeMath for uint256;\n\n    /*\n        Token\n    */\n\n    mapping (address => uint256) public balances;\n    mapping (address => mapping (address => uint256)) public allowed;\n\n    uint256 constant private MAX_UINT256 = 2**256 - 1;\n    string public name = \"Dcourt\";\n    uint8 public decimals = 18;\n    string public symbol = \"DCT\";\n    uint256 public totalSupply;\n\n    function totalSupply() public view returns (uint256) {\n        return totalSupply;\n    }\n\n    function getOwner() public view returns(address){\n        return owner;\n    }\n    /**\n    @notice Transfer from the current address to a different address other than the zero address.\n    @param _to the address of the receiver\n    @param _value the amount sent\n    @return {\n      \"transferred\": \"if transferred\"\n    }\n    */\n    function transfer(address _to, uint256 _value) public whenNotPaused returns (bool transferred) {\n        require(frozen[msg.sender] == false);\n        require(_to != address(0));\n        require(_value <= balances[msg.sender]);\n        balances[msg.sender] = balances[msg.sender].sub(_value);\n        decreaseVote(msg.sender, _value);\n        balances[_to] = balances[_to].add(_value);\n        increaseVote(_to, _value);\n        emit Transfer(msg.sender, _to, _value);\n        return true;\n    }\n    /**\n    @notice Transfer an amount of money approved by the first account to another to a thrid account\n    @param _from the address of the first address\n    @param _to the adddress of the receiver\n    @param _value the amount sent\n    @return {\n      \"transferred\": \"if transferred\"\n    }\n    */\n    function transferFrom(address _from, address _to, uint256 _value) public whenNotPaused returns (bool transferred) {\n        require(frozen[_from] == false);\n        require(_to != address(0));\n        require(_value <= balances[_from]);\n        require(_value <= allowed[_from][msg.sender]);\n        balances[_from] = balances[_from].sub(_value);\n        decreaseVote(_from, _value);\n        balances[_to] = balances[_to].add(_value);\n        increaseVote(_to, _value);\n        allowed[_from][msg.sender] = allowed[_from][msg.sender].sub(_value);\n        emit Transfer(_from, _to, _value);\n        return true;\n    }\n\n    function balanceOf(address _owner) public view returns (uint256 balance) {\n        return balances[_owner];\n    }\n    /**\n    @notice Approve a specific amount of money to a second account to spend\n    @param _spender the address of the second account\n    @param _value the value allocated (approved)\n    @return {\n      \"registered\": \"if registered\"\n    }\n    */\n    function approve(address _spender, uint256 _value) public whenNotPaused returns (bool) {\n        allowed[msg.sender][_spender] = _value;\n        emit Approval(msg.sender, _spender, _value);\n        return true;\n    }\n\n    function allowance(address _owner, address _spender) public view returns (uint256) {\n        return allowed[_owner][_spender];\n    }\n\n    /*\n        Minting\n    */\n\n    address public saleContract;\n    /**\n    @notice Change/Set the sale contract. Only in pre-sale period.\n    @param _contract the address of the new contract\n    */\n    function setSaleContract(address _contract) public onlyOwner {\n        require(isContract(_contract));\n        saleContract = _contract;\n    }\n    /**\n    @notice Remove the sale contract. Called when the presale is over.\n    */\n    function removeSaleContract() public onlyOwner {\n        saleContract = address(0);\n    }\n\n    event Mint(address indexed to, uint256 amount);\n    /**\n    @notice Mint new tokens to a specific account.\n    @param _to the address of the account\n    @param _amount the amount of tokens to be minted\n    @return {\n      \"minted\": \"if minted\"\n    }\n    */\n    function mint(address _to, uint256 _amount) public returns (bool minted) {\n      require(msg.sender == owner || msg.sender == saleContract);\n      require(_mint(_to, _amount));\n    }\n\n    function _mint(address _to, uint256 _amount) internal returns (bool) {\n      totalSupply = totalSupply.add(_amount);\n      balances[_to] = balances[_to].add(_amount);\n      increaseVote(_to, _amount);\n      emit Mint(_to, _amount);\n      emit Transfer(address(0), _to, _amount);\n      return true;\n    }\n\n    /*\n        Governance\n    */\n\n    mapping (address => uint256) public owners;\n    mapping (address => address) public voters;\n    event Signal(address _voter, address indexed _owner, uint256 _amount);\n    event ElectedOwner(address _owner, uint256 _votes);\n    /**\n    @notice Vote for a smart contract to be the new owner of Dcourt. The owner change to whomever has more than 50% of all votes.\n    @param _owner the address of the owner contract\n    @return {\n      \"signaled\": \"if signaled\"\n    }\n    */\n    function signal(address _owner) whenNotPaused public returns(bool signaled){\n        require(isContract(_owner));\n        require(balances[msg.sender] > 0);\n        require(_owner != address(0) && _owner != owner);\n        require(voters[msg.sender] != _owner);\n\n        if(voters[msg.sender] != address(0)){\n            owners[voters[msg.sender]].sub(balances[msg.sender]);\n        }\n        owners[_owner] = owners[_owner].add(balances[msg.sender]);\n        voters[msg.sender] = _owner;\n        emit Signal(msg.sender, _owner, balances[msg.sender]);\n        if(owners[_owner] > (totalSupply.div(2))){\n            owner = _owner;\n            emit ElectedOwner(_owner, owners[_owner]);\n        }\n        return true;\n    }\n\n    function ownerPercentage(address _owner) public view returns (uint256) {\n      if(owners[_owner] == totalSupply) return 100;\n      return (owners[_owner].div(totalSupply)).mul(100);\n    }\n    /**\n    @notice Decrease the vote value of a voter. Only called within the DCT contract.\n    @param _voter the address of the voter\n    @param _amount the amount of tokens to be deducted.\n    */\n    function decreaseVote(address _voter, uint256 _amount) private {\n        if(voters[_voter] != address(0)){\n            emit Signal(_voter, voters[_voter], balances[msg.sender]);\n            owners[voters[_voter]] = owners[voters[_voter]].sub(_amount);\n        }\n\n    }\n    /**\n    @notice Increase the vote value of a voter. Only called within the DCT contract.\n    @param _voter the address of the voter\n    @param _amount the amount of tokens to be added.\n    */\n    function increaseVote(address _voter, uint256 _amount) private {\n        if(voters[_voter] != address(0)){\n            emit Signal(_voter, voters[_voter], balances[msg.sender]);\n            owners[voters[_voter]] = owners[voters[_voter]].add(_amount);\n        }\n\n    }\n\n    /*\n        Bounty\n    */\n\n    uint256 private nonce;\n\n    function bounty(address _recipient, uint256 _amount, uint256 _nonce, bytes sig) public returns (bool) {\n        require(_nonce == nonce.add(1));\n        bytes32 _hash = keccak256(_recipient, _amount, _nonce);\n        require(recover(_hash, sig) == owner);\n        _mint(_recipient, _amount);\n        nonce = nonce.add(1);\n        return true;\n    }\n\n    function generateBountyHash(address _recipient, uint256 _amount, uint256 _nonce) public pure returns (bytes32){\n      return keccak256(_recipient, _amount, _nonce);\n    }\n\n    /*\n        Dispute Arbitration Hooks\n    */\n\n    function relayFee(address _from, address _relay, uint256 _fee) public onlyOwnerContract returns(bool){\n        require(balances[_from] >= _fee);\n        balances[_from] = balances[_from].sub(_fee);\n        decreaseVote(_from, _fee);\n        balances[_relay] = balances[_relay].add(_fee);\n        increaseVote(_relay, _fee);\n        emit Transfer(_from, _relay, _fee);\n        return true;\n    }\n\n    mapping (address => bool) public frozen;\n    event Frozen(address indexed addr, bool _status);\n    function freeze(address _account, bool _value) public onlyOwnerContract returns (uint256) {\n        frozen[_account] = _value;\n        emit Frozen(_account, _value);\n        return balances[_account];\n    }\n\n    function burn(address _account, uint256 _amount) public onlyOwnerContract returns (uint256) {\n        balances[_account] = balances[_account].sub(_amount);\n        totalSupply = totalSupply.sub(_amount);\n        decreaseVote(_account, _amount);\n        emit Transfer(_account, address(0), _amount);\n        return balances[_account];\n    }\n\n    function burnAll(address _account) public onlyOwnerContract returns(bool){\n        decreaseVote(_account, balances[_account]);\n        totalSupply = totalSupply.sub(balances[_account]);\n        emit Transfer(_account, address(0), balances[_account]);\n        balances[_account] = 0;\n        return true;\n    }\n\n    /*\n        Relayed Transactions\n    */\n\n    mapping (bytes32 => bool) public relayed;\n    function relayTransfer(address _from, address _to, uint256 _value, uint256 _fee, uint256 _timeout, bytes sig) public whenNotPaused returns (bool) {\n        require(frozen[_from] == false);\n        require(balances[_from] >= (_value + _fee) && now < _timeout);\n        bytes32 hash = generateRelayedTransferHash (_from, _to, _value, _fee, _timeout);\n        require(relayed[hash] != true);\n        require(recover(hash, sig) == _from);\n        balances[_from] = balances[_from].sub(_value + _fee);\n        decreaseVote(_from, (_value + _fee));\n        balances[_to] = balances[_to].add(_value);\n        increaseVote(_to, _value);\n        balances[msg.sender] = balances[msg.sender].add(_fee);\n        increaseVote(msg.sender, _fee);\n        emit Transfer(_from, _to, _value);\n        emit Transfer(_from, msg.sender, _fee);\n        relayed[hash] = true;\n        return true;\n    }\n    /* event generatedRelayHash(address _from, uint256 qty); */\n    function generateRelayedTransferHash(address _from, address _to, uint256 qty, uint256 _fee, uint256 timeout) view returns(bytes32){\n      /* emit generatedRelayHash(_from, qty); */\n      return keccak256(_from, _to, qty, _fee, timeout);\n    }\n\n    /*\n        Utils\n    */\n\n    function recover(bytes32 hash, bytes sig) private pure returns (address) {\n        bytes32 r;\n        bytes32 s;\n        uint8 v;\n        if (sig.length != 65) {\n          return (address(0));\n        }\n        assembly {\n          r := mload(add(sig, 32))\n          s := mload(add(sig, 64))\n          v := byte(0, mload(add(sig, 96)))\n        }\n        if (v < 27) {\n          v += 27;\n        }\n        if (v != 27 && v != 28) {\n          return (address(0));\n        } else {\n          return ecrecover(hash, v, r, s);\n        }\n    }\n\n        function isContract(address addr) private view returns (bool) {\n        uint size;\n        assembly {\n            size := extcodesize(addr)\n        }\n        return size > 0;\n    }\n}\n",
  "sourcePath": "/home/ihab/newDCourt/Dcourt/contracts/Token/DCT.sol",
  "compiler": {
    "name": "solc",
    "version": "0.4.21+commit.dfe3193c.Emscripten.clang"
  },
  "schemaVersion": "2.0.0",
  "updatedAt": "2018-08-19T15:30:15.075Z"
}