{
  "contractName": "DCTPresale",
  "abi": [
    {
      "constant": true,
      "inputs": [],
      "name": "rate",
      "outputs": [
        {
          "name": "",
          "type": "uint256"
        }
      ],
      "payable": false,
      "stateMutability": "view",
      "type": "function"
    },
    {
      "constant": true,
      "inputs": [],
      "name": "cap",
      "outputs": [
        {
          "name": "",
          "type": "uint256"
        }
      ],
      "payable": false,
      "stateMutability": "view",
      "type": "function"
    },
    {
      "constant": true,
      "inputs": [],
      "name": "weiRaised",
      "outputs": [
        {
          "name": "",
          "type": "uint256"
        }
      ],
      "payable": false,
      "stateMutability": "view",
      "type": "function"
    },
    {
      "constant": true,
      "inputs": [],
      "name": "wallet",
      "outputs": [
        {
          "name": "",
          "type": "address"
        }
      ],
      "payable": false,
      "stateMutability": "view",
      "type": "function"
    },
    {
      "constant": true,
      "inputs": [],
      "name": "paused",
      "outputs": [
        {
          "name": "",
          "type": "bool"
        }
      ],
      "payable": false,
      "stateMutability": "view",
      "type": "function"
    },
    {
      "constant": true,
      "inputs": [],
      "name": "owner",
      "outputs": [
        {
          "name": "",
          "type": "address"
        }
      ],
      "payable": false,
      "stateMutability": "view",
      "type": "function"
    },
    {
      "constant": true,
      "inputs": [
        {
          "name": "",
          "type": "address"
        }
      ],
      "name": "whitelist",
      "outputs": [
        {
          "name": "",
          "type": "bool"
        }
      ],
      "payable": false,
      "stateMutability": "view",
      "type": "function"
    },
    {
      "constant": true,
      "inputs": [],
      "name": "token",
      "outputs": [
        {
          "name": "",
          "type": "address"
        }
      ],
      "payable": false,
      "stateMutability": "view",
      "type": "function"
    },
    {
      "inputs": [
        {
          "name": "_rate",
          "type": "uint256"
        },
        {
          "name": "_token",
          "type": "address"
        },
        {
          "name": "_cap",
          "type": "uint256"
        }
      ],
      "payable": false,
      "stateMutability": "nonpayable",
      "type": "constructor"
    },
    {
      "payable": true,
      "stateMutability": "payable",
      "type": "fallback"
    },
    {
      "anonymous": false,
      "inputs": [
        {
          "indexed": true,
          "name": "previousOwner",
          "type": "address"
        },
        {
          "indexed": true,
          "name": "newOwner",
          "type": "address"
        }
      ],
      "name": "OwnershipTransferred",
      "type": "event"
    },
    {
      "anonymous": false,
      "inputs": [],
      "name": "Pause",
      "type": "event"
    },
    {
      "anonymous": false,
      "inputs": [],
      "name": "Unpause",
      "type": "event"
    },
    {
      "anonymous": false,
      "inputs": [
        {
          "indexed": true,
          "name": "purchaser",
          "type": "address"
        },
        {
          "indexed": true,
          "name": "beneficiary",
          "type": "address"
        },
        {
          "indexed": false,
          "name": "value",
          "type": "uint256"
        },
        {
          "indexed": false,
          "name": "amount",
          "type": "uint256"
        }
      ],
      "name": "TokenPurchase",
      "type": "event"
    },
    {
      "constant": false,
      "inputs": [],
      "name": "Ownable",
      "outputs": [],
      "payable": false,
      "stateMutability": "nonpayable",
      "type": "function"
    },
    {
      "constant": false,
      "inputs": [
        {
          "name": "newOwner",
          "type": "address"
        }
      ],
      "name": "transferOwnership",
      "outputs": [],
      "payable": false,
      "stateMutability": "nonpayable",
      "type": "function"
    },
    {
      "constant": false,
      "inputs": [],
      "name": "pause",
      "outputs": [],
      "payable": false,
      "stateMutability": "nonpayable",
      "type": "function"
    },
    {
      "constant": false,
      "inputs": [],
      "name": "unpause",
      "outputs": [],
      "payable": false,
      "stateMutability": "nonpayable",
      "type": "function"
    },
    {
      "constant": false,
      "inputs": [
        {
          "name": "_beneficiary",
          "type": "address"
        }
      ],
      "name": "buyTokens",
      "outputs": [],
      "payable": true,
      "stateMutability": "payable",
      "type": "function"
    },
    {
      "constant": false,
      "inputs": [
        {
          "name": "_newRate",
          "type": "uint256"
        }
      ],
      "name": "setRate",
      "outputs": [
        {
          "name": "",
          "type": "bool"
        }
      ],
      "payable": false,
      "stateMutability": "nonpayable",
      "type": "function"
    },
    {
      "constant": false,
      "inputs": [
        {
          "name": "_newCap",
          "type": "uint256"
        }
      ],
      "name": "setCap",
      "outputs": [
        {
          "name": "",
          "type": "bool"
        }
      ],
      "payable": false,
      "stateMutability": "nonpayable",
      "type": "function"
    },
    {
      "constant": false,
      "inputs": [
        {
          "name": "_newWallet",
          "type": "address"
        }
      ],
      "name": "setWallet",
      "outputs": [
        {
          "name": "",
          "type": "bool"
        }
      ],
      "payable": false,
      "stateMutability": "nonpayable",
      "type": "function"
    },
    {
      "constant": true,
      "inputs": [],
      "name": "capReached",
      "outputs": [
        {
          "name": "",
          "type": "bool"
        }
      ],
      "payable": false,
      "stateMutability": "view",
      "type": "function"
    },
    {
      "constant": false,
      "inputs": [
        {
          "name": "_beneficiary",
          "type": "address"
        }
      ],
      "name": "addToWhitelist",
      "outputs": [],
      "payable": false,
      "stateMutability": "nonpayable",
      "type": "function"
    },
    {
      "constant": false,
      "inputs": [
        {
          "name": "_beneficiaries",
          "type": "address[]"
        }
      ],
      "name": "addManyToWhitelist",
      "outputs": [],
      "payable": false,
      "stateMutability": "nonpayable",
      "type": "function"
    },
    {
      "constant": false,
      "inputs": [
        {
          "name": "_beneficiary",
          "type": "address"
        }
      ],
      "name": "removeFromWhitelist",
      "outputs": [],
      "payable": false,
      "stateMutability": "nonpayable",
      "type": "function"
    }
  ],
  "bytecode": "0x60606040526001600060146101000a81548160ff021916908315150217905550341561002a57600080fd5b6040516060806112338339810160405280805190602001909190805190602001909190805190602001909190505060008311151561006757600080fd5b600073ffffffffffffffffffffffffffffffffffffffff168273ffffffffffffffffffffffffffffffffffffffff16141515156100a357600080fd5b6000811115156100b257600080fd5b806004819055508260028190555081600160006101000a81548173ffffffffffffffffffffffffffffffffffffffff021916908373ffffffffffffffffffffffffffffffffffffffff16021790555033600560006101000a81548173ffffffffffffffffffffffffffffffffffffffff021916908373ffffffffffffffffffffffffffffffffffffffff1602179055505050506110df806101546000396000f300606060405260043610610112576000357c0100000000000000000000000000000000000000000000000000000000900463ffffffff1680632c4e722e1461013957806334fcf43714610162578063355274ea1461019d5780633f4ba83a146101c65780634042b66f146101db57806347786d37146102045780634f9359451461023f578063521eb2731461026c5780635c975abb146102c15780638456cb59146102ee5780638ab1d681146103035780638afc36051461033c5780638c10671c146103515780638da5cb5b1461037f5780639b19251a146103d4578063deaa59df14610425578063e43252d714610476578063ec8ac4d8146104af578063f2fde38b146104dd578063fc0c546a14610516575b600060149054906101000a900460ff1615151561012e57600080fd5b6101373361056b565b005b341561014457600080fd5b61014c610844565b6040518082815260200191505060405180910390f35b341561016d57600080fd5b610183600480803590602001909190505061084a565b604051808215151515815260200191505060405180910390f35b34156101a857600080fd5b6101b06108c2565b6040518082815260200191505060405180910390f35b34156101d157600080fd5b6101d96108c8565b005b34156101e657600080fd5b6101ee610986565b6040518082815260200191505060405180910390f35b341561020f57600080fd5b610225600480803590602001909190505061098c565b604051808215151515815260200191505060405180910390f35b341561024a57600080fd5b610252610a04565b604051808215151515815260200191505060405180910390f35b341561027757600080fd5b61027f610a13565b604051808273ffffffffffffffffffffffffffffffffffffffff1673ffffffffffffffffffffffffffffffffffffffff16815260200191505060405180910390f35b34156102cc57600080fd5b6102d4610a39565b604051808215151515815260200191505060405180910390f35b34156102f957600080fd5b610301610a4c565b005b341561030e57600080fd5b61033a600480803573ffffffffffffffffffffffffffffffffffffffff16906020019091905050610b0c565b005b341561034757600080fd5b61034f610bc2565b005b341561035c57600080fd5b61037d60048080359060200190820180359060200191909192905050610c04565b005b341561038a57600080fd5b610392610d05565b604051808273ffffffffffffffffffffffffffffffffffffffff1673ffffffffffffffffffffffffffffffffffffffff16815260200191505060405180910390f35b34156103df57600080fd5b61040b600480803573ffffffffffffffffffffffffffffffffffffffff16906020019091905050610d2a565b604051808215151515815260200191505060405180910390f35b341561043057600080fd5b61045c600480803573ffffffffffffffffffffffffffffffffffffffff16906020019091905050610d4a565b604051808215151515815260200191505060405180910390f35b341561048157600080fd5b6104ad600480803573ffffffffffffffffffffffffffffffffffffffff16906020019091905050610e29565b005b6104db600480803573ffffffffffffffffffffffffffffffffffffffff1690602001909190505061056b565b005b34156104e857600080fd5b610514600480803573ffffffffffffffffffffffffffffffffffffffff16906020019091905050610edf565b005b341561052157600080fd5b610529611034565b604051808273ffffffffffffffffffffffffffffffffffffffff1673ffffffffffffffffffffffffffffffffffffffff16815260200191505060405180910390f35b600080600060149054906101000a900460ff1615151561058a57600080fd5b82600660008273ffffffffffffffffffffffffffffffffffffffff1673ffffffffffffffffffffffffffffffffffffffff16815260200190815260200160002060009054906101000a900460ff1615156105e357600080fd5b3492506004546105fe8460035461105a90919063ffffffff16565b1115151561060b57600080fd5b600073ffffffffffffffffffffffffffffffffffffffff168473ffffffffffffffffffffffffffffffffffffffff161415151561064757600080fd5b6000831415151561065757600080fd5b61066c6002548461107890919063ffffffff16565b9150600160009054906101000a900473ffffffffffffffffffffffffffffffffffffffff1673ffffffffffffffffffffffffffffffffffffffff166340c10f1985846040518363ffffffff167c0100000000000000000000000000000000000000000000000000000000028152600401808373ffffffffffffffffffffffffffffffffffffffff1673ffffffffffffffffffffffffffffffffffffffff16815260200182815260200192505050602060405180830381600087803b151561073257600080fd5b5af1151561073f57600080fd5b50505060405180519050151561075457600080fd5b6107698360035461105a90919063ffffffff16565b6003819055508373ffffffffffffffffffffffffffffffffffffffff163373ffffffffffffffffffffffffffffffffffffffff167f623b3804fa71d67900d064613da8f94b9617215ee90799290593e1745087ad188585604051808381526020018281526020019250505060405180910390a3600560009054906101000a900473ffffffffffffffffffffffffffffffffffffffff1673ffffffffffffffffffffffffffffffffffffffff166108fc349081150290604051600060405180830381858888f19350505050151561083e57600080fd5b50505050565b60025481565b60008060009054906101000a900473ffffffffffffffffffffffffffffffffffffffff1673ffffffffffffffffffffffffffffffffffffffff163373ffffffffffffffffffffffffffffffffffffffff161415156108a757600080fd5b6000821115156108b657600080fd5b81600281905550919050565b60045481565b6000809054906101000a900473ffffffffffffffffffffffffffffffffffffffff1673ffffffffffffffffffffffffffffffffffffffff163373ffffffffffffffffffffffffffffffffffffffff1614151561092357600080fd5b600060149054906101000a900460ff16151561093e57600080fd5b60008060146101000a81548160ff0219169083151502179055507f7805862f689e2f13df9f062ff482ad3ad112aca9e0847911ed832e158c525b3360405160405180910390a1565b60035481565b60008060009054906101000a900473ffffffffffffffffffffffffffffffffffffffff1673ffffffffffffffffffffffffffffffffffffffff163373ffffffffffffffffffffffffffffffffffffffff161415156109e957600080fd5b6000821115156109f857600080fd5b81600481905550919050565b60006004546003541015905090565b600560009054906101000a900473ffffffffffffffffffffffffffffffffffffffff1681565b600060149054906101000a900460ff1681565b6000809054906101000a900473ffffffffffffffffffffffffffffffffffffffff1673ffffffffffffffffffffffffffffffffffffffff163373ffffffffffffffffffffffffffffffffffffffff16141515610aa757600080fd5b600060149054906101000a900460ff16151515610ac357600080fd5b6001600060146101000a81548160ff0219169083151502179055507f6985a02210a168e66602d3235cb6db0e70f92b3ba4d376a33c0f3d9434bff62560405160405180910390a1565b6000809054906101000a900473ffffffffffffffffffffffffffffffffffffffff1673ffffffffffffffffffffffffffffffffffffffff163373ffffffffffffffffffffffffffffffffffffffff16141515610b6757600080fd5b6000600660008373ffffffffffffffffffffffffffffffffffffffff1673ffffffffffffffffffffffffffffffffffffffff16815260200190815260200160002060006101000a81548160ff02191690831515021790555050565b336000806101000a81548173ffffffffffffffffffffffffffffffffffffffff021916908373ffffffffffffffffffffffffffffffffffffffff160217905550565b60008060009054906101000a900473ffffffffffffffffffffffffffffffffffffffff1673ffffffffffffffffffffffffffffffffffffffff163373ffffffffffffffffffffffffffffffffffffffff16141515610c6157600080fd5b600090505b82829050811015610d00576001600660008585858181101515610c8557fe5b9050602002013573ffffffffffffffffffffffffffffffffffffffff1673ffffffffffffffffffffffffffffffffffffffff1673ffffffffffffffffffffffffffffffffffffffff16815260200190815260200160002060006101000a81548160ff0219169083151502179055508080600101915050610c66565b505050565b6000809054906101000a900473ffffffffffffffffffffffffffffffffffffffff1681565b60066020528060005260406000206000915054906101000a900460ff1681565b60008060009054906101000a900473ffffffffffffffffffffffffffffffffffffffff1673ffffffffffffffffffffffffffffffffffffffff163373ffffffffffffffffffffffffffffffffffffffff16141515610da757600080fd5b600073ffffffffffffffffffffffffffffffffffffffff168273ffffffffffffffffffffffffffffffffffffffff1614151515610de357600080fd5b81600560006101000a81548173ffffffffffffffffffffffffffffffffffffffff021916908373ffffffffffffffffffffffffffffffffffffffff160217905550919050565b6000809054906101000a900473ffffffffffffffffffffffffffffffffffffffff1673ffffffffffffffffffffffffffffffffffffffff163373ffffffffffffffffffffffffffffffffffffffff16141515610e8457600080fd5b6001600660008373ffffffffffffffffffffffffffffffffffffffff1673ffffffffffffffffffffffffffffffffffffffff16815260200190815260200160002060006101000a81548160ff02191690831515021790555050565b6000809054906101000a900473ffffffffffffffffffffffffffffffffffffffff1673ffffffffffffffffffffffffffffffffffffffff163373ffffffffffffffffffffffffffffffffffffffff16141515610f3a57600080fd5b600073ffffffffffffffffffffffffffffffffffffffff168173ffffffffffffffffffffffffffffffffffffffff1614151515610f7657600080fd5b8073ffffffffffffffffffffffffffffffffffffffff166000809054906101000a900473ffffffffffffffffffffffffffffffffffffffff1673ffffffffffffffffffffffffffffffffffffffff167f8be0079c531659141344cd1fd0a4f28419497f9722a3daafe3b4186f6b6457e060405160405180910390a3806000806101000a81548173ffffffffffffffffffffffffffffffffffffffff021916908373ffffffffffffffffffffffffffffffffffffffff16021790555050565b600160009054906101000a900473ffffffffffffffffffffffffffffffffffffffff1681565b600080828401905083811015151561106e57fe5b8091505092915050565b600080600084141561108d57600091506110ac565b828402905082848281151561109e57fe5b041415156110a857fe5b8091505b50929150505600a165627a7a72305820b0c655d7ccbc6ae101db1f70292060e55dd080645b7526083cc3450a230c3e4e0029",
  "source": "pragma solidity ^0.4.18;\n\nimport \"./SafeMath.sol\";\nimport \"./DCTInterface.sol\";\n\ncontract DCTPresale {\n    using SafeMath for uint256;\n\n    /*\n      Ownable\n    */\n        address public owner;\n\n        event OwnershipTransferred(address indexed previousOwner, address indexed newOwner);\n\n        function Ownable() public {\n            owner = msg.sender;\n        }\n\n        modifier onlyOwner() {\n            require(msg.sender == owner);\n            _;\n        }\n\n        function transferOwnership(address newOwner) public onlyOwner {\n            require(newOwner != address(0));\n            emit OwnershipTransferred(owner, newOwner);\n            owner = newOwner;\n        }\n\n\n    /*\n      Pausable\n    */\n      event Pause();\n      event Unpause();\n\n      bool public paused = true;\n\n      modifier whenNotPaused() {\n        require(!paused);\n        _;\n      }\n\n      modifier whenPaused() {\n        require(paused);\n        _;\n      }\n\n      function pause() onlyOwner public {\n        require(!paused);\n        paused = true;\n        emit Pause();\n      }\n\n      function unpause() onlyOwner whenPaused public {\n        paused = false;\n        emit Unpause();\n      }\n\n    DCT public token;\n\n    uint256 public rate;\n    uint256 public weiRaised;\n    uint256 public cap;\n    address public wallet;\n\n    mapping(address => bool) public whitelist;\n\n    modifier isWhitelisted(address _beneficiary) {\n        require(whitelist[_beneficiary]);\n        _;\n    }\n\n    event TokenPurchase(address indexed purchaser, address indexed beneficiary, uint256 value, uint256 amount);\n\n    function DCTPresale(uint256 _rate, DCT _token, uint256 _cap) public {\n        require(_rate > 0);\n        require(_token != address(0));\n        require(_cap > 0);\n        cap = _cap;\n        rate = _rate;\n        token = _token;\n        wallet = msg.sender;\n    }\n\n    function () external whenNotPaused payable {\n        buyTokens(msg.sender);\n    }\n\n    function buyTokens(address _beneficiary) whenNotPaused isWhitelisted(_beneficiary) public payable {\n\n        uint256 weiAmount = msg.value;\n        require(weiRaised.add(weiAmount) <= cap);\n        require(_beneficiary != address(0));\n        require(weiAmount != 0);\n\n        uint256 tokens = weiAmount.mul(rate);\n\n        require(DCT(token).mint(_beneficiary, tokens));\n\n        weiRaised = weiRaised.add(weiAmount);\n\n        emit TokenPurchase(msg.sender, _beneficiary, weiAmount, tokens);\n\n        wallet.transfer(msg.value);\n    }\n\n    function setRate(uint256 _newRate) public onlyOwner returns (bool) {\n        require(_newRate > 0);\n        rate = _newRate;\n    }\n\n    function setCap(uint256 _newCap) public onlyOwner returns (bool) {\n        require(_newCap > 0);\n        cap = _newCap;\n    }\n\n    function setWallet(address _newWallet) public onlyOwner returns (bool) {\n        require(_newWallet != address (0));\n        wallet = _newWallet;\n    }\n\n    function capReached() public view returns (bool) {\n        return weiRaised >= cap;\n    }\n\n    function addToWhitelist(address _beneficiary) external onlyOwner {\n        whitelist[_beneficiary] = true;\n    }\n\n\n    function addManyToWhitelist(address[] _beneficiaries) external onlyOwner {\n        for (uint256 i = 0; i < _beneficiaries.length; i++) {\n            whitelist[_beneficiaries[i]] = true;\n        }\n    }\n\n    function removeFromWhitelist(address _beneficiary) external onlyOwner {\n        whitelist[_beneficiary] = false;\n    }\n\n}\n",
  "sourcePath": "/home/nour/Documents/Lamarkaz/Dcourt/contracts/Presale/Presale.sol",
  "compiler": {
    "name": "solc",
    "version": "0.4.21+commit.dfe3193c.Emscripten.clang"
  },
  "schemaVersion": "2.0.0",
  "updatedAt": "2018-04-16T22:26:29.904Z"
}