{
  "contractName": "Pausable",
  "abi": [
    {
      "constant": true,
      "inputs": [],
      "name": "paused",
      "outputs": [
        {
          "name": "",
          "type": "bool"
        }
      ],
      "payable": false,
      "stateMutability": "view",
      "type": "function"
    },
    {
      "constant": true,
      "inputs": [],
      "name": "owner",
      "outputs": [
        {
          "name": "",
          "type": "address"
        }
      ],
      "payable": false,
      "stateMutability": "view",
      "type": "function"
    },
    {
      "constant": false,
      "inputs": [
        {
          "name": "newOwner",
          "type": "address"
        }
      ],
      "name": "transferOwnership",
      "outputs": [],
      "payable": false,
      "stateMutability": "nonpayable",
      "type": "function"
    },
    {
      "anonymous": false,
      "inputs": [],
      "name": "Pause",
      "type": "event"
    },
    {
      "anonymous": false,
      "inputs": [],
      "name": "Unpause",
      "type": "event"
    },
    {
      "anonymous": false,
      "inputs": [
        {
          "indexed": true,
          "name": "previousOwner",
          "type": "address"
        },
        {
          "indexed": true,
          "name": "newOwner",
          "type": "address"
        }
      ],
      "name": "OwnershipTransferred",
      "type": "event"
    },
    {
      "constant": false,
      "inputs": [],
      "name": "pause",
      "outputs": [],
      "payable": false,
      "stateMutability": "nonpayable",
      "type": "function"
    },
    {
      "constant": false,
      "inputs": [],
      "name": "unpause",
      "outputs": [],
      "payable": false,
      "stateMutability": "nonpayable",
      "type": "function"
    }
  ],
  "bytecode": "0x6060604052600080547401000000000000000000000000000000000000000060a060020a60ff021990911617600160a060020a03191633600160a060020a031617815561033b90819061005290396000f30060606040526004361061006c5763ffffffff7c01000000000000000000000000000000000000000000000000000000006000350416633f4ba83a81146100715780635c975abb146100865780638456cb59146100ad5780638da5cb5b146100c0578063f2fde38b146100ef575b600080fd5b341561007c57600080fd5b61008461010e565b005b341561009157600080fd5b61009961019e565b604051901515815260200160405180910390f35b34156100b857600080fd5b6100846101bf565b34156100cb57600080fd5b6100d3610265565b604051600160a060020a03909116815260200160405180910390f35b34156100fa57600080fd5b610084600160a060020a0360043516610274565b60005433600160a060020a0390811691161461012957600080fd5b60005474010000000000000000000000000000000000000000900460ff16151561015257600080fd5b6000805474ff0000000000000000000000000000000000000000191690557f7805862f689e2f13df9f062ff482ad3ad112aca9e0847911ed832e158c525b3360405160405180910390a1565b60005474010000000000000000000000000000000000000000900460ff1681565b60005433600160a060020a039081169116146101da57600080fd5b60005474010000000000000000000000000000000000000000900460ff161561020257600080fd5b6000805474ff00000000000000000000000000000000000000001916740100000000000000000000000000000000000000001790557f6985a02210a168e66602d3235cb6db0e70f92b3ba4d376a33c0f3d9434bff62560405160405180910390a1565b600054600160a060020a031681565b60005433600160a060020a0390811691161461028f57600080fd5b600160a060020a03811615156102a457600080fd5b600054600160a060020a0380831691167f8be0079c531659141344cd1fd0a4f28419497f9722a3daafe3b4186f6b6457e060405160405180910390a36000805473ffffffffffffffffffffffffffffffffffffffff1916600160a060020a03929092169190911790555600a165627a7a7230582074971f5773a7b79fc8307794bbc08eb206cf17a49d452ec3d3f3ce285de8cb0f0029",
  "source": "pragma solidity ^0.4.18;\n\ncontract Ownable {\n    address public owner;\n\n    event OwnershipTransferred(address indexed previousOwner, address indexed newOwner);\n\n    function Ownable() public {\n    owner = msg.sender;\n    }\n\n    modifier onlyOwner() {\n    require(msg.sender == owner);\n    _;\n    }\n\n    modifier onlyOwnerContract() {\n        require(msg.sender == owner && isContract(owner));\n        _;\n    }\n\n    function transferOwnership(address newOwner) public onlyOwner {\n    require(newOwner != address(0));\n    emit OwnershipTransferred(owner, newOwner);\n    owner = newOwner;\n    }\n\n    function isContract(address addr) private view returns (bool) {\n        uint size;\n        assembly {\n            size := extcodesize(addr)\n        }\n        return size > 0;\n    }\n\n}\n\ncontract Pausable is Ownable {\n  event Pause();\n  event Unpause();\n\n  bool public paused = true;\n\n  modifier whenNotPaused() {\n    require(!paused || msg.sender == owner);\n    _;\n  }\n\n  modifier whenPaused() {\n    require(paused);\n    _;\n  }\n\n  function pause() onlyOwner public {\n    require(!paused);\n    paused = true;\n    emit Pause();\n  }\n\n  function unpause() onlyOwner whenPaused public {\n    paused = false;\n    emit Unpause();\n  }\n}\n",
  "sourcePath": "/home/ihab/newDCourt/Dcourt/contracts/Token/OwnablePausable.sol",
  "compiler": {
    "name": "solc",
    "version": "0.4.21+commit.dfe3193c.Emscripten.clang"
  },
  "schemaVersion": "2.0.0",
  "updatedAt": "2018-08-19T15:30:15.084Z"
}